{
  "address": "0x4aB507E85B148e66B5a79B34a8A7942Ef368c7b8",
  "abi": [
    {
      "anonymous": false,
      "inputs": [
        {
          "indexed": true,
          "internalType": "address",
          "name": "previousPendingOwner",
          "type": "address"
        },
        {
          "indexed": true,
          "internalType": "address",
          "name": "newPendingOwner",
          "type": "address"
        }
      ],
      "name": "ChangePendingOwner",
      "type": "event"
    },
    {
      "anonymous": false,
      "inputs": [
        {
          "indexed": true,
          "internalType": "address",
          "name": "previousOwner",
          "type": "address"
        },
        {
          "indexed": true,
          "internalType": "address",
          "name": "newOwner",
          "type": "address"
        }
      ],
      "name": "OwnershipTransferred",
      "type": "event"
    },
    {
      "inputs": [],
      "name": "USDT",
      "outputs": [
        {
          "internalType": "address",
          "name": "",
          "type": "address"
        }
      ],
      "stateMutability": "view",
      "type": "function"
    },
    {
      "inputs": [],
      "name": "WETH",
      "outputs": [
        {
          "internalType": "address",
          "name": "",
          "type": "address"
        }
      ],
      "stateMutability": "view",
      "type": "function"
    },
    {
      "inputs": [],
      "name": "acceptOwner",
      "outputs": [],
      "stateMutability": "nonpayable",
      "type": "function"
    },
    {
      "inputs": [],
      "name": "caller",
      "outputs": [
        {
          "internalType": "address",
          "name": "",
          "type": "address"
        }
      ],
      "stateMutability": "view",
      "type": "function"
    },
    {
      "inputs": [],
      "name": "destroyAll",
      "outputs": [],
      "stateMutability": "nonpayable",
      "type": "function"
    },
    {
      "inputs": [],
      "name": "destroyToken",
      "outputs": [
        {
          "internalType": "address",
          "name": "",
          "type": "address"
        }
      ],
      "stateMutability": "view",
      "type": "function"
    },
    {
      "inputs": [
        {
          "internalType": "address[]",
          "name": "pairs",
          "type": "address[]"
        },
        {
          "internalType": "uint256",
          "name": "minAmount",
          "type": "uint256"
        }
      ],
      "name": "doHardwork",
      "outputs": [],
      "stateMutability": "nonpayable",
      "type": "function"
    },
    {
      "inputs": [],
      "name": "factory",
      "outputs": [
        {
          "internalType": "contract IGIBXFactory",
          "name": "",
          "type": "address"
        }
      ],
      "stateMutability": "view",
      "type": "function"
    },
    {
      "inputs": [],
      "name": "hole",
      "outputs": [
        {
          "internalType": "address",
          "name": "",
          "type": "address"
        }
      ],
      "stateMutability": "view",
      "type": "function"
    },
    {
      "inputs": [
        {
          "internalType": "address",
          "name": "vault_",
          "type": "address"
        },
        {
          "internalType": "contract IGIBXRouter",
          "name": "router_",
          "type": "address"
        },
        {
          "internalType": "contract IGIBXFactory",
          "name": "factory_",
          "type": "address"
        },
        {
          "internalType": "address",
          "name": "WETH_",
          "type": "address"
        },
        {
          "internalType": "address",
          "name": "destroyToken_",
          "type": "address"
        },
        {
          "internalType": "address",
          "name": "USDT_",
          "type": "address"
        },
        {
          "internalType": "address",
          "name": "receiver_",
          "type": "address"
        },
        {
          "internalType": "address",
          "name": "caller_",
          "type": "address"
        }
      ],
      "name": "initialize",
      "outputs": [],
      "stateMutability": "nonpayable",
      "type": "function"
    },
    {
      "inputs": [],
      "name": "owner",
      "outputs": [
        {
          "internalType": "address",
          "name": "",
          "type": "address"
        }
      ],
      "stateMutability": "view",
      "type": "function"
    },
    {
      "inputs": [],
      "name": "pendingOwner",
      "outputs": [
        {
          "internalType": "address",
          "name": "",
          "type": "address"
        }
      ],
      "stateMutability": "view",
      "type": "function"
    },
    {
      "inputs": [],
      "name": "receiver",
      "outputs": [
        {
          "internalType": "address",
          "name": "",
          "type": "address"
        }
      ],
      "stateMutability": "view",
      "type": "function"
    },
    {
      "inputs": [],
      "name": "renounceOwnership",
      "outputs": [],
      "stateMutability": "nonpayable",
      "type": "function"
    },
    {
      "inputs": [],
      "name": "router",
      "outputs": [
        {
          "internalType": "contract IGIBXRouter",
          "name": "",
          "type": "address"
        }
      ],
      "stateMutability": "view",
      "type": "function"
    },
    {
      "inputs": [
        {
          "internalType": "address",
          "name": "newCaller_",
          "type": "address"
        }
      ],
      "name": "setCaller",
      "outputs": [],
      "stateMutability": "nonpayable",
      "type": "function"
    },
    {
      "inputs": [
        {
          "internalType": "address",
          "name": "pendingOwner_",
          "type": "address"
        }
      ],
      "name": "setPendingOwner",
      "outputs": [],
      "stateMutability": "nonpayable",
      "type": "function"
    },
    {
      "inputs": [
        {
          "internalType": "address",
          "name": "newReceiver_",
          "type": "address"
        }
      ],
      "name": "setReceiver",
      "outputs": [],
      "stateMutability": "nonpayable",
      "type": "function"
    },
    {
      "inputs": [
        {
          "internalType": "address",
          "name": "token",
          "type": "address"
        },
        {
          "internalType": "uint256",
          "name": "amount",
          "type": "uint256"
        }
      ],
      "name": "transferOut",
      "outputs": [],
      "stateMutability": "nonpayable",
      "type": "function"
    },
    {
      "inputs": [],
      "name": "vault",
      "outputs": [
        {
          "internalType": "address",
          "name": "",
          "type": "address"
        }
      ],
      "stateMutability": "view",
      "type": "function"
    }
  ],
  "transactionHash": "0x5c9b7fc77758e2a405d0f41008e56240b739d6ea5985b7df4207ec6b5f2ef5f4",
  "args": [],
  "solcInputHash": "d2da3992c7ce11c5ac8aac23ec92f50f",
  "bytecode": "0x608060405234801561001057600080fd5b50600061001b61006a565b600080546001600160a01b0319166001600160a01b0383169081178255604051929350917f8be0079c531659141344cd1fd0a4f28419497f9722a3daafe3b4186f6b6457e0908290a35061006e565b3390565b611ebd8061007d6000396000f3fe608060405234801561001057600080fd5b506004361061012c5760003560e01c8063c42069ec116100ad578063f2fe155711610071578063f2fe15571461029c578063f7260d3e1461030c578063f887ea4014610314578063fbfa77cf1461031c578063fc9c8d39146103245761012c565b8063c42069ec14610256578063c45a01551461027c578063c54e44eb14610284578063e30c39781461028c578063ebbc4965146102945761012c565b80638a29e2de116100f45780638a29e2de146101b95780638da5cb5b146102185780639e3ce1cf14610220578063ad5c464814610228578063beb92f55146102305761012c565b806315729016146101315780632e4eaa151461013b578063715018a61461015f578063718da7ee1461016757806376890c581461018d575b600080fd5b61013961032c565b005b6101436106f4565b604080516001600160a01b039092168252519081900360200190f35b610139610703565b6101396004803603602081101561017d57600080fd5b50356001600160a01b0316610809565b610139600480360360408110156101a357600080fd5b506001600160a01b0381351690602001356108db565b61013960048036036101008110156101d057600080fd5b506001600160a01b038135811691602081013582169160408201358116916060810135821691608082013581169160a081013582169160c082013581169160e00135166109e0565b610143610b1b565b610143610b2a565b610143610b30565b6101396004803603602081101561024657600080fd5b50356001600160a01b0316610b3f565b6101396004803603602081101561026c57600080fd5b50356001600160a01b0316610c0f565b610143610d12565b610143610d21565b610143610d30565b610139610d3f565b610139600480360360408110156102b257600080fd5b8101906020810181356401000000008111156102cd57600080fd5b8201836020820111156102df57600080fd5b8035906020019184602083028401116401000000008311171561030157600080fd5b919350915035610e38565b61014361155d565b61014361156c565b61014361157b565b61014361158a565b610334611599565b6001600160a01b0316610345610b1b565b6001600160a01b03161461038e576040805162461bcd60e51b81526020600482018190526024820152600080516020611dee833981519152604482015290519081900360640190fd5b600754604080516370a0823160e01b815230600482015290516000926001600160a01b0316916370a08231916024808301926020929190829003018186803b1580156103d957600080fd5b505afa1580156103ed573d6000803e3d6000fd5b505050506040513d602081101561040357600080fd5b505160075490915061041e906001600160a01b03168261159d565b6040805160028082526060820183529293506000929091602083019080368337505060075482519293506001600160a01b03169183915060009061045e57fe5b6001600160a01b03928316602091820292909201015260065482519116908290600190811061048957fe5b6001600160a01b03928316602091820292909201810191909152600754604080516370a0823160e01b8152306004820152905191909316926370a08231926024808301939192829003018186803b1580156104e357600080fd5b505afa1580156104f7573d6000803e3d6000fd5b505050506040513d602081101561050d57600080fd5b50516007546003546040805163095ea7b360e01b81526001600160a01b03928316600482015260248101859052905193955091169163095ea7b3916044808201926020929091908290030181600087803b15801561056a57600080fd5b505af115801561057e573d6000803e3d6000fd5b505050506040513d602081101561059457600080fd5b5050600354604051635c11d79560e01b8152600481018481526000602483018190523060648401819052426084850181905260a060448601908152875160a487015287516001600160a01b0390971696635c11d795968a968a9594939092909160c40190602087810191028083838b5b8381101561061c578181015183820152602001610604565b505050509050019650505050505050600060405180830381600087803b15801561064557600080fd5b505af1158015610659573d6000803e3d6000fd5b5050600654604080516370a0823160e01b815230600482015290516001600160a01b0390921693506370a082319250602480820192602092909190829003018186803b1580156106a857600080fd5b505afa1580156106bc573d6000803e3d6000fd5b505050506040513d60208110156106d257600080fd5b50516006549092506106f0906001600160a01b031661dead846115e4565b5050565b6006546001600160a01b031681565b61070b611599565b6001600160a01b031661071c610b1b565b6001600160a01b031614610765576040805162461bcd60e51b81526020600482018190526024820152600080516020611dee833981519152604482015290519081900360640190fd5b600080546040516001600160a01b03909116907f8be0079c531659141344cd1fd0a4f28419497f9722a3daafe3b4186f6b6457e0908390a3600080546001600160a01b03191690556001546001600160a01b031615610807576001546040516000916001600160a01b0316907f4465959e7ec1f32e3ebd831ac2459ad6ef4b1d54a83f108a7068e69e62f0702f908390a3600180546001600160a01b03191690555b565b610811611599565b6001600160a01b0316610822610b1b565b6001600160a01b03161461086b576040805162461bcd60e51b81526020600482018190526024820152600080516020611dee833981519152604482015290519081900360640190fd5b6001600160a01b0381166108b9576040805162461bcd60e51b815260206004820152601060248201526f7265636569766572206973207a65726f60801b604482015290519081900360640190fd5b600880546001600160a01b0319166001600160a01b0392909216919091179055565b6108e3611599565b6001600160a01b03166108f4610b1b565b6001600160a01b03161461093d576040805162461bcd60e51b81526020600482018190526024820152600080516020611dee833981519152604482015290519081900360640190fd5b604080516370a0823160e01b8152306004820152905183916000916001600160a01b038416916370a08231916024808301926020929190829003018186803b15801561098857600080fd5b505afa15801561099c573d6000803e3d6000fd5b505050506040513d60208110156109b257600080fd5b50519050828110156109c2578092505b6008546109da9083906001600160a01b0316856115e4565b50505050565b600154600160a81b900460ff16806109fb57506109fb61163b565b80610a105750600154600160a01b900460ff16155b610a4b5760405162461bcd60e51b815260040180806020018281038252602e815260200180611d9f602e913960400191505060405180910390fd5b600154600160a81b900460ff16158015610a82576001805460ff60a01b1960ff60a81b19909116600160a81b1716600160a01b1790555b600280546001600160a01b03199081166001600160a01b038c8116919091179092556003805482168b84161790556004805482168a8416179055600580548216898416179055600680548216888416179055600780548216878416179055600880548216868416179055600980549091169184169190911790558015610b10576001805460ff60a81b191690555b505050505050505050565b6000546001600160a01b031690565b61dead81565b6005546001600160a01b031681565b610b47611599565b6001600160a01b0316610b58610b1b565b6001600160a01b031614610ba1576040805162461bcd60e51b81526020600482018190526024820152600080516020611dee833981519152604482015290519081900360640190fd5b6001600160a01b038116610bed576040805162461bcd60e51b815260206004820152600e60248201526d63616c6c6572206973207a65726f60901b604482015290519081900360640190fd5b600980546001600160a01b0319166001600160a01b0392909216919091179055565b610c17611599565b6001600160a01b0316610c28610b1b565b6001600160a01b031614610c71576040805162461bcd60e51b81526020600482018190526024820152600080516020611dee833981519152604482015290519081900360640190fd5b6001600160a01b038116610cb65760405162461bcd60e51b8152600401808060200182810382526029815260200180611e5f6029913960400191505060405180910390fd5b6001546040516001600160a01b038084169216907f4465959e7ec1f32e3ebd831ac2459ad6ef4b1d54a83f108a7068e69e62f0702f90600090a3600180546001600160a01b0319166001600160a01b0392909216919091179055565b6004546001600160a01b031681565b6007546001600160a01b031681565b6001546001600160a01b031690565b610d47611599565b6001600160a01b0316610d58610d30565b6001600160a01b031614610d9d5760405162461bcd60e51b8152600401808060200182810382526027815260200180611e0e6027913960400191505060405180910390fd5b600154600080546040516001600160a01b0393841693909116917f8be0079c531659141344cd1fd0a4f28419497f9722a3daafe3b4186f6b6457e091a3600154600080546001600160a01b0319166001600160a01b0390921691821781556040519091907f4465959e7ec1f32e3ebd831ac2459ad6ef4b1d54a83f108a7068e69e62f0702f908390a3600180546001600160a01b0319169055565b6009546001600160a01b03163314610e88576040805162461bcd60e51b815260206004820152600e60248201526d34b63632b3b0b61031b0b63632b960911b604482015290519081900360640190fd5b60005b828110156109da576000848483818110610ea157fe5b905060200201356001600160a01b03169050600760009054906101000a90046001600160a01b03166001600160a01b0316816001600160a01b0316630dfe16816040518163ffffffff1660e01b815260040160206040518083038186803b158015610f0b57600080fd5b505afa158015610f1f573d6000803e3d6000fd5b505050506040513d6020811015610f3557600080fd5b50516001600160a01b031614801590610fc857506007546040805163d21220a760e01b815290516001600160a01b039283169284169163d21220a7916004808301926020929190829003018186803b158015610f9057600080fd5b505afa158015610fa4573d6000803e3d6000fd5b505050506040513d6020811015610fba57600080fd5b50516001600160a01b031614155b15610fd35750611555565b6000816001600160a01b03166370a08231306040518263ffffffff1660e01b815260040180826001600160a01b0316815260200191505060206040518083038186803b15801561102257600080fd5b505afa158015611036573d6000803e3d6000fd5b505050506040513d602081101561104c57600080fd5b505190508061105c575050611555565b8381101561106b575050611555565b6110748261164c565b61107f575050611555565b6000600760009054906101000a90046001600160a01b03166001600160a01b0316836001600160a01b0316630dfe16816040518163ffffffff1660e01b815260040160206040518083038186803b1580156110d957600080fd5b505afa1580156110ed573d6000803e3d6000fd5b505050506040513d602081101561110357600080fd5b50516001600160a01b0316141561117e57826001600160a01b031663d21220a76040518163ffffffff1660e01b815260040160206040518083038186803b15801561114d57600080fd5b505afa158015611161573d6000803e3d6000fd5b505050506040513d602081101561117757600080fd5b50516111e4565b826001600160a01b0316630dfe16816040518163ffffffff1660e01b815260040160206040518083038186803b1580156111b757600080fd5b505afa1580156111cb573d6000803e3d6000fd5b505050506040513d60208110156111e157600080fd5b50515b6003546040805163095ea7b360e01b81526001600160a01b0392831660048201526024810186905290519293509085169163095ea7b3916044808201926020929091908290030181600087803b15801561123d57600080fd5b505af1158015611251573d6000803e3d6000fd5b505050506040513d602081101561126757600080fd5b505060035460075460408051635d5155ef60e11b81526001600160a01b038581166004830152928316602482015260448101869052600060648201819052608482018190523060a48301524260c48301528251939094169363baa2abde9360e480840194939192918390030190829087803b1580156112e557600080fd5b505af11580156112f9573d6000803e3d6000fd5b505050506040513d604081101561130f57600080fd5b5050604080516002808252606082018352600092602083019080368337019050509050818160008151811061134057fe5b6001600160a01b03928316602091820292909201015260075482519116908290600190811061136b57fe5b60200260200101906001600160a01b031690816001600160a01b031681525050816001600160a01b03166370a08231306040518263ffffffff1660e01b815260040180826001600160a01b0316815260200191505060206040518083038186803b1580156113d857600080fd5b505afa1580156113ec573d6000803e3d6000fd5b505050506040513d602081101561140257600080fd5b50516003546040805163095ea7b360e01b81526001600160a01b0392831660048201526024810184905290519295509084169163095ea7b3916044808201926020929091908290030181600087803b15801561145d57600080fd5b505af1158015611471573d6000803e3d6000fd5b505050506040513d602081101561148757600080fd5b5050600354604051635c11d79560e01b8152600481018581526000602483018190523060648401819052426084850181905260a060448601908152875160a487015287516001600160a01b0390971696635c11d795968b968a9594939092909160c40190602087810191028083838b5b8381101561150f5781810151838201526020016114f7565b505050509050019650505050505050600060405180830381600087803b15801561153857600080fd5b505af115801561154c573d6000803e3d6000fd5b50505050505050505b600101610e8b565b6008546001600160a01b031681565b6003546001600160a01b031681565b6002546001600160a01b031681565b6009546001600160a01b031681565b3390565b6000806115b660026115b0856001611983565b906119e5565b90506115c28382611a4c565b6002549092506115dd9085906001600160a01b0316836115e4565b5092915050565b604080516001600160a01b038416602482015260448082018490528251808303909101815260649091019091526020810180516001600160e01b031663a9059cbb60e01b179052611636908490611aa9565b505050565b600061164630611b5a565b15905090565b600080826001600160a01b0316630dfe16816040518163ffffffff1660e01b815260040160206040518083038186803b15801561168857600080fd5b505afa15801561169c573d6000803e3d6000fd5b505050506040513d60208110156116b257600080fd5b50516040805163d21220a760e01b815290519192506000916001600160a01b0386169163d21220a7916004808301926020929190829003018186803b1580156116fa57600080fd5b505afa15801561170e573d6000803e3d6000fd5b505050506040513d602081101561172457600080fd5b5051604080516370a0823160e01b81526001600160a01b0387811660048301529151929350600092918516916370a0823191602480820192602092909190829003018186803b15801561177657600080fd5b505afa15801561178a573d6000803e3d6000fd5b505050506040513d60208110156117a057600080fd5b5051604080516370a0823160e01b81526001600160a01b0388811660048301529151929350600092918516916370a0823191602480820192602092909190829003018186803b1580156117f257600080fd5b505afa158015611806573d6000803e3d6000fd5b505050506040513d602081101561181c57600080fd5b5051604080516318160ddd60e01b815290519192506000916001600160a01b038916916318160ddd916004808301926020929190829003018186803b15801561186457600080fd5b505afa158015611878573d6000803e3d6000fd5b505050506040513d602081101561188e57600080fd5b50519050806118a55760009550505050505061197e565b6000876001600160a01b03166370a08231306040518263ffffffff1660e01b815260040180826001600160a01b0316815260200191505060206040518083038186803b1580156118f457600080fd5b505afa158015611908573d6000803e3d6000fd5b505050506040513d602081101561191e57600080fd5b5051905060008261192f8387611983565b8161193657fe5b0490506000836119468487611983565b8161194d57fe5b04905081158061195b575080155b156119715760009850505050505050505061197e565b6001985050505050505050505b919050565b600082611992575060006119df565b8282028284828161199f57fe5b04146119dc5760405162461bcd60e51b8152600401808060200182810382526021815260200180611dcd6021913960400191505060405180910390fd5b90505b92915050565b6000808211611a3b576040805162461bcd60e51b815260206004820152601a60248201527f536166654d6174683a206469766973696f6e206279207a65726f000000000000604482015290519081900360640190fd5b818381611a4457fe5b049392505050565b600082821115611aa3576040805162461bcd60e51b815260206004820152601e60248201527f536166654d6174683a207375627472616374696f6e206f766572666c6f770000604482015290519081900360640190fd5b50900390565b6000611afe826040518060400160405280602081526020017f5361666545524332303a206c6f772d6c6576656c2063616c6c206661696c6564815250856001600160a01b0316611b609092919063ffffffff16565b80519091501561163657808060200190516020811015611b1d57600080fd5b50516116365760405162461bcd60e51b815260040180806020018281038252602a815260200180611e35602a913960400191505060405180910390fd5b3b151590565b6060611b6f8484600085611b79565b90505b9392505050565b606082471015611bba5760405162461bcd60e51b8152600401808060200182810382526026815260200180611d796026913960400191505060405180910390fd5b611bc385611b5a565b611c14576040805162461bcd60e51b815260206004820152601d60248201527f416464726573733a2063616c6c20746f206e6f6e2d636f6e7472616374000000604482015290519081900360640190fd5b600080866001600160a01b031685876040518082805190602001908083835b60208310611c525780518252601f199092019160209182019101611c33565b6001836020036101000a03801982511681845116808217855250505050505090500191505060006040518083038185875af1925050503d8060008114611cb4576040519150601f19603f3d011682016040523d82523d6000602084013e611cb9565b606091505b5091509150611cc9828286611cd4565b979650505050505050565b60608315611ce3575081611b72565b825115611cf35782518084602001fd5b8160405162461bcd60e51b81526004018080602001828103825283818151815260200191508051906020019080838360005b83811015611d3d578181015183820152602001611d25565b50505050905090810190601f168015611d6a5780820380516001836020036101000a031916815260200191505b509250505060405180910390fdfe416464726573733a20696e73756666696369656e742062616c616e636520666f722063616c6c496e697469616c697a61626c653a20636f6e747261637420697320616c726561647920696e697469616c697a6564536166654d6174683a206d756c7469706c69636174696f6e206f766572666c6f774f776e61626c653a2063616c6c6572206973206e6f7420746865206f776e65724f776e61626c653a2063616c6c6572206973206e6f74207468652070656e64696e674f776e65725361666545524332303a204552433230206f7065726174696f6e20646964206e6f7420737563636565644f776e61626c653a2070656e64696e674f776e657220697320746865207a65726f2061646472657373a2646970667358221220f21cd5cfe8bbe8ccaf414d68ad0d9aa64548b79bbf29561ae7e404f7d6ea707f64736f6c63430007060033",
  "devdoc": {
    "kind": "dev",
    "methods": {},
    "version": 1
  },
  "userdoc": {
    "kind": "user",
    "methods": {},
    "version": 1
  },
  "storageLayout": {
    "storage": [
      {
        "astId": 2335,
        "contract": "contracts/swap/GIBXSwapFee.sol:GIBXSwapFee",
        "label": "_owner",
        "offset": 0,
        "slot": "0",
        "type": "t_address"
      },
      {
        "astId": 2337,
        "contract": "contracts/swap/GIBXSwapFee.sol:GIBXSwapFee",
        "label": "_pendingOwner",
        "offset": 0,
        "slot": "1",
        "type": "t_address"
      },
      {
        "astId": 544,
        "contract": "contracts/swap/GIBXSwapFee.sol:GIBXSwapFee",
        "label": "_initialized",
        "offset": 20,
        "slot": "1",
        "type": "t_bool"
      },
      {
        "astId": 547,
        "contract": "contracts/swap/GIBXSwapFee.sol:GIBXSwapFee",
        "label": "_initializing",
        "offset": 21,
        "slot": "1",
        "type": "t_bool"
      },
      {
        "astId": 11223,
        "contract": "contracts/swap/GIBXSwapFee.sol:GIBXSwapFee",
        "label": "vault",
        "offset": 0,
        "slot": "2",
        "type": "t_address"
      },
      {
        "astId": 11225,
        "contract": "contracts/swap/GIBXSwapFee.sol:GIBXSwapFee",
        "label": "router",
        "offset": 0,
        "slot": "3",
        "type": "t_contract(IGIBXRouter)4170"
      },
      {
        "astId": 11227,
        "contract": "contracts/swap/GIBXSwapFee.sol:GIBXSwapFee",
        "label": "factory",
        "offset": 0,
        "slot": "4",
        "type": "t_contract(IGIBXFactory)3538"
      },
      {
        "astId": 11229,
        "contract": "contracts/swap/GIBXSwapFee.sol:GIBXSwapFee",
        "label": "WETH",
        "offset": 0,
        "slot": "5",
        "type": "t_address"
      },
      {
        "astId": 11231,
        "contract": "contracts/swap/GIBXSwapFee.sol:GIBXSwapFee",
        "label": "destroyToken",
        "offset": 0,
        "slot": "6",
        "type": "t_address"
      },
      {
        "astId": 11233,
        "contract": "contracts/swap/GIBXSwapFee.sol:GIBXSwapFee",
        "label": "USDT",
        "offset": 0,
        "slot": "7",
        "type": "t_address"
      },
      {
        "astId": 11235,
        "contract": "contracts/swap/GIBXSwapFee.sol:GIBXSwapFee",
        "label": "receiver",
        "offset": 0,
        "slot": "8",
        "type": "t_address"
      },
      {
        "astId": 11237,
        "contract": "contracts/swap/GIBXSwapFee.sol:GIBXSwapFee",
        "label": "caller",
        "offset": 0,
        "slot": "9",
        "type": "t_address"
      }
    ],
    "types": {
      "t_address": {
        "encoding": "inplace",
        "label": "address",
        "numberOfBytes": "20"
      },
      "t_bool": {
        "encoding": "inplace",
        "label": "bool",
        "numberOfBytes": "1"
      },
      "t_contract(IGIBXFactory)3538": {
        "encoding": "inplace",
        "label": "contract IGIBXFactory",
        "numberOfBytes": "20"
      },
      "t_contract(IGIBXRouter)4170": {
        "encoding": "inplace",
        "label": "contract IGIBXRouter",
        "numberOfBytes": "20"
      }
    }
  }
}