{
  "address": "0x0fCC29c11b6eBEDafde71e0Ea114Bd1edDf47d23",
  "abi": [
    {
      "inputs": [],
      "stateMutability": "nonpayable",
      "type": "constructor"
    },
    {
      "anonymous": false,
      "inputs": [
        {
          "indexed": true,
          "internalType": "address",
          "name": "owner",
          "type": "address"
        },
        {
          "indexed": true,
          "internalType": "address",
          "name": "spender",
          "type": "address"
        },
        {
          "indexed": false,
          "internalType": "uint256",
          "name": "value",
          "type": "uint256"
        }
      ],
      "name": "Approval",
      "type": "event"
    },
    {
      "anonymous": false,
      "inputs": [
        {
          "indexed": true,
          "internalType": "address",
          "name": "previousPendingOwner",
          "type": "address"
        },
        {
          "indexed": true,
          "internalType": "address",
          "name": "newPendingOwner",
          "type": "address"
        }
      ],
      "name": "ChangePendingOwner",
      "type": "event"
    },
    {
      "anonymous": false,
      "inputs": [
        {
          "indexed": true,
          "internalType": "address",
          "name": "delegator",
          "type": "address"
        },
        {
          "indexed": true,
          "internalType": "address",
          "name": "fromDelegate",
          "type": "address"
        },
        {
          "indexed": true,
          "internalType": "address",
          "name": "toDelegate",
          "type": "address"
        }
      ],
      "name": "DelegateChanged",
      "type": "event"
    },
    {
      "anonymous": false,
      "inputs": [
        {
          "indexed": true,
          "internalType": "address",
          "name": "delegate",
          "type": "address"
        },
        {
          "indexed": false,
          "internalType": "uint256",
          "name": "previousBalance",
          "type": "uint256"
        },
        {
          "indexed": false,
          "internalType": "uint256",
          "name": "newBalance",
          "type": "uint256"
        }
      ],
      "name": "DelegateVotesChanged",
      "type": "event"
    },
    {
      "anonymous": false,
      "inputs": [
        {
          "indexed": true,
          "internalType": "address",
          "name": "minter",
          "type": "address"
        },
        {
          "indexed": false,
          "internalType": "bool",
          "name": "avaliable",
          "type": "bool"
        }
      ],
      "name": "MinterChanged",
      "type": "event"
    },
    {
      "anonymous": false,
      "inputs": [
        {
          "indexed": true,
          "internalType": "address",
          "name": "previousOwner",
          "type": "address"
        },
        {
          "indexed": true,
          "internalType": "address",
          "name": "newOwner",
          "type": "address"
        }
      ],
      "name": "OwnershipTransferred",
      "type": "event"
    },
    {
      "anonymous": false,
      "inputs": [
        {
          "indexed": true,
          "internalType": "address",
          "name": "from",
          "type": "address"
        },
        {
          "indexed": true,
          "internalType": "address",
          "name": "to",
          "type": "address"
        },
        {
          "indexed": false,
          "internalType": "uint256",
          "name": "value",
          "type": "uint256"
        }
      ],
      "name": "Transfer",
      "type": "event"
    },
    {
      "inputs": [],
      "name": "DELEGATION_TYPEHASH",
      "outputs": [
        {
          "internalType": "bytes32",
          "name": "",
          "type": "bytes32"
        }
      ],
      "stateMutability": "view",
      "type": "function"
    },
    {
      "inputs": [],
      "name": "DOMAIN_TYPEHASH",
      "outputs": [
        {
          "internalType": "bytes32",
          "name": "",
          "type": "bytes32"
        }
      ],
      "stateMutability": "view",
      "type": "function"
    },
    {
      "inputs": [],
      "name": "MAX_SUPPLY",
      "outputs": [
        {
          "internalType": "uint256",
          "name": "",
          "type": "uint256"
        }
      ],
      "stateMutability": "view",
      "type": "function"
    },
    {
      "inputs": [],
      "name": "acceptOwner",
      "outputs": [],
      "stateMutability": "nonpayable",
      "type": "function"
    },
    {
      "inputs": [
        {
          "internalType": "address",
          "name": "_minter",
          "type": "address"
        }
      ],
      "name": "addMinter",
      "outputs": [],
      "stateMutability": "nonpayable",
      "type": "function"
    },
    {
      "inputs": [
        {
          "internalType": "address",
          "name": "owner",
          "type": "address"
        },
        {
          "internalType": "address",
          "name": "spender",
          "type": "address"
        }
      ],
      "name": "allowance",
      "outputs": [
        {
          "internalType": "uint256",
          "name": "",
          "type": "uint256"
        }
      ],
      "stateMutability": "view",
      "type": "function"
    },
    {
      "inputs": [
        {
          "internalType": "address",
          "name": "spender",
          "type": "address"
        },
        {
          "internalType": "uint256",
          "name": "amount",
          "type": "uint256"
        }
      ],
      "name": "approve",
      "outputs": [
        {
          "internalType": "bool",
          "name": "",
          "type": "bool"
        }
      ],
      "stateMutability": "nonpayable",
      "type": "function"
    },
    {
      "inputs": [
        {
          "internalType": "address",
          "name": "account",
          "type": "address"
        }
      ],
      "name": "balanceOf",
      "outputs": [
        {
          "internalType": "uint256",
          "name": "",
          "type": "uint256"
        }
      ],
      "stateMutability": "view",
      "type": "function"
    },
    {
      "inputs": [],
      "name": "cap",
      "outputs": [
        {
          "internalType": "uint256",
          "name": "",
          "type": "uint256"
        }
      ],
      "stateMutability": "view",
      "type": "function"
    },
    {
      "inputs": [
        {
          "internalType": "address",
          "name": "",
          "type": "address"
        },
        {
          "internalType": "uint32",
          "name": "",
          "type": "uint32"
        }
      ],
      "name": "checkpoints",
      "outputs": [
        {
          "internalType": "uint32",
          "name": "fromBlock",
          "type": "uint32"
        },
        {
          "internalType": "uint256",
          "name": "votes",
          "type": "uint256"
        }
      ],
      "stateMutability": "view",
      "type": "function"
    },
    {
      "inputs": [],
      "name": "decimals",
      "outputs": [
        {
          "internalType": "uint8",
          "name": "",
          "type": "uint8"
        }
      ],
      "stateMutability": "view",
      "type": "function"
    },
    {
      "inputs": [
        {
          "internalType": "address",
          "name": "spender",
          "type": "address"
        },
        {
          "internalType": "uint256",
          "name": "subtractedValue",
          "type": "uint256"
        }
      ],
      "name": "decreaseAllowance",
      "outputs": [
        {
          "internalType": "bool",
          "name": "",
          "type": "bool"
        }
      ],
      "stateMutability": "nonpayable",
      "type": "function"
    },
    {
      "inputs": [
        {
          "internalType": "address",
          "name": "_minter",
          "type": "address"
        }
      ],
      "name": "delMinter",
      "outputs": [],
      "stateMutability": "nonpayable",
      "type": "function"
    },
    {
      "inputs": [
        {
          "internalType": "address",
          "name": "delegatee",
          "type": "address"
        }
      ],
      "name": "delegate",
      "outputs": [],
      "stateMutability": "nonpayable",
      "type": "function"
    },
    {
      "inputs": [
        {
          "internalType": "address",
          "name": "delegatee",
          "type": "address"
        },
        {
          "internalType": "uint256",
          "name": "nonce",
          "type": "uint256"
        },
        {
          "internalType": "uint256",
          "name": "expiry",
          "type": "uint256"
        },
        {
          "internalType": "uint8",
          "name": "v",
          "type": "uint8"
        },
        {
          "internalType": "bytes32",
          "name": "r",
          "type": "bytes32"
        },
        {
          "internalType": "bytes32",
          "name": "s",
          "type": "bytes32"
        }
      ],
      "name": "delegateBySig",
      "outputs": [],
      "stateMutability": "nonpayable",
      "type": "function"
    },
    {
      "inputs": [
        {
          "internalType": "address",
          "name": "delegator",
          "type": "address"
        }
      ],
      "name": "delegates",
      "outputs": [
        {
          "internalType": "address",
          "name": "",
          "type": "address"
        }
      ],
      "stateMutability": "view",
      "type": "function"
    },
    {
      "inputs": [
        {
          "internalType": "address",
          "name": "account",
          "type": "address"
        }
      ],
      "name": "getCurrentVotes",
      "outputs": [
        {
          "internalType": "uint256",
          "name": "",
          "type": "uint256"
        }
      ],
      "stateMutability": "view",
      "type": "function"
    },
    {
      "inputs": [
        {
          "internalType": "address",
          "name": "account",
          "type": "address"
        },
        {
          "internalType": "uint256",
          "name": "blockNumber",
          "type": "uint256"
        }
      ],
      "name": "getPriorVotes",
      "outputs": [
        {
          "internalType": "uint256",
          "name": "",
          "type": "uint256"
        }
      ],
      "stateMutability": "view",
      "type": "function"
    },
    {
      "inputs": [
        {
          "internalType": "address",
          "name": "spender",
          "type": "address"
        },
        {
          "internalType": "uint256",
          "name": "addedValue",
          "type": "uint256"
        }
      ],
      "name": "increaseAllowance",
      "outputs": [
        {
          "internalType": "bool",
          "name": "",
          "type": "bool"
        }
      ],
      "stateMutability": "nonpayable",
      "type": "function"
    },
    {
      "inputs": [
        {
          "internalType": "uint256",
          "name": "amount",
          "type": "uint256"
        }
      ],
      "name": "mint",
      "outputs": [],
      "stateMutability": "nonpayable",
      "type": "function"
    },
    {
      "inputs": [
        {
          "internalType": "address",
          "name": "to",
          "type": "address"
        },
        {
          "internalType": "uint256",
          "name": "amount",
          "type": "uint256"
        }
      ],
      "name": "mintFor",
      "outputs": [],
      "stateMutability": "nonpayable",
      "type": "function"
    },
    {
      "inputs": [
        {
          "internalType": "address",
          "name": "",
          "type": "address"
        }
      ],
      "name": "minters",
      "outputs": [
        {
          "internalType": "bool",
          "name": "",
          "type": "bool"
        }
      ],
      "stateMutability": "view",
      "type": "function"
    },
    {
      "inputs": [],
      "name": "name",
      "outputs": [
        {
          "internalType": "string",
          "name": "",
          "type": "string"
        }
      ],
      "stateMutability": "view",
      "type": "function"
    },
    {
      "inputs": [
        {
          "internalType": "address",
          "name": "",
          "type": "address"
        }
      ],
      "name": "nonces",
      "outputs": [
        {
          "internalType": "uint256",
          "name": "",
          "type": "uint256"
        }
      ],
      "stateMutability": "view",
      "type": "function"
    },
    {
      "inputs": [
        {
          "internalType": "address",
          "name": "",
          "type": "address"
        }
      ],
      "name": "numCheckpoints",
      "outputs": [
        {
          "internalType": "uint32",
          "name": "",
          "type": "uint32"
        }
      ],
      "stateMutability": "view",
      "type": "function"
    },
    {
      "inputs": [],
      "name": "owner",
      "outputs": [
        {
          "internalType": "address",
          "name": "",
          "type": "address"
        }
      ],
      "stateMutability": "view",
      "type": "function"
    },
    {
      "inputs": [],
      "name": "pendingOwner",
      "outputs": [
        {
          "internalType": "address",
          "name": "",
          "type": "address"
        }
      ],
      "stateMutability": "view",
      "type": "function"
    },
    {
      "inputs": [],
      "name": "renounceOwnership",
      "outputs": [],
      "stateMutability": "nonpayable",
      "type": "function"
    },
    {
      "inputs": [
        {
          "internalType": "address",
          "name": "pendingOwner_",
          "type": "address"
        }
      ],
      "name": "setPendingOwner",
      "outputs": [],
      "stateMutability": "nonpayable",
      "type": "function"
    },
    {
      "inputs": [],
      "name": "symbol",
      "outputs": [
        {
          "internalType": "string",
          "name": "",
          "type": "string"
        }
      ],
      "stateMutability": "view",
      "type": "function"
    },
    {
      "inputs": [],
      "name": "totalSupply",
      "outputs": [
        {
          "internalType": "uint256",
          "name": "",
          "type": "uint256"
        }
      ],
      "stateMutability": "view",
      "type": "function"
    },
    {
      "inputs": [
        {
          "internalType": "address",
          "name": "recipient",
          "type": "address"
        },
        {
          "internalType": "uint256",
          "name": "amount",
          "type": "uint256"
        }
      ],
      "name": "transfer",
      "outputs": [
        {
          "internalType": "bool",
          "name": "",
          "type": "bool"
        }
      ],
      "stateMutability": "nonpayable",
      "type": "function"
    },
    {
      "inputs": [
        {
          "internalType": "address",
          "name": "sender",
          "type": "address"
        },
        {
          "internalType": "address",
          "name": "recipient",
          "type": "address"
        },
        {
          "internalType": "uint256",
          "name": "amount",
          "type": "uint256"
        }
      ],
      "name": "transferFrom",
      "outputs": [
        {
          "internalType": "bool",
          "name": "",
          "type": "bool"
        }
      ],
      "stateMutability": "nonpayable",
      "type": "function"
    }
  ],
  "transactionHash": "0xc2f702adc851269d6ef7da6909f6289dc5c56a398e1f2e12002cc375e26c28fc",
  "args": [],
  "solcInputHash": "d2da3992c7ce11c5ac8aac23ec92f50f",
  "bytecode": "0x60806040523480156200001157600080fd5b506040805180820182526007808252660a88aa6a88e88b60cb1b6020808401828152855180870190965292855284015281516b033b2e3c9fd0803ce80000009391620000619160039190620002df565b50805162000077906004906020840190620002df565b50506005805460ff191660121790555080620000da576040805162461bcd60e51b815260206004820152601560248201527f45524332304361707065643a2063617020697320300000000000000000000000604482015290519081900360640190fd5b6006556000620000e962000148565b600780546001600160a01b0319166001600160a01b038316908117909155604051919250906000907f8be0079c531659141344cd1fd0a4f28419497f9722a3daafe3b4186f6b6457e0908290a35062000142336200014c565b6200038b565b3390565b6200015662000148565b6001600160a01b031662000169620002d0565b6001600160a01b031614620001c5576040805162461bcd60e51b815260206004820181905260248201527f4f776e61626c653a2063616c6c6572206973206e6f7420746865206f776e6572604482015290519081900360640190fd5b6001600160a01b03811662000212576040805162461bcd60e51b815260206004820152600e60248201526d34b63632b3b0b61036b4b73a32b960911b604482015290519081900360640190fd5b6001600160a01b03811660009081526009602052604090205460ff161562000272576040805162461bcd60e51b815260206004820152600e60248201526d30b63932b0b23c9036b4b73a32b960911b604482015290519081900360640190fd5b6001600160a01b038116600081815260096020908152604091829020805460ff19166001908117909155825190815291517f04bca3656717d14c20f88f2a0122832cb0d2807bfc66ed9e932a2202cc59f4959281900390910190a250565b6007546001600160a01b031690565b828054600181600116156101000203166002900490600052602060002090601f01602090048101928262000317576000855562000362565b82601f106200033257805160ff191683800117855562000362565b8280016001018555821562000362579182015b828111156200036257825182559160200191906001019062000345565b506200037092915062000374565b5090565b5b8082111562000370576000815560010162000375565b6121c2806200039b6000396000f3fe608060405234801561001057600080fd5b50600436106101fb5760003560e01c80637ecebe001161011a578063c3cda520116100ad578063e30c39781161007c578063e30c397814610656578063e7a324dc1461065e578063ebbc496514610666578063f1127ed81461066e578063f46eccc4146106c0576101fb565b8063c3cda5201461058f578063c42069ec146105d6578063da1919b3146105fc578063dd62ed3e14610628576101fb565b8063a0712d68116100e9578063a0712d68146104f4578063a457c2d714610511578063a9059cbb1461053d578063b4b5ea5714610569576101fb565b80637ecebe00146104985780638da5cb5b146104be57806395d89b41146104c6578063983b2d56146104ce576101fb565b8063355274ea116101925780636fcfff45116101615780636fcfff45146103ff57806370a082311461043e578063715018a614610464578063782d6fe11461046c576101fb565b8063355274ea14610363578063395093511461036b578063587cde1e146103975780635c19a95c146103d9576101fb565b806323338b88116101ce57806323338b88146102df57806323b872dd14610307578063313ce5671461033d57806332cb6b0c1461035b576101fb565b806306fdde0314610200578063095ea7b31461027d57806318160ddd146102bd57806320606b70146102d7575b600080fd5b6102086106e6565b6040805160208082528351818301528351919283929083019185019080838360005b8381101561024257818101518382015260200161022a565b50505050905090810190601f16801561026f5780820380516001836020036101000a031916815260200191505b509250505060405180910390f35b6102a96004803603604081101561029357600080fd5b506001600160a01b03813516906020013561077c565b604080519115158252519081900360200190f35b6102c561079a565b60408051918252519081900360200190f35b6102c56107a0565b610305600480360360208110156102f557600080fd5b50356001600160a01b03166107c4565b005b6102a96004803603606081101561031d57600080fd5b506001600160a01b03813581169160208101359091169060400135610922565b6103456109a9565b6040805160ff9092168252519081900360200190f35b6102c56109b2565b6102c56109c2565b6102a96004803603604081101561038157600080fd5b506001600160a01b0381351690602001356109c8565b6103bd600480360360208110156103ad57600080fd5b50356001600160a01b0316610a16565b604080516001600160a01b039092168252519081900360200190f35b610305600480360360208110156103ef57600080fd5b50356001600160a01b0316610a34565b6104256004803603602081101561041557600080fd5b50356001600160a01b0316610a41565b6040805163ffffffff9092168252519081900360200190f35b6102c56004803603602081101561045457600080fd5b50356001600160a01b0316610a59565b610305610a74565b6102c56004803603604081101561048257600080fd5b506001600160a01b038135169060200135610af0565b6102c5600480360360208110156104ae57600080fd5b50356001600160a01b0316610cf3565b6103bd610d05565b610208610d14565b610305600480360360208110156104e457600080fd5b50356001600160a01b0316610d75565b6103056004803603602081101561050a57600080fd5b5035610ee0565b6102a96004803603604081101561052757600080fd5b506001600160a01b038135169060200135610f45565b6102a96004803603604081101561055357600080fd5b506001600160a01b038135169060200135610fad565b6102c56004803603602081101561057f57600080fd5b50356001600160a01b0316610fc1565b610305600480360360c08110156105a557600080fd5b506001600160a01b038135169060208101359060408101359060ff6060820135169060808101359060a00135611025565b610305600480360360208110156105ec57600080fd5b50356001600160a01b0316611298565b6103056004803603604081101561061257600080fd5b506001600160a01b03813516906020013561139b565b6102c56004803603604081101561063e57600080fd5b506001600160a01b0381358116916020013516611404565b6103bd61142f565b6102c561143e565b610305611462565b6106a06004803603604081101561068457600080fd5b5080356001600160a01b0316906020013563ffffffff1661155e565b6040805163ffffffff909316835260208301919091528051918290030190f35b6102a9600480360360208110156106d657600080fd5b50356001600160a01b031661158b565b60038054604080516020601f60026000196101006001881615020190951694909404938401819004810282018101909252828152606093909290918301828280156107725780601f1061074757610100808354040283529160200191610772565b820191906000526020600020905b81548152906001019060200180831161075557829003601f168201915b5050505050905090565b60006107906107896115a0565b84846115a4565b5060015b92915050565b60025490565b7f8cad95687ba82c2ce50e74f7b754645e5117c3a5bec8151c0726d5857980a86681565b6107cc6115a0565b6001600160a01b03166107dd610d05565b6001600160a01b031614610826576040805162461bcd60e51b81526020600482018190526024820152600080516020612062833981519152604482015290519081900360640190fd5b6001600160a01b038116610872576040805162461bcd60e51b815260206004820152600e60248201526d34b63632b3b0b61036b4b73a32b960911b604482015290519081900360640190fd5b6001600160a01b03811660009081526009602052604090205460ff166108cc576040805162461bcd60e51b815260206004820152600a6024820152693737ba1036b4b73a32b960b11b604482015290519081900360640190fd5b6001600160a01b0381166000818152600960209081526040808320805460ff191690558051928352517f04bca3656717d14c20f88f2a0122832cb0d2807bfc66ed9e932a2202cc59f4959281900390910190a250565b600061092f848484611690565b61099f8461093b6115a0565b61099a8560405180606001604052806028815260200161203a602891396001600160a01b038a166000908152600160205260408120906109796115a0565b6001600160a01b0316815260208101919091526040016000205491906117eb565b6115a4565b5060019392505050565b60055460ff1690565b6b033b2e3c9fd0803ce800000081565b60065490565b60006107906109d56115a0565b8461099a85600160006109e66115a0565b6001600160a01b03908116825260208083019390935260409182016000908120918c168152925290205490611882565b6001600160a01b039081166000908152600a60205260409020541690565b610a3e33826118dc565b50565b600c6020526000908152604090205463ffffffff1681565b6001600160a01b031660009081526020819052604090205490565b610a7c6115a0565b6001600160a01b0316610a8d610d05565b6001600160a01b031614610ad6576040805162461bcd60e51b81526020600482018190526024820152600080516020612062833981519152604482015290519081900360640190fd5b610ae6610ae1610d05565b6107c4565b610aee611971565b565b6000438210610b305760405162461bcd60e51b81526004018080602001828103825260278152602001806120a76027913960400191505060405180910390fd5b6001600160a01b0383166000908152600c602052604090205463ffffffff1680610b5e576000915050610794565b6001600160a01b0384166000908152600b6020908152604080832063ffffffff600019860181168552925290912054168310610bcd576001600160a01b0384166000908152600b602090815260408083206000199490940163ffffffff16835292905220600101549050610794565b6001600160a01b0384166000908152600b6020908152604080832083805290915290205463ffffffff16831015610c08576000915050610794565b600060001982015b8163ffffffff168163ffffffff161115610cbc576000600263ffffffff848403166001600160a01b0389166000908152600b6020908152604080832094909304860363ffffffff8181168452948252918390208351808501909452805490941680845260019094015490830152925090871415610c97576020015194506107949350505050565b805163ffffffff16871115610cae57819350610cb5565b6001820392505b5050610c10565b506001600160a01b0385166000908152600b6020908152604080832063ffffffff9094168352929052206001015491505092915050565b600d6020526000908152604090205481565b6007546001600160a01b031690565b60048054604080516020601f60026000196101006001881615020190951694909404938401819004810282018101909252828152606093909290918301828280156107725780601f1061074757610100808354040283529160200191610772565b610d7d6115a0565b6001600160a01b0316610d8e610d05565b6001600160a01b031614610dd7576040805162461bcd60e51b81526020600482018190526024820152600080516020612062833981519152604482015290519081900360640190fd5b6001600160a01b038116610e23576040805162461bcd60e51b815260206004820152600e60248201526d34b63632b3b0b61036b4b73a32b960911b604482015290519081900360640190fd5b6001600160a01b03811660009081526009602052604090205460ff1615610e82576040805162461bcd60e51b815260206004820152600e60248201526d30b63932b0b23c9036b4b73a32b960911b604482015290519081900360640190fd5b6001600160a01b038116600081815260096020908152604091829020805460ff19166001908117909155825190815291517f04bca3656717d14c20f88f2a0122832cb0d2807bfc66ed9e932a2202cc59f4959281900390910190a250565b3360009081526009602052604090205460ff16610f3b576040805162461bcd60e51b815260206004820152601460248201527331b0b63632b91034b9903737ba1036b4b73a32b960611b604482015290519081900360640190fd5b610a3e3382611a76565b6000610790610f526115a0565b8461099a856040518060600160405280602581526020016121686025913960016000610f7c6115a0565b6001600160a01b03908116825260208083019390935260409182016000908120918d168152925290205491906117eb565b6000610790610fba6115a0565b8484611690565b6001600160a01b0381166000908152600c602052604081205463ffffffff1680610fec57600061101e565b6001600160a01b0383166000908152600b6020908152604080832063ffffffff60001986011684529091529020600101545b9392505050565b60007f8cad95687ba82c2ce50e74f7b754645e5117c3a5bec8151c0726d5857980a8666110506106e6565b8051906020012061105f611b66565b60408051602080820195909552808201939093526060830191909152306080808401919091528151808403909101815260a0830182528051908401207fe48329057bfd03d55e49b547132e39cffd9c1820ad7b9d4c5307691425d15adf60c08401526001600160a01b038b1660e084015261010083018a90526101208084018a9052825180850390910181526101408401835280519085012061190160f01b6101608501526101628401829052610182808501829052835180860390910181526101a285018085528151918701919091206000918290526101c2860180865281905260ff8b166101e287015261020286018a90526102228601899052935192965090949293909260019261024280840193601f198301929081900390910190855afa158015611192573d6000803e3d6000fd5b5050604051601f1901519150506001600160a01b0381166111e45760405162461bcd60e51b8152600401808060200182810382526026815260200180611f766026913960400191505060405180910390fd5b6001600160a01b0381166000908152600d6020526040902080546001810190915589146112425760405162461bcd60e51b8152600401808060200182810382526022815260200180611fe46022913960400191505060405180910390fd5b874211156112815760405162461bcd60e51b81526004018080602001828103825260268152602001806121196026913960400191505060405180910390fd5b61128b818b6118dc565b505050505b505050505050565b6112a06115a0565b6001600160a01b03166112b1610d05565b6001600160a01b0316146112fa576040805162461bcd60e51b81526020600482018190526024820152600080516020612062833981519152604482015290519081900360640190fd5b6001600160a01b03811661133f5760405162461bcd60e51b815260040180806020018281038252602981526020018061213f6029913960400191505060405180910390fd5b6008546040516001600160a01b038084169216907f4465959e7ec1f32e3ebd831ac2459ad6ef4b1d54a83f108a7068e69e62f0702f90600090a3600880546001600160a01b0319166001600160a01b0392909216919091179055565b3360009081526009602052604090205460ff166113f6576040805162461bcd60e51b815260206004820152601460248201527331b0b63632b91034b9903737ba1036b4b73a32b960611b604482015290519081900360640190fd5b6114008282611a76565b5050565b6001600160a01b03918216600090815260016020908152604080832093909416825291909152205490565b6008546001600160a01b031690565b7fe48329057bfd03d55e49b547132e39cffd9c1820ad7b9d4c5307691425d15adf81565b61146a6115a0565b6001600160a01b031661147b61142f565b6001600160a01b0316146114c05760405162461bcd60e51b81526004018080602001828103825260278152602001806120ce6027913960400191505060405180910390fd5b6008546007546040516001600160a01b0392831692909116907f8be0079c531659141344cd1fd0a4f28419497f9722a3daafe3b4186f6b6457e090600090a3600854600780546001600160a01b0319166001600160a01b039092169182179055604051600091907f4465959e7ec1f32e3ebd831ac2459ad6ef4b1d54a83f108a7068e69e62f0702f908390a3600880546001600160a01b0319169055565b600b6020908152600092835260408084209091529082529020805460019091015463ffffffff9091169082565b60096020526000908152604090205460ff1681565b3390565b6001600160a01b0383166115e95760405162461bcd60e51b81526004018080602001828103825260248152602001806120f56024913960400191505060405180910390fd5b6001600160a01b03821661162e5760405162461bcd60e51b8152600401808060200182810382526022815260200180611f9c6022913960400191505060405180910390fd5b6001600160a01b03808416600081815260016020908152604080832094871680845294825291829020859055815185815291517f8c5be1e5ebec7d5bd14f71427d1e84f3dd0314c0f7b2291e5b200ac8c7c3b9259281900390910190a3505050565b6001600160a01b0383166116d55760405162461bcd60e51b81526004018080602001828103825260258152602001806120826025913960400191505060405180910390fd5b6001600160a01b03821661171a5760405162461bcd60e51b8152600401808060200182810382526023815260200180611f536023913960400191505060405180910390fd5b611725838383611b6a565b61176281604051806060016040528060268152602001611fbe602691396001600160a01b03861660009081526020819052604090205491906117eb565b6001600160a01b0380851660009081526020819052604080822093909355908416815220546117919082611882565b6001600160a01b038084166000818152602081815260409182902094909455805185815290519193928716927fddf252ad1be2c89b69c2b068fc378daa952ba7f163c4a11628f55a4df523b3ef92918290030190a3505050565b6000818484111561187a5760405162461bcd60e51b81526004018080602001828103825283818151815260200191508051906020019080838360005b8381101561183f578181015183820152602001611827565b50505050905090810190601f16801561186c5780820380516001836020036101000a031916815260200191505b509250505060405180910390fd5b505050900390565b60008282018381101561101e576040805162461bcd60e51b815260206004820152601b60248201527f536166654d6174683a206164646974696f6e206f766572666c6f770000000000604482015290519081900360640190fd5b6001600160a01b038083166000908152600a60205260408120549091169061190384610a59565b6001600160a01b038581166000818152600a602052604080822080546001600160a01b031916898616908117909155905194955093928616927f3134e8a2e6d97e929a7e54011ea5485d7d196dd5f0ba4d4ef95803e8e3fc257f9190a461196b828483611bf5565b50505050565b6119796115a0565b6001600160a01b031661198a610d05565b6001600160a01b0316146119d3576040805162461bcd60e51b81526020600482018190526024820152600080516020612062833981519152604482015290519081900360640190fd5b6007546040516000916001600160a01b0316907f8be0079c531659141344cd1fd0a4f28419497f9722a3daafe3b4186f6b6457e0908390a3600780546001600160a01b03191690556008546001600160a01b031615610aee576008546040516000916001600160a01b0316907f4465959e7ec1f32e3ebd831ac2459ad6ef4b1d54a83f108a7068e69e62f0702f908390a3600880546001600160a01b0319169055565b6001600160a01b038216611ad1576040805162461bcd60e51b815260206004820152601f60248201527f45524332303a206d696e7420746f20746865207a65726f206164647265737300604482015290519081900360640190fd5b611add60008383611b6a565b600254611aea9082611882565b6002556001600160a01b038216600090815260208190526040902054611b109082611882565b6001600160a01b0383166000818152602081815260408083209490945583518581529351929391927fddf252ad1be2c89b69c2b068fc378daa952ba7f163c4a11628f55a4df523b3ef9281900390910190a35050565b4690565b611b75838383611bf0565b6001600160a01b038316611bf057611b8b6109c2565b611b9d82611b9761079a565b90611882565b1115611bf0576040805162461bcd60e51b815260206004820152601960248201527f45524332304361707065643a2063617020657863656564656400000000000000604482015290519081900360640190fd5b505050565b816001600160a01b0316836001600160a01b031614158015611c175750600081115b15611bf0576001600160a01b03831615611ca9576001600160a01b0383166000908152600c602052604081205463ffffffff169081611c57576000611c89565b6001600160a01b0385166000908152600b6020908152604080832063ffffffff60001987011684529091529020600101545b90506000611c978285611d32565b9050611ca586848484611d8f565b5050505b6001600160a01b03821615611bf0576001600160a01b0382166000908152600c602052604081205463ffffffff169081611ce4576000611d16565b6001600160a01b0384166000908152600b6020908152604080832063ffffffff60001987011684529091529020600101545b90506000611d248285611882565b905061129085848484611d8f565b600082821115611d89576040805162461bcd60e51b815260206004820152601e60248201527f536166654d6174683a207375627472616374696f6e206f766572666c6f770000604482015290519081900360640190fd5b50900390565b6000611db34360405180606001604052806034815260200161200660349139611ef4565b905060008463ffffffff16118015611dfc57506001600160a01b0385166000908152600b6020908152604080832063ffffffff6000198901811685529252909120548282169116145b15611e39576001600160a01b0385166000908152600b6020908152604080832063ffffffff60001989011684529091529020600101829055611eaa565b60408051808201825263ffffffff808416825260208083018681526001600160a01b038a166000818152600b84528681208b8616825284528681209551865490861663ffffffff199182161787559251600196870155908152600c9092529390208054928801909116919092161790555b604080518481526020810184905281516001600160a01b038816927fdec2bacdd2f05b59de34da9b523dff8be42e5e38e818c82fdb0bae774387a724928290030190a25050505050565b6000816401000000008410611f4a5760405162461bcd60e51b815260206004820181815283516024840152835190928392604490910191908501908083836000831561183f578181015183820152602001611827565b50919291505056fe45524332303a207472616e7366657220746f20746865207a65726f2061646472657373474942583a3a64656c656761746542795369673a20696e76616c6964207369676e617475726545524332303a20617070726f766520746f20746865207a65726f206164647265737345524332303a207472616e7366657220616d6f756e7420657863656564732062616c616e6365474942583a3a64656c656761746542795369673a20696e76616c6964206e6f6e6365474942583a3a5f7772697465436865636b706f696e743a20626c6f636b206e756d6265722065786365656473203332206269747345524332303a207472616e7366657220616d6f756e74206578636565647320616c6c6f77616e63654f776e61626c653a2063616c6c6572206973206e6f7420746865206f776e657245524332303a207472616e736665722066726f6d20746865207a65726f2061646472657373474942583a3a6765745072696f72566f7465733a206e6f74207965742064657465726d696e65644f776e61626c653a2063616c6c6572206973206e6f74207468652070656e64696e674f776e657245524332303a20617070726f76652066726f6d20746865207a65726f2061646472657373474942583a3a64656c656761746542795369673a207369676e617475726520657870697265644f776e61626c653a2070656e64696e674f776e657220697320746865207a65726f206164647265737345524332303a2064656372656173656420616c6c6f77616e63652062656c6f77207a65726fa26469706673582212207bda00d26d79a26335949cc10dcb3660c9de5928ef4f9581d8f766d98704cd8764736f6c63430007060033",
  "devdoc": {
    "kind": "dev",
    "methods": {
      "allowance(address,address)": {
        "details": "See {IERC20-allowance}."
      },
      "approve(address,uint256)": {
        "details": "See {IERC20-approve}. Requirements: - `spender` cannot be the zero address."
      },
      "balanceOf(address)": {
        "details": "See {IERC20-balanceOf}."
      },
      "cap()": {
        "details": "Returns the cap on the token's total supply."
      },
      "decimals()": {
        "details": "Returns the number of decimals used to get its user representation. For example, if `decimals` equals `2`, a balance of `505` tokens should be displayed to a user as `5,05` (`505 / 10 ** 2`). Tokens usually opt for a value of 18, imitating the relationship between Ether and Wei. This is the value {ERC20} uses, unless {_setupDecimals} is called. NOTE: This information is only used for _display_ purposes: it in no way affects any of the arithmetic of the contract, including {IERC20-balanceOf} and {IERC20-transfer}."
      },
      "decreaseAllowance(address,uint256)": {
        "details": "Atomically decreases the allowance granted to `spender` by the caller. This is an alternative to {approve} that can be used as a mitigation for problems described in {IERC20-approve}. Emits an {Approval} event indicating the updated allowance. Requirements: - `spender` cannot be the zero address. - `spender` must have allowance for the caller of at least `subtractedValue`."
      },
      "increaseAllowance(address,uint256)": {
        "details": "Atomically increases the allowance granted to `spender` by the caller. This is an alternative to {approve} that can be used as a mitigation for problems described in {IERC20-approve}. Emits an {Approval} event indicating the updated allowance. Requirements: - `spender` cannot be the zero address."
      },
      "name()": {
        "details": "Returns the name of the token."
      },
      "symbol()": {
        "details": "Returns the symbol of the token, usually a shorter version of the name."
      },
      "totalSupply()": {
        "details": "See {IERC20-totalSupply}."
      },
      "transfer(address,uint256)": {
        "details": "See {IERC20-transfer}. Requirements: - `recipient` cannot be the zero address. - the caller must have a balance of at least `amount`."
      },
      "transferFrom(address,address,uint256)": {
        "details": "See {IERC20-transferFrom}. Emits an {Approval} event indicating the updated allowance. This is not required by the EIP. See the note at the beginning of {ERC20}. Requirements: - `sender` and `recipient` cannot be the zero address. - `sender` must have a balance of at least `amount`. - the caller must have allowance for ``sender``'s tokens of at least `amount`."
      }
    },
    "version": 1
  },
  "userdoc": {
    "kind": "user",
    "methods": {},
    "version": 1
  },
  "storageLayout": {
    "storage": [
      {
        "astId": 620,
        "contract": "contracts/token/GIBXToken.sol:GIBXToken",
        "label": "_balances",
        "offset": 0,
        "slot": "0",
        "type": "t_mapping(t_address,t_uint256)"
      },
      {
        "astId": 626,
        "contract": "contracts/token/GIBXToken.sol:GIBXToken",
        "label": "_allowances",
        "offset": 0,
        "slot": "1",
        "type": "t_mapping(t_address,t_mapping(t_address,t_uint256))"
      },
      {
        "astId": 628,
        "contract": "contracts/token/GIBXToken.sol:GIBXToken",
        "label": "_totalSupply",
        "offset": 0,
        "slot": "2",
        "type": "t_uint256"
      },
      {
        "astId": 630,
        "contract": "contracts/token/GIBXToken.sol:GIBXToken",
        "label": "_name",
        "offset": 0,
        "slot": "3",
        "type": "t_string_storage"
      },
      {
        "astId": 632,
        "contract": "contracts/token/GIBXToken.sol:GIBXToken",
        "label": "_symbol",
        "offset": 0,
        "slot": "4",
        "type": "t_string_storage"
      },
      {
        "astId": 634,
        "contract": "contracts/token/GIBXToken.sol:GIBXToken",
        "label": "_decimals",
        "offset": 0,
        "slot": "5",
        "type": "t_uint8"
      },
      {
        "astId": 1117,
        "contract": "contracts/token/GIBXToken.sol:GIBXToken",
        "label": "_cap",
        "offset": 0,
        "slot": "6",
        "type": "t_uint256"
      },
      {
        "astId": 2335,
        "contract": "contracts/token/GIBXToken.sol:GIBXToken",
        "label": "_owner",
        "offset": 0,
        "slot": "7",
        "type": "t_address"
      },
      {
        "astId": 2337,
        "contract": "contracts/token/GIBXToken.sol:GIBXToken",
        "label": "_pendingOwner",
        "offset": 0,
        "slot": "8",
        "type": "t_address"
      },
      {
        "astId": 13838,
        "contract": "contracts/token/GIBXToken.sol:GIBXToken",
        "label": "minters",
        "offset": 0,
        "slot": "9",
        "type": "t_mapping(t_address,t_bool)"
      },
      {
        "astId": 13992,
        "contract": "contracts/token/GIBXToken.sol:GIBXToken",
        "label": "_delegates",
        "offset": 0,
        "slot": "10",
        "type": "t_mapping(t_address,t_address)"
      },
      {
        "astId": 13998,
        "contract": "contracts/token/GIBXToken.sol:GIBXToken",
        "label": "checkpoints",
        "offset": 0,
        "slot": "11",
        "type": "t_mapping(t_address,t_mapping(t_uint32,t_struct(Checkpoint)13988_storage))"
      },
      {
        "astId": 14002,
        "contract": "contracts/token/GIBXToken.sol:GIBXToken",
        "label": "numCheckpoints",
        "offset": 0,
        "slot": "12",
        "type": "t_mapping(t_address,t_uint32)"
      },
      {
        "astId": 14016,
        "contract": "contracts/token/GIBXToken.sol:GIBXToken",
        "label": "nonces",
        "offset": 0,
        "slot": "13",
        "type": "t_mapping(t_address,t_uint256)"
      }
    ],
    "types": {
      "t_address": {
        "encoding": "inplace",
        "label": "address",
        "numberOfBytes": "20"
      },
      "t_bool": {
        "encoding": "inplace",
        "label": "bool",
        "numberOfBytes": "1"
      },
      "t_mapping(t_address,t_address)": {
        "encoding": "mapping",
        "key": "t_address",
        "label": "mapping(address => address)",
        "numberOfBytes": "32",
        "value": "t_address"
      },
      "t_mapping(t_address,t_bool)": {
        "encoding": "mapping",
        "key": "t_address",
        "label": "mapping(address => bool)",
        "numberOfBytes": "32",
        "value": "t_bool"
      },
      "t_mapping(t_address,t_mapping(t_address,t_uint256))": {
        "encoding": "mapping",
        "key": "t_address",
        "label": "mapping(address => mapping(address => uint256))",
        "numberOfBytes": "32",
        "value": "t_mapping(t_address,t_uint256)"
      },
      "t_mapping(t_address,t_mapping(t_uint32,t_struct(Checkpoint)13988_storage))": {
        "encoding": "mapping",
        "key": "t_address",
        "label": "mapping(address => mapping(uint32 => struct GIBXToken.Checkpoint))",
        "numberOfBytes": "32",
        "value": "t_mapping(t_uint32,t_struct(Checkpoint)13988_storage)"
      },
      "t_mapping(t_address,t_uint256)": {
        "encoding": "mapping",
        "key": "t_address",
        "label": "mapping(address => uint256)",
        "numberOfBytes": "32",
        "value": "t_uint256"
      },
      "t_mapping(t_address,t_uint32)": {
        "encoding": "mapping",
        "key": "t_address",
        "label": "mapping(address => uint32)",
        "numberOfBytes": "32",
        "value": "t_uint32"
      },
      "t_mapping(t_uint32,t_struct(Checkpoint)13988_storage)": {
        "encoding": "mapping",
        "key": "t_uint32",
        "label": "mapping(uint32 => struct GIBXToken.Checkpoint)",
        "numberOfBytes": "32",
        "value": "t_struct(Checkpoint)13988_storage"
      },
      "t_string_storage": {
        "encoding": "bytes",
        "label": "string",
        "numberOfBytes": "32"
      },
      "t_struct(Checkpoint)13988_storage": {
        "encoding": "inplace",
        "label": "struct GIBXToken.Checkpoint",
        "members": [
          {
            "astId": 13985,
            "contract": "contracts/token/GIBXToken.sol:GIBXToken",
            "label": "fromBlock",
            "offset": 0,
            "slot": "0",
            "type": "t_uint32"
          },
          {
            "astId": 13987,
            "contract": "contracts/token/GIBXToken.sol:GIBXToken",
            "label": "votes",
            "offset": 0,
            "slot": "1",
            "type": "t_uint256"
          }
        ],
        "numberOfBytes": "64"
      },
      "t_uint256": {
        "encoding": "inplace",
        "label": "uint256",
        "numberOfBytes": "32"
      },
      "t_uint32": {
        "encoding": "inplace",
        "label": "uint32",
        "numberOfBytes": "4"
      },
      "t_uint8": {
        "encoding": "inplace",
        "label": "uint8",
        "numberOfBytes": "1"
      }
    }
  }
}