{
  "address": "0x02332C69DeBf4EdA2857E6146cA87425f1F432e8",
  "abi": [
    {
      "inputs": [
        {
          "internalType": "address",
          "name": "_factory",
          "type": "address"
        },
        {
          "internalType": "address",
          "name": "_WETH",
          "type": "address"
        }
      ],
      "stateMutability": "nonpayable",
      "type": "constructor"
    },
    {
      "anonymous": false,
      "inputs": [
        {
          "indexed": true,
          "internalType": "address",
          "name": "previousPendingOwner",
          "type": "address"
        },
        {
          "indexed": true,
          "internalType": "address",
          "name": "newPendingOwner",
          "type": "address"
        }
      ],
      "name": "ChangePendingOwner",
      "type": "event"
    },
    {
      "anonymous": false,
      "inputs": [
        {
          "indexed": true,
          "internalType": "address",
          "name": "previousOwner",
          "type": "address"
        },
        {
          "indexed": true,
          "internalType": "address",
          "name": "newOwner",
          "type": "address"
        }
      ],
      "name": "OwnershipTransferred",
      "type": "event"
    },
    {
      "inputs": [],
      "name": "WETH",
      "outputs": [
        {
          "internalType": "address",
          "name": "",
          "type": "address"
        }
      ],
      "stateMutability": "view",
      "type": "function"
    },
    {
      "inputs": [],
      "name": "acceptOwner",
      "outputs": [],
      "stateMutability": "nonpayable",
      "type": "function"
    },
    {
      "inputs": [
        {
          "internalType": "address",
          "name": "tokenA",
          "type": "address"
        },
        {
          "internalType": "address",
          "name": "tokenB",
          "type": "address"
        },
        {
          "internalType": "uint256",
          "name": "amountADesired",
          "type": "uint256"
        },
        {
          "internalType": "uint256",
          "name": "amountBDesired",
          "type": "uint256"
        },
        {
          "internalType": "uint256",
          "name": "amountAMin",
          "type": "uint256"
        },
        {
          "internalType": "uint256",
          "name": "amountBMin",
          "type": "uint256"
        },
        {
          "internalType": "address",
          "name": "to",
          "type": "address"
        },
        {
          "internalType": "uint256",
          "name": "deadline",
          "type": "uint256"
        }
      ],
      "name": "addLiquidity",
      "outputs": [
        {
          "internalType": "uint256",
          "name": "amountA",
          "type": "uint256"
        },
        {
          "internalType": "uint256",
          "name": "amountB",
          "type": "uint256"
        },
        {
          "internalType": "uint256",
          "name": "liquidity",
          "type": "uint256"
        }
      ],
      "stateMutability": "nonpayable",
      "type": "function"
    },
    {
      "inputs": [
        {
          "internalType": "address",
          "name": "token",
          "type": "address"
        },
        {
          "internalType": "uint256",
          "name": "amountTokenDesired",
          "type": "uint256"
        },
        {
          "internalType": "uint256",
          "name": "amountTokenMin",
          "type": "uint256"
        },
        {
          "internalType": "uint256",
          "name": "amountETHMin",
          "type": "uint256"
        },
        {
          "internalType": "address",
          "name": "to",
          "type": "address"
        },
        {
          "internalType": "uint256",
          "name": "deadline",
          "type": "uint256"
        }
      ],
      "name": "addLiquidityETH",
      "outputs": [
        {
          "internalType": "uint256",
          "name": "amountToken",
          "type": "uint256"
        },
        {
          "internalType": "uint256",
          "name": "amountETH",
          "type": "uint256"
        },
        {
          "internalType": "uint256",
          "name": "liquidity",
          "type": "uint256"
        }
      ],
      "stateMutability": "payable",
      "type": "function"
    },
    {
      "inputs": [],
      "name": "factory",
      "outputs": [
        {
          "internalType": "address",
          "name": "",
          "type": "address"
        }
      ],
      "stateMutability": "view",
      "type": "function"
    },
    {
      "inputs": [
        {
          "internalType": "uint256",
          "name": "amountOut",
          "type": "uint256"
        },
        {
          "internalType": "uint256",
          "name": "reserveIn",
          "type": "uint256"
        },
        {
          "internalType": "uint256",
          "name": "reserveOut",
          "type": "uint256"
        }
      ],
      "name": "getAmountIn",
      "outputs": [
        {
          "internalType": "uint256",
          "name": "amountIn",
          "type": "uint256"
        }
      ],
      "stateMutability": "pure",
      "type": "function"
    },
    {
      "inputs": [
        {
          "internalType": "uint256",
          "name": "amountIn",
          "type": "uint256"
        },
        {
          "internalType": "uint256",
          "name": "reserveIn",
          "type": "uint256"
        },
        {
          "internalType": "uint256",
          "name": "reserveOut",
          "type": "uint256"
        }
      ],
      "name": "getAmountOut",
      "outputs": [
        {
          "internalType": "uint256",
          "name": "amountOut",
          "type": "uint256"
        }
      ],
      "stateMutability": "pure",
      "type": "function"
    },
    {
      "inputs": [
        {
          "internalType": "uint256",
          "name": "amountOut",
          "type": "uint256"
        },
        {
          "internalType": "address[]",
          "name": "path",
          "type": "address[]"
        }
      ],
      "name": "getAmountsIn",
      "outputs": [
        {
          "internalType": "uint256[]",
          "name": "amounts",
          "type": "uint256[]"
        }
      ],
      "stateMutability": "view",
      "type": "function"
    },
    {
      "inputs": [
        {
          "internalType": "uint256",
          "name": "amountIn",
          "type": "uint256"
        },
        {
          "internalType": "address[]",
          "name": "path",
          "type": "address[]"
        }
      ],
      "name": "getAmountsOut",
      "outputs": [
        {
          "internalType": "uint256[]",
          "name": "amounts",
          "type": "uint256[]"
        }
      ],
      "stateMutability": "view",
      "type": "function"
    },
    {
      "inputs": [],
      "name": "owner",
      "outputs": [
        {
          "internalType": "address",
          "name": "",
          "type": "address"
        }
      ],
      "stateMutability": "view",
      "type": "function"
    },
    {
      "inputs": [],
      "name": "pendingOwner",
      "outputs": [
        {
          "internalType": "address",
          "name": "",
          "type": "address"
        }
      ],
      "stateMutability": "view",
      "type": "function"
    },
    {
      "inputs": [
        {
          "internalType": "uint256",
          "name": "amountA",
          "type": "uint256"
        },
        {
          "internalType": "uint256",
          "name": "reserveA",
          "type": "uint256"
        },
        {
          "internalType": "uint256",
          "name": "reserveB",
          "type": "uint256"
        }
      ],
      "name": "quote",
      "outputs": [
        {
          "internalType": "uint256",
          "name": "amountB",
          "type": "uint256"
        }
      ],
      "stateMutability": "pure",
      "type": "function"
    },
    {
      "inputs": [
        {
          "internalType": "address",
          "name": "tokenA",
          "type": "address"
        },
        {
          "internalType": "address",
          "name": "tokenB",
          "type": "address"
        },
        {
          "internalType": "uint256",
          "name": "liquidity",
          "type": "uint256"
        },
        {
          "internalType": "uint256",
          "name": "amountAMin",
          "type": "uint256"
        },
        {
          "internalType": "uint256",
          "name": "amountBMin",
          "type": "uint256"
        },
        {
          "internalType": "address",
          "name": "to",
          "type": "address"
        },
        {
          "internalType": "uint256",
          "name": "deadline",
          "type": "uint256"
        }
      ],
      "name": "removeLiquidity",
      "outputs": [
        {
          "internalType": "uint256",
          "name": "amountA",
          "type": "uint256"
        },
        {
          "internalType": "uint256",
          "name": "amountB",
          "type": "uint256"
        }
      ],
      "stateMutability": "nonpayable",
      "type": "function"
    },
    {
      "inputs": [
        {
          "internalType": "address",
          "name": "token",
          "type": "address"
        },
        {
          "internalType": "uint256",
          "name": "liquidity",
          "type": "uint256"
        },
        {
          "internalType": "uint256",
          "name": "amountTokenMin",
          "type": "uint256"
        },
        {
          "internalType": "uint256",
          "name": "amountETHMin",
          "type": "uint256"
        },
        {
          "internalType": "address",
          "name": "to",
          "type": "address"
        },
        {
          "internalType": "uint256",
          "name": "deadline",
          "type": "uint256"
        }
      ],
      "name": "removeLiquidityETH",
      "outputs": [
        {
          "internalType": "uint256",
          "name": "amountToken",
          "type": "uint256"
        },
        {
          "internalType": "uint256",
          "name": "amountETH",
          "type": "uint256"
        }
      ],
      "stateMutability": "nonpayable",
      "type": "function"
    },
    {
      "inputs": [
        {
          "internalType": "address",
          "name": "token",
          "type": "address"
        },
        {
          "internalType": "uint256",
          "name": "liquidity",
          "type": "uint256"
        },
        {
          "internalType": "uint256",
          "name": "amountTokenMin",
          "type": "uint256"
        },
        {
          "internalType": "uint256",
          "name": "amountETHMin",
          "type": "uint256"
        },
        {
          "internalType": "address",
          "name": "to",
          "type": "address"
        },
        {
          "internalType": "uint256",
          "name": "deadline",
          "type": "uint256"
        }
      ],
      "name": "removeLiquidityETHSupportingFeeOnTransferTokens",
      "outputs": [
        {
          "internalType": "uint256",
          "name": "amountETH",
          "type": "uint256"
        }
      ],
      "stateMutability": "nonpayable",
      "type": "function"
    },
    {
      "inputs": [
        {
          "internalType": "address",
          "name": "token",
          "type": "address"
        },
        {
          "internalType": "uint256",
          "name": "liquidity",
          "type": "uint256"
        },
        {
          "internalType": "uint256",
          "name": "amountTokenMin",
          "type": "uint256"
        },
        {
          "internalType": "uint256",
          "name": "amountETHMin",
          "type": "uint256"
        },
        {
          "internalType": "address",
          "name": "to",
          "type": "address"
        },
        {
          "internalType": "uint256",
          "name": "deadline",
          "type": "uint256"
        },
        {
          "internalType": "bool",
          "name": "approveMax",
          "type": "bool"
        },
        {
          "internalType": "uint8",
          "name": "v",
          "type": "uint8"
        },
        {
          "internalType": "bytes32",
          "name": "r",
          "type": "bytes32"
        },
        {
          "internalType": "bytes32",
          "name": "s",
          "type": "bytes32"
        }
      ],
      "name": "removeLiquidityETHWithPermit",
      "outputs": [
        {
          "internalType": "uint256",
          "name": "amountToken",
          "type": "uint256"
        },
        {
          "internalType": "uint256",
          "name": "amountETH",
          "type": "uint256"
        }
      ],
      "stateMutability": "nonpayable",
      "type": "function"
    },
    {
      "inputs": [
        {
          "internalType": "address",
          "name": "token",
          "type": "address"
        },
        {
          "internalType": "uint256",
          "name": "liquidity",
          "type": "uint256"
        },
        {
          "internalType": "uint256",
          "name": "amountTokenMin",
          "type": "uint256"
        },
        {
          "internalType": "uint256",
          "name": "amountETHMin",
          "type": "uint256"
        },
        {
          "internalType": "address",
          "name": "to",
          "type": "address"
        },
        {
          "internalType": "uint256",
          "name": "deadline",
          "type": "uint256"
        },
        {
          "internalType": "bool",
          "name": "approveMax",
          "type": "bool"
        },
        {
          "internalType": "uint8",
          "name": "v",
          "type": "uint8"
        },
        {
          "internalType": "bytes32",
          "name": "r",
          "type": "bytes32"
        },
        {
          "internalType": "bytes32",
          "name": "s",
          "type": "bytes32"
        }
      ],
      "name": "removeLiquidityETHWithPermitSupportingFeeOnTransferTokens",
      "outputs": [
        {
          "internalType": "uint256",
          "name": "amountETH",
          "type": "uint256"
        }
      ],
      "stateMutability": "nonpayable",
      "type": "function"
    },
    {
      "inputs": [
        {
          "internalType": "address",
          "name": "tokenA",
          "type": "address"
        },
        {
          "internalType": "address",
          "name": "tokenB",
          "type": "address"
        },
        {
          "internalType": "uint256",
          "name": "liquidity",
          "type": "uint256"
        },
        {
          "internalType": "uint256",
          "name": "amountAMin",
          "type": "uint256"
        },
        {
          "internalType": "uint256",
          "name": "amountBMin",
          "type": "uint256"
        },
        {
          "internalType": "address",
          "name": "to",
          "type": "address"
        },
        {
          "internalType": "uint256",
          "name": "deadline",
          "type": "uint256"
        },
        {
          "internalType": "bool",
          "name": "approveMax",
          "type": "bool"
        },
        {
          "internalType": "uint8",
          "name": "v",
          "type": "uint8"
        },
        {
          "internalType": "bytes32",
          "name": "r",
          "type": "bytes32"
        },
        {
          "internalType": "bytes32",
          "name": "s",
          "type": "bytes32"
        }
      ],
      "name": "removeLiquidityWithPermit",
      "outputs": [
        {
          "internalType": "uint256",
          "name": "amountA",
          "type": "uint256"
        },
        {
          "internalType": "uint256",
          "name": "amountB",
          "type": "uint256"
        }
      ],
      "stateMutability": "nonpayable",
      "type": "function"
    },
    {
      "inputs": [],
      "name": "renounceOwnership",
      "outputs": [],
      "stateMutability": "nonpayable",
      "type": "function"
    },
    {
      "inputs": [
        {
          "internalType": "address",
          "name": "pendingOwner_",
          "type": "address"
        }
      ],
      "name": "setPendingOwner",
      "outputs": [],
      "stateMutability": "nonpayable",
      "type": "function"
    },
    {
      "inputs": [
        {
          "internalType": "address",
          "name": "_swapMininng",
          "type": "address"
        }
      ],
      "name": "setSwapMining",
      "outputs": [],
      "stateMutability": "nonpayable",
      "type": "function"
    },
    {
      "inputs": [
        {
          "internalType": "uint256",
          "name": "amountOut",
          "type": "uint256"
        },
        {
          "internalType": "address[]",
          "name": "path",
          "type": "address[]"
        },
        {
          "internalType": "address",
          "name": "to",
          "type": "address"
        },
        {
          "internalType": "uint256",
          "name": "deadline",
          "type": "uint256"
        }
      ],
      "name": "swapETHForExactTokens",
      "outputs": [
        {
          "internalType": "uint256[]",
          "name": "amounts",
          "type": "uint256[]"
        }
      ],
      "stateMutability": "payable",
      "type": "function"
    },
    {
      "inputs": [
        {
          "internalType": "uint256",
          "name": "amountOutMin",
          "type": "uint256"
        },
        {
          "internalType": "address[]",
          "name": "path",
          "type": "address[]"
        },
        {
          "internalType": "address",
          "name": "to",
          "type": "address"
        },
        {
          "internalType": "uint256",
          "name": "deadline",
          "type": "uint256"
        }
      ],
      "name": "swapExactETHForTokens",
      "outputs": [
        {
          "internalType": "uint256[]",
          "name": "amounts",
          "type": "uint256[]"
        }
      ],
      "stateMutability": "payable",
      "type": "function"
    },
    {
      "inputs": [
        {
          "internalType": "uint256",
          "name": "amountOutMin",
          "type": "uint256"
        },
        {
          "internalType": "address[]",
          "name": "path",
          "type": "address[]"
        },
        {
          "internalType": "address",
          "name": "to",
          "type": "address"
        },
        {
          "internalType": "uint256",
          "name": "deadline",
          "type": "uint256"
        }
      ],
      "name": "swapExactETHForTokensSupportingFeeOnTransferTokens",
      "outputs": [],
      "stateMutability": "payable",
      "type": "function"
    },
    {
      "inputs": [
        {
          "internalType": "uint256",
          "name": "amountIn",
          "type": "uint256"
        },
        {
          "internalType": "uint256",
          "name": "amountOutMin",
          "type": "uint256"
        },
        {
          "internalType": "address[]",
          "name": "path",
          "type": "address[]"
        },
        {
          "internalType": "address",
          "name": "to",
          "type": "address"
        },
        {
          "internalType": "uint256",
          "name": "deadline",
          "type": "uint256"
        }
      ],
      "name": "swapExactTokensForETH",
      "outputs": [
        {
          "internalType": "uint256[]",
          "name": "amounts",
          "type": "uint256[]"
        }
      ],
      "stateMutability": "nonpayable",
      "type": "function"
    },
    {
      "inputs": [
        {
          "internalType": "uint256",
          "name": "amountIn",
          "type": "uint256"
        },
        {
          "internalType": "uint256",
          "name": "amountOutMin",
          "type": "uint256"
        },
        {
          "internalType": "address[]",
          "name": "path",
          "type": "address[]"
        },
        {
          "internalType": "address",
          "name": "to",
          "type": "address"
        },
        {
          "internalType": "uint256",
          "name": "deadline",
          "type": "uint256"
        }
      ],
      "name": "swapExactTokensForETHSupportingFeeOnTransferTokens",
      "outputs": [],
      "stateMutability": "nonpayable",
      "type": "function"
    },
    {
      "inputs": [
        {
          "internalType": "uint256",
          "name": "amountIn",
          "type": "uint256"
        },
        {
          "internalType": "uint256",
          "name": "amountOutMin",
          "type": "uint256"
        },
        {
          "internalType": "address[]",
          "name": "path",
          "type": "address[]"
        },
        {
          "internalType": "address",
          "name": "to",
          "type": "address"
        },
        {
          "internalType": "uint256",
          "name": "deadline",
          "type": "uint256"
        }
      ],
      "name": "swapExactTokensForTokens",
      "outputs": [
        {
          "internalType": "uint256[]",
          "name": "amounts",
          "type": "uint256[]"
        }
      ],
      "stateMutability": "nonpayable",
      "type": "function"
    },
    {
      "inputs": [
        {
          "internalType": "uint256",
          "name": "amountIn",
          "type": "uint256"
        },
        {
          "internalType": "uint256",
          "name": "amountOutMin",
          "type": "uint256"
        },
        {
          "internalType": "address[]",
          "name": "path",
          "type": "address[]"
        },
        {
          "internalType": "address",
          "name": "to",
          "type": "address"
        },
        {
          "internalType": "uint256",
          "name": "deadline",
          "type": "uint256"
        }
      ],
      "name": "swapExactTokensForTokensSupportingFeeOnTransferTokens",
      "outputs": [],
      "stateMutability": "nonpayable",
      "type": "function"
    },
    {
      "inputs": [],
      "name": "swapMining",
      "outputs": [
        {
          "internalType": "address",
          "name": "",
          "type": "address"
        }
      ],
      "stateMutability": "view",
      "type": "function"
    },
    {
      "inputs": [
        {
          "internalType": "uint256",
          "name": "amountOut",
          "type": "uint256"
        },
        {
          "internalType": "uint256",
          "name": "amountInMax",
          "type": "uint256"
        },
        {
          "internalType": "address[]",
          "name": "path",
          "type": "address[]"
        },
        {
          "internalType": "address",
          "name": "to",
          "type": "address"
        },
        {
          "internalType": "uint256",
          "name": "deadline",
          "type": "uint256"
        }
      ],
      "name": "swapTokensForExactETH",
      "outputs": [
        {
          "internalType": "uint256[]",
          "name": "amounts",
          "type": "uint256[]"
        }
      ],
      "stateMutability": "nonpayable",
      "type": "function"
    },
    {
      "inputs": [
        {
          "internalType": "uint256",
          "name": "amountOut",
          "type": "uint256"
        },
        {
          "internalType": "uint256",
          "name": "amountInMax",
          "type": "uint256"
        },
        {
          "internalType": "address[]",
          "name": "path",
          "type": "address[]"
        },
        {
          "internalType": "address",
          "name": "to",
          "type": "address"
        },
        {
          "internalType": "uint256",
          "name": "deadline",
          "type": "uint256"
        }
      ],
      "name": "swapTokensForExactTokens",
      "outputs": [
        {
          "internalType": "uint256[]",
          "name": "amounts",
          "type": "uint256[]"
        }
      ],
      "stateMutability": "nonpayable",
      "type": "function"
    },
    {
      "stateMutability": "payable",
      "type": "receive"
    }
  ],
  "transactionHash": "0x70ba8f449aab5eacb1d410912b0fd592b4a662bc26d6b776e3f216fc3b68b963",
  "args": [
    "0x1f598e9D022e5df76070Bea8BC94E0347f56e567",
    "0xbb4CdB9CBd36B01bD1cBaEBF2De08d9173bc095c"
  ],
  "solcInputHash": "d2da3992c7ce11c5ac8aac23ec92f50f",
  "bytecode": "0x60c06040523480156200001157600080fd5b5060405162004f4138038062004f41833981810160405260408110156200003757600080fd5b50805160209091015160006200004c620000b5565b600080546001600160a01b0319166001600160a01b0383169081178255604051929350917f8be0079c531659141344cd1fd0a4f28419497f9722a3daafe3b4186f6b6457e0908290a3506001600160601b0319606092831b8116608052911b1660a052620000b9565b3390565b60805160601c60a05160601c614d5a620001e7600039806101ec5280610e405280610e7b5280610f745280611192528061151c52806117275280611bee5280611cc95280611da35280611e715280611fb7528061203f528061228a528061230552806123b95280612485528061251a528061258e5280612b865280612ef85280612f4e5280612f825280612ff6528061318452806132c7528061334f52508061100252806110d95280611258528061129152806113cc52806115aa528061170552806118755280611f04528061207152806121cb52806125c052806127fe5280612b0b5280612b345280612b645280612ce05280612f2c528061321752806133815280613a705280613ab35280613d8b5280613fa652806143ae5280614467528061451a5250614d5a6000f3fe6080604052600436106101dc5760003560e01c80638803dbee11610102578063c45a015511610095578063e8e3370011610064578063e8e3370014610c94578063ebbc496514610d14578063f305d71914610d29578063fb3bdb4114610d6f57610215565b8063c45a015514610b42578063d06ca61f14610b57578063ded9382a14610c0c578063e30c397814610c7f57610215565b8063af2979eb116100d1578063af2979eb146109db578063b6f9de9514610a2e578063baa2abde14610ab2578063c42069ec14610b0f57610215565b80638803dbee146108e55780638da5cb5b1461097b578063ad5c464814610990578063ad615dec146109a557610215565b80634e5eda111161017a578063715018a611610149578063715018a614610780578063791ac947146107955780637ff36ab51461082b57806385f8c259146108af57610215565b80634e5eda11146106135780634f887183146106445780635b0d5984146106775780635c11d795146106ea57610215565b80631f00ca74116101b65780631f00ca74146103b45780632195995c1461046957806338ed1739146104e75780634a25d94a1461057d57610215565b806302751cec1461021a578063054d50d41461028657806318cbafe5146102ce57610215565b3661021557336001600160a01b037f0000000000000000000000000000000000000000000000000000000000000000161461021357fe5b005b600080fd5b34801561022657600080fd5b5061026d600480360360c081101561023d57600080fd5b506001600160a01b0381358116916020810135916040820135916060810135916080820135169060a00135610df3565b6040805192835260208301919091528051918290030190f35b34801561029257600080fd5b506102bc600480360360608110156102a957600080fd5b5080359060208101359060400135610f0d565b60408051918252519081900360200190f35b3480156102da57600080fd5b50610364600480360360a08110156102f157600080fd5b813591602081013591810190606081016040820135600160201b81111561031757600080fd5b82018360208201111561032957600080fd5b803590602001918460208302840111600160201b8311171561034a57600080fd5b91935091506001600160a01b038135169060200135610f24565b60408051602080825283518183015283519192839290830191858101910280838360005b838110156103a0578181015183820152602001610388565b505050509050019250505060405180910390f35b3480156103c057600080fd5b50610364600480360360408110156103d757600080fd5b81359190810190604081016020820135600160201b8111156103f857600080fd5b82018360208201111561040a57600080fd5b803590602001918460208302840111600160201b8311171561042b57600080fd5b919080806020026020016040519081016040528093929190818152602001838360200280828437600092019190915250929550611251945050505050565b34801561047557600080fd5b5061026d600480360361016081101561048d57600080fd5b506001600160a01b038135811691602081013582169160408201359160608101359160808201359160a08101359091169060c08101359060e081013515159060ff6101008201351690610120810135906101400135611287565b3480156104f357600080fd5b50610364600480360360a081101561050a57600080fd5b813591602081013591810190606081016040820135600160201b81111561053057600080fd5b82018360208201111561054257600080fd5b803590602001918460208302840111600160201b8311171561056357600080fd5b91935091506001600160a01b038135169060200135611381565b34801561058957600080fd5b50610364600480360360a08110156105a057600080fd5b813591602081013591810190606081016040820135600160201b8111156105c657600080fd5b8201836020820111156105d857600080fd5b803590602001918460208302840111600160201b831117156105f957600080fd5b91935091506001600160a01b0381351690602001356114cc565b34801561061f57600080fd5b50610628611658565b604080516001600160a01b039092168252519081900360200190f35b34801561065057600080fd5b506102136004803603602081101561066757600080fd5b50356001600160a01b0316611667565b34801561068357600080fd5b506102bc600480360361014081101561069b57600080fd5b506001600160a01b0381358116916020810135916040820135916060810135916080820135169060a08101359060c081013515159060ff60e082013516906101008101359061012001356116fd565b3480156106f657600080fd5b50610213600480360360a081101561070d57600080fd5b813591602081013591810190606081016040820135600160201b81111561073357600080fd5b82018360208201111561074557600080fd5b803590602001918460208302840111600160201b8311171561076657600080fd5b91935091506001600160a01b03813516906020013561180b565b34801561078c57600080fd5b50610213611a88565b3480156107a157600080fd5b50610213600480360360a08110156107b857600080fd5b813591602081013591810190606081016040820135600160201b8111156107de57600080fd5b8201836020820111156107f057600080fd5b803590602001918460208302840111600160201b8311171561081157600080fd5b91935091506001600160a01b038135169060200135611ba0565b6103646004803603608081101561084157600080fd5b81359190810190604081016020820135600160201b81111561086257600080fd5b82018360208201111561087457600080fd5b803590602001918460208302840111600160201b8311171561089557600080fd5b91935091506001600160a01b038135169060200135611e29565b3480156108bb57600080fd5b506102bc600480360360608110156108d257600080fd5b5080359060208101359060400135612173565b3480156108f157600080fd5b50610364600480360360a081101561090857600080fd5b813591602081013591810190606081016040820135600160201b81111561092e57600080fd5b82018360208201111561094057600080fd5b803590602001918460208302840111600160201b8311171561096157600080fd5b91935091506001600160a01b038135169060200135612180565b34801561098757600080fd5b50610628612279565b34801561099c57600080fd5b50610628612288565b3480156109b157600080fd5b506102bc600480360360608110156109c857600080fd5b50803590602081013590604001356122ac565b3480156109e757600080fd5b506102bc600480360360c08110156109fe57600080fd5b506001600160a01b0381358116916020810135916040820135916060810135916080820135169060a001356122b9565b61021360048036036080811015610a4457600080fd5b81359190810190604081016020820135600160201b811115610a6557600080fd5b820183602082011115610a7757600080fd5b803590602001918460208302840111600160201b83111715610a9857600080fd5b91935091506001600160a01b03813516906020013561243f565b348015610abe57600080fd5b5061026d600480360360e0811015610ad557600080fd5b506001600160a01b038135811691602081013582169160408201359160608101359160808201359160a08101359091169060c001356127b0565b348015610b1b57600080fd5b5061021360048036036020811015610b3257600080fd5b50356001600160a01b03166129f4565b348015610b4e57600080fd5b50610628612b09565b348015610b6357600080fd5b5061036460048036036040811015610b7a57600080fd5b81359190810190604081016020820135600160201b811115610b9b57600080fd5b820183602082011115610bad57600080fd5b803590602001918460208302840111600160201b83111715610bce57600080fd5b919080806020026020016040519081016040528093929190818152602001838360200280828437600092019190915250929550612b2d945050505050565b348015610c1857600080fd5b5061026d6004803603610140811015610c3057600080fd5b506001600160a01b0381358116916020810135916040820135916060810135916080820135169060a08101359060c081013515159060ff60e08201351690610100810135906101200135612b5a565b348015610c8b57600080fd5b50610628612c6e565b348015610ca057600080fd5b50610cf66004803603610100811015610cb857600080fd5b506001600160a01b038135811691602081013582169160408201359160608101359160808201359160a08101359160c0820135169060e00135612c7d565b60408051938452602084019290925282820152519081900360600190f35b348015610d2057600080fd5b50610213612db0565b610cf6600480360360c0811015610d3f57600080fd5b506001600160a01b0381358116916020810135916040820135916060810135916080820135169060a00135612ea9565b61036460048036036080811015610d8557600080fd5b81359190810190604081016020820135600160201b811115610da657600080fd5b820183602082011115610db857600080fd5b803590602001918460208302840111600160201b83111715610dd957600080fd5b91935091506001600160a01b03813516906020013561313c565b6000808242811015610e3a576040805162461bcd60e51b81526020600482015260136024820152600080516020614b07833981519152604482015290519081900360640190fd5b610e69897f00000000000000000000000000000000000000000000000000000000000000008a8a8a308a6127b0565b9093509150610e798986856134b5565b7f00000000000000000000000000000000000000000000000000000000000000006001600160a01b0316632e1a7d4d836040518263ffffffff1660e01b815260040180828152602001915050600060405180830381600087803b158015610edf57600080fd5b505af1158015610ef3573d6000803e3d6000fd5b50505050610f0185836134c5565b50965096945050505050565b6000610f1a8484846135b8565b90505b9392505050565b60608142811015610f6a576040805162461bcd60e51b81526020600482015260136024820152600080516020614b07833981519152604482015290519081900360640190fd5b6001600160a01b037f00000000000000000000000000000000000000000000000000000000000000001686866000198101818110610fa457fe5b905060200201356001600160a01b03166001600160a01b031614610ffd576040805162461bcd60e51b81526020600482015260186024820152600080516020614b77833981519152604482015290519081900360640190fd5b61105b7f00000000000000000000000000000000000000000000000000000000000000008988888080602002602001604051908101604052809392919081815260200183836020028082843760009201919091525061369b92505050565b9150868260018451038151811061106e57fe5b602002602001015110156110b35760405162461bcd60e51b8152600401808060200182810382526026815260200180614b276026913960400191505060405180910390fd5b611151868660008181106110c357fe5b905060200201356001600160a01b0316336111377f00000000000000000000000000000000000000000000000000000000000000008a8a600081811061110557fe5b905060200201356001600160a01b03168b8b600181811061112257fe5b905060200201356001600160a01b03166137e7565b8560008151811061114457fe5b6020026020010151613909565b6111908287878080602002602001604051908101604052809392919081815260200183836020028082843760009201919091525030925061391b915050565b7f00000000000000000000000000000000000000000000000000000000000000006001600160a01b0316632e1a7d4d836001855103815181106111cf57fe5b60200260200101516040518263ffffffff1660e01b815260040180828152602001915050600060405180830381600087803b15801561120d57600080fd5b505af1158015611221573d6000803e3d6000fd5b50505050611246848360018551038151811061123957fe5b60200260200101516134c5565b509695505050505050565b606061127e7f00000000000000000000000000000000000000000000000000000000000000008484613bf8565b90505b92915050565b60008060006112b77f00000000000000000000000000000000000000000000000000000000000000008f8f6137e7565b90506000876112c6578c6112ca565b6000195b6040805163d505accf60e01b815233600482015230602482015260448101839052606481018c905260ff8a16608482015260a4810189905260c4810188905290519192506001600160a01b0384169163d505accf9160e48082019260009290919082900301818387803b15801561134057600080fd5b505af1158015611354573d6000803e3d6000fd5b505050506113678f8f8f8f8f8f8f6127b0565b809450819550505050509b509b9950505050505050505050565b606081428110156113c7576040805162461bcd60e51b81526020600482015260136024820152600080516020614b07833981519152604482015290519081900360640190fd5b6114257f00000000000000000000000000000000000000000000000000000000000000008988888080602002602001604051908101604052809392919081815260200183836020028082843760009201919091525061369b92505050565b9150868260018451038151811061143857fe5b6020026020010151101561147d5760405162461bcd60e51b8152600401808060200182810382526026815260200180614b276026913960400191505060405180910390fd5b61148d868660008181106110c357fe5b6112468287878080602002602001604051908101604052809392919081815260200183836020028082843760009201919091525089925061391b915050565b60608142811015611512576040805162461bcd60e51b81526020600482015260136024820152600080516020614b07833981519152604482015290519081900360640190fd5b6001600160a01b037f0000000000000000000000000000000000000000000000000000000000000000168686600019810181811061154c57fe5b905060200201356001600160a01b03166001600160a01b0316146115a5576040805162461bcd60e51b81526020600482015260186024820152600080516020614b77833981519152604482015290519081900360640190fd5b6116037f000000000000000000000000000000000000000000000000000000000000000089888880806020026020016040519081016040528093929190818152602001838360200280828437600092019190915250613bf892505050565b9150868260008151811061161357fe5b602002602001015111156110b35760405162461bcd60e51b8152600401808060200182810382526022815260200180614bdb6022913960400191505060405180910390fd5b6002546001600160a01b031681565b61166f613d30565b6001600160a01b0316611680612279565b6001600160a01b0316146116db576040805162461bcd60e51b815260206004820181905260248201527f4f776e61626c653a2063616c6c6572206973206e6f7420746865206f776e6572604482015290519081900360640190fd5b600280546001600160a01b0319166001600160a01b0392909216919091179055565b60008061174b7f00000000000000000000000000000000000000000000000000000000000000008d7f00000000000000000000000000000000000000000000000000000000000000006137e7565b905060008661175a578b61175e565b6000195b6040805163d505accf60e01b815233600482015230602482015260448101839052606481018b905260ff8916608482015260a4810188905260c4810187905290519192506001600160a01b0384169163d505accf9160e48082019260009290919082900301818387803b1580156117d457600080fd5b505af11580156117e8573d6000803e3d6000fd5b505050506117fa8d8d8d8d8d8d6122b9565b9d9c50505050505050505050505050565b804281101561184f576040805162461bcd60e51b81526020600482015260136024820152600080516020614b07833981519152604482015290519081900360640190fd5b6118c48585600081811061185f57fe5b905060200201356001600160a01b0316336118be7f0000000000000000000000000000000000000000000000000000000000000000898960008181106118a157fe5b905060200201356001600160a01b03168a8a600181811061112257fe5b8a613909565b6000858560001981018181106118d657fe5b905060200201356001600160a01b03166001600160a01b03166370a08231856040518263ffffffff1660e01b815260040180826001600160a01b0316815260200191505060206040518083038186803b15801561193257600080fd5b505afa158015611946573d6000803e3d6000fd5b505050506040513d602081101561195c57600080fd5b5051604080516020888102828101820190935288825292935061199e929091899189918291850190849080828437600092019190915250889250613d34915050565b86611a4182888860001981018181106119b357fe5b905060200201356001600160a01b03166001600160a01b03166370a08231886040518263ffffffff1660e01b815260040180826001600160a01b0316815260200191505060206040518083038186803b158015611a0f57600080fd5b505afa158015611a23573d6000803e3d6000fd5b505050506040513d6020811015611a3957600080fd5b5051906140db565b1015611a7e5760405162461bcd60e51b8152600401808060200182810382526026815260200180614b276026913960400191505060405180910390fd5b5050505050505050565b611a90613d30565b6001600160a01b0316611aa1612279565b6001600160a01b031614611afc576040805162461bcd60e51b815260206004820181905260248201527f4f776e61626c653a2063616c6c6572206973206e6f7420746865206f776e6572604482015290519081900360640190fd5b600080546040516001600160a01b03909116907f8be0079c531659141344cd1fd0a4f28419497f9722a3daafe3b4186f6b6457e0908390a3600080546001600160a01b03191690556001546001600160a01b031615611b9e576001546040516000916001600160a01b0316907f4465959e7ec1f32e3ebd831ac2459ad6ef4b1d54a83f108a7068e69e62f0702f908390a3600180546001600160a01b03191690555b565b8042811015611be4576040805162461bcd60e51b81526020600482015260136024820152600080516020614b07833981519152604482015290519081900360640190fd5b6001600160a01b037f00000000000000000000000000000000000000000000000000000000000000001685856000198101818110611c1e57fe5b905060200201356001600160a01b03166001600160a01b031614611c77576040805162461bcd60e51b81526020600482015260186024820152600080516020614b77833981519152604482015290519081900360640190fd5b611c878585600081811061185f57fe5b611cc5858580806020026020016040519081016040528093929190818152602001838360200280828437600092019190915250309250613d34915050565b60007f00000000000000000000000000000000000000000000000000000000000000006001600160a01b03166370a08231306040518263ffffffff1660e01b815260040180826001600160a01b0316815260200191505060206040518083038186803b158015611d3457600080fd5b505afa158015611d48573d6000803e3d6000fd5b505050506040513d6020811015611d5e57600080fd5b5051905086811015611da15760405162461bcd60e51b8152600401808060200182810382526026815260200180614b276026913960400191505060405180910390fd5b7f00000000000000000000000000000000000000000000000000000000000000006001600160a01b0316632e1a7d4d826040518263ffffffff1660e01b815260040180828152602001915050600060405180830381600087803b158015611e0757600080fd5b505af1158015611e1b573d6000803e3d6000fd5b50505050611a7e84826134c5565b60608142811015611e6f576040805162461bcd60e51b81526020600482015260136024820152600080516020614b07833981519152604482015290519081900360640190fd5b7f00000000000000000000000000000000000000000000000000000000000000006001600160a01b031686866000818110611ea657fe5b905060200201356001600160a01b03166001600160a01b031614611eff576040805162461bcd60e51b81526020600482015260186024820152600080516020614b77833981519152604482015290519081900360640190fd5b611f5d7f00000000000000000000000000000000000000000000000000000000000000003488888080602002602001604051908101604052809392919081815260200183836020028082843760009201919091525061369b92505050565b91508682600184510381518110611f7057fe5b60200260200101511015611fb55760405162461bcd60e51b8152600401808060200182810382526026815260200180614b276026913960400191505060405180910390fd5b7f00000000000000000000000000000000000000000000000000000000000000006001600160a01b031663d0e30db083600081518110611ff157fe5b60200260200101516040518263ffffffff1660e01b81526004016000604051808303818588803b15801561202457600080fd5b505af1158015612038573d6000803e3d6000fd5b50505050507f00000000000000000000000000000000000000000000000000000000000000006001600160a01b031663a9059cbb61209d7f0000000000000000000000000000000000000000000000000000000000000000898960008181106118a157fe5b846000815181106120aa57fe5b60200260200101516040518363ffffffff1660e01b815260040180836001600160a01b0316815260200182815260200192505050602060405180830381600087803b1580156120f857600080fd5b505af115801561210c573d6000803e3d6000fd5b505050506040513d602081101561212257600080fd5b505161212a57fe5b6121698287878080602002602001604051908101604052809392919081815260200183836020028082843760009201919091525089925061391b915050565b5095945050505050565b6000610f1a848484614138565b606081428110156121c6576040805162461bcd60e51b81526020600482015260136024820152600080516020614b07833981519152604482015290519081900360640190fd5b6122247f000000000000000000000000000000000000000000000000000000000000000089888880806020026020016040519081016040528093929190818152602001838360200280828437600092019190915250613bf892505050565b9150868260008151811061223457fe5b6020026020010151111561147d5760405162461bcd60e51b8152600401808060200182810382526022815260200180614bdb6022913960400191505060405180910390fd5b6000546001600160a01b031690565b7f000000000000000000000000000000000000000000000000000000000000000081565b6000610f1a84848461421a565b600081428110156122ff576040805162461bcd60e51b81526020600482015260136024820152600080516020614b07833981519152604482015290519081900360640190fd5b61232e887f000000000000000000000000000000000000000000000000000000000000000089898930896127b0565b9050809250506123b788858a6001600160a01b03166370a08231306040518263ffffffff1660e01b815260040180826001600160a01b0316815260200191505060206040518083038186803b15801561238657600080fd5b505afa15801561239a573d6000803e3d6000fd5b505050506040513d60208110156123b057600080fd5b50516134b5565b7f00000000000000000000000000000000000000000000000000000000000000006001600160a01b0316632e1a7d4d836040518263ffffffff1660e01b815260040180828152602001915050600060405180830381600087803b15801561241d57600080fd5b505af1158015612431573d6000803e3d6000fd5b5050505061124684836134c5565b8042811015612483576040805162461bcd60e51b81526020600482015260136024820152600080516020614b07833981519152604482015290519081900360640190fd5b7f00000000000000000000000000000000000000000000000000000000000000006001600160a01b0316858560008181106124ba57fe5b905060200201356001600160a01b03166001600160a01b031614612513576040805162461bcd60e51b81526020600482015260186024820152600080516020614b77833981519152604482015290519081900360640190fd5b60003490507f00000000000000000000000000000000000000000000000000000000000000006001600160a01b031663d0e30db0826040518263ffffffff1660e01b81526004016000604051808303818588803b15801561257357600080fd5b505af1158015612587573d6000803e3d6000fd5b50505050507f00000000000000000000000000000000000000000000000000000000000000006001600160a01b031663a9059cbb6125ec7f0000000000000000000000000000000000000000000000000000000000000000898960008181106118a157fe5b836040518363ffffffff1660e01b815260040180836001600160a01b0316815260200182815260200192505050602060405180830381600087803b15801561263357600080fd5b505af1158015612647573d6000803e3d6000fd5b505050506040513d602081101561265d57600080fd5b505161266557fe5b60008686600019810181811061267757fe5b905060200201356001600160a01b03166001600160a01b03166370a08231866040518263ffffffff1660e01b815260040180826001600160a01b0316815260200191505060206040518083038186803b1580156126d357600080fd5b505afa1580156126e7573d6000803e3d6000fd5b505050506040513d60208110156126fd57600080fd5b5051604080516020898102828101820190935289825292935061273f9290918a918a918291850190849080828437600092019190915250899250613d34915050565b87611a41828989600019810181811061275457fe5b905060200201356001600160a01b03166001600160a01b03166370a08231896040518263ffffffff1660e01b815260040180826001600160a01b0316815260200191505060206040518083038186803b158015611a0f57600080fd5b60008082428110156127f7576040805162461bcd60e51b81526020600482015260136024820152600080516020614b07833981519152604482015290519081900360640190fd5b60006128247f00000000000000000000000000000000000000000000000000000000000000008c8c6137e7565b604080516323b872dd60e01b81523360048201526001600160a01b03831660248201819052604482018d9052915192935090916323b872dd916064808201926020929091908290030181600087803b15801561287f57600080fd5b505af1158015612893573d6000803e3d6000fd5b505050506040513d60208110156128a957600080fd5b50506040805163226bf2d160e21b81526001600160a01b03888116600483015282516000938493928616926389afcb44926024808301939282900301818787803b1580156128f657600080fd5b505af115801561290a573d6000803e3d6000fd5b505050506040513d604081101561292057600080fd5b5080516020909101519092509050600061293a8e8e6142c0565b509050806001600160a01b03168e6001600160a01b03161461295d578183612960565b82825b90975095508a8710156129a45760405162461bcd60e51b8152600401808060200182810382526021815260200180614c1e6021913960400191505060405180910390fd5b898610156129e35760405162461bcd60e51b8152600401808060200182810382526021815260200180614b976021913960400191505060405180910390fd5b505050505097509795505050505050565b6129fc613d30565b6001600160a01b0316612a0d612279565b6001600160a01b031614612a68576040805162461bcd60e51b815260206004820181905260248201527f4f776e61626c653a2063616c6c6572206973206e6f7420746865206f776e6572604482015290519081900360640190fd5b6001600160a01b038116612aad5760405162461bcd60e51b8152600401808060200182810382526029815260200180614cfc6029913960400191505060405180910390fd5b6001546040516001600160a01b038084169216907f4465959e7ec1f32e3ebd831ac2459ad6ef4b1d54a83f108a7068e69e62f0702f90600090a3600180546001600160a01b0319166001600160a01b0392909216919091179055565b7f000000000000000000000000000000000000000000000000000000000000000081565b606061127e7f0000000000000000000000000000000000000000000000000000000000000000848461369b565b6000806000612baa7f00000000000000000000000000000000000000000000000000000000000000008e7f00000000000000000000000000000000000000000000000000000000000000006137e7565b9050600087612bb9578c612bbd565b6000195b6040805163d505accf60e01b815233600482015230602482015260448101839052606481018c905260ff8a16608482015260a4810189905260c4810188905290519192506001600160a01b0384169163d505accf9160e48082019260009290919082900301818387803b158015612c3357600080fd5b505af1158015612c47573d6000803e3d6000fd5b50505050612c598e8e8e8e8e8e610df3565b909f909e509c50505050505050505050505050565b6001546001600160a01b031690565b60008060008342811015612cc6576040805162461bcd60e51b81526020600482015260136024820152600080516020614b07833981519152604482015290519081900360640190fd5b612cd48c8c8c8c8c8c61439e565b90945092506000612d067f00000000000000000000000000000000000000000000000000000000000000008e8e6137e7565b9050612d148d338388613909565b612d208c338387613909565b806001600160a01b0316636a627842886040518263ffffffff1660e01b815260040180826001600160a01b03168152602001915050602060405180830381600087803b158015612d6f57600080fd5b505af1158015612d83573d6000803e3d6000fd5b505050506040513d6020811015612d9957600080fd5b5051949d939c50939a509198505050505050505050565b612db8613d30565b6001600160a01b0316612dc9612c6e565b6001600160a01b031614612e0e5760405162461bcd60e51b8152600401808060200182810382526027815260200180614c3f6027913960400191505060405180910390fd5b600154600080546040516001600160a01b0393841693909116917f8be0079c531659141344cd1fd0a4f28419497f9722a3daafe3b4186f6b6457e091a3600154600080546001600160a01b0319166001600160a01b0390921691821781556040519091907f4465959e7ec1f32e3ebd831ac2459ad6ef4b1d54a83f108a7068e69e62f0702f908390a3600180546001600160a01b0319169055565b60008060008342811015612ef2576040805162461bcd60e51b81526020600482015260136024820152600080516020614b07833981519152604482015290519081900360640190fd5b612f208a7f00000000000000000000000000000000000000000000000000000000000000008b348c8c61439e565b90945092506000612f727f00000000000000000000000000000000000000000000000000000000000000008c7f00000000000000000000000000000000000000000000000000000000000000006137e7565b9050612f808b338388613909565b7f00000000000000000000000000000000000000000000000000000000000000006001600160a01b031663d0e30db0856040518263ffffffff1660e01b81526004016000604051808303818588803b158015612fdb57600080fd5b505af1158015612fef573d6000803e3d6000fd5b50505050507f00000000000000000000000000000000000000000000000000000000000000006001600160a01b031663a9059cbb82866040518363ffffffff1660e01b815260040180836001600160a01b0316815260200182815260200192505050602060405180830381600087803b15801561306b57600080fd5b505af115801561307f573d6000803e3d6000fd5b505050506040513d602081101561309557600080fd5b505161309d57fe5b806001600160a01b0316636a627842886040518263ffffffff1660e01b815260040180826001600160a01b03168152602001915050602060405180830381600087803b1580156130ec57600080fd5b505af1158015613100573d6000803e3d6000fd5b505050506040513d602081101561311657600080fd5b505192503484101561312e5761312e338534036134c5565b505096509650969350505050565b60608142811015613182576040805162461bcd60e51b81526020600482015260136024820152600080516020614b07833981519152604482015290519081900360640190fd5b7f00000000000000000000000000000000000000000000000000000000000000006001600160a01b0316868660008181106131b957fe5b905060200201356001600160a01b03166001600160a01b031614613212576040805162461bcd60e51b81526020600482015260186024820152600080516020614b77833981519152604482015290519081900360640190fd5b6132707f000000000000000000000000000000000000000000000000000000000000000088888880806020026020016040519081016040528093929190818152602001838360200280828437600092019190915250613bf892505050565b9150348260008151811061328057fe5b602002602001015111156132c55760405162461bcd60e51b8152600401808060200182810382526022815260200180614bdb6022913960400191505060405180910390fd5b7f00000000000000000000000000000000000000000000000000000000000000006001600160a01b031663d0e30db08360008151811061330157fe5b60200260200101516040518263ffffffff1660e01b81526004016000604051808303818588803b15801561333457600080fd5b505af1158015613348573d6000803e3d6000fd5b50505050507f00000000000000000000000000000000000000000000000000000000000000006001600160a01b031663a9059cbb6133ad7f0000000000000000000000000000000000000000000000000000000000000000898960008181106118a157fe5b846000815181106133ba57fe5b60200260200101516040518363ffffffff1660e01b815260040180836001600160a01b0316815260200182815260200192505050602060405180830381600087803b15801561340857600080fd5b505af115801561341c573d6000803e3d6000fd5b505050506040513d602081101561343257600080fd5b505161343a57fe5b6134798287878080602002602001604051908101604052809392919081815260200183836020028082843760009201919091525089925061391b915050565b8160008151811061348657fe5b60200260200101513411156121695761216933836000815181106134a657fe5b602002602001015134036134c5565b6134c083838361462f565b505050565b604080516000808252602082019092526001600160a01b0384169083906040518082805190602001908083835b602083106135115780518252601f1990920191602091820191016134f2565b6001836020036101000a03801982511681845116808217855250505050505090500191505060006040518083038185875af1925050503d8060008114613573576040519150601f19603f3d011682016040523d82523d6000602084013e613578565b606091505b50509050806134c05760405162461bcd60e51b8152600401808060200182810382526023815260200180614c896023913960400191505060405180910390fd5b60008084116135f85760405162461bcd60e51b8152600401808060200182810382526029815260200180614ade6029913960400191505060405180910390fd5b6000831180156136085750600082115b6136435760405162461bcd60e51b8152600401808060200182810382526026815260200180614cd66026913960400191505060405180910390fd5b600061365c6136556103e860036140db565b8690614681565b9050600061366a8285614681565b905060006136848361367e886103e8614681565b906146da565b905080828161368f57fe5b04979650505050505050565b60606002825110156136f4576040805162461bcd60e51b815260206004820152601c60248201527f50616e63616b654c6962726172793a20494e56414c49445f5041544800000000604482015290519081900360640190fd5b815167ffffffffffffffff8111801561370c57600080fd5b50604051908082528060200260200182016040528015613736578160200160208202803683370190505b509050828160008151811061374757fe5b60200260200101818152505060005b60018351038110156137df576000806137998786858151811061377557fe5b602002602001015187866001018151811061378c57fe5b6020026020010151614734565b915091506137bb8484815181106137ac57fe5b602002602001015183836135b8565b8484600101815181106137ca57fe5b60209081029190910101525050600101613756565b509392505050565b60008060006137f685856142c0565b9150915085828260405160200180836001600160a01b031660601b8152601401826001600160a01b031660601b81526014019250505060405160208183030381529060405280519060200120876001600160a01b0316635855a25a6040518163ffffffff1660e01b815260040160206040518083038186803b15801561387b57600080fd5b505afa15801561388f573d6000803e3d6000fd5b505050506040513d60208110156138a557600080fd5b5051604080516001600160f81b031960208083019190915260609590951b6bffffffffffffffffffffffff19166021820152603581019390935260558084019290925280518084039092018252607590920190915280519101209695505050505050565b61391584848484614807565b50505050565b60005b60018351038110156139155760008084838151811061393957fe5b602002602001015185846001018151811061395057fe5b602002602001015191509150600061396883836142c0565b509050600087856001018151811061397c57fe5b60209081029190910101516002549091506001600160a01b031615613a2c576002546040805163152cf14360e31b81523360048201526001600160a01b0387811660248301528681166044830152606482018590529151919092169163a9678a189160848083019260209291908290030181600087803b1580156139ff57600080fd5b505af1158015613a13573d6000803e3d6000fd5b505050506040513d6020811015613a2957600080fd5b50505b600080836001600160a01b0316866001600160a01b031614613a5057826000613a54565b6000835b91509150600060028a51038810613a6b5788613aac565b613aac7f0000000000000000000000000000000000000000000000000000000000000000878c8b60020181518110613a9f57fe5b60200260200101516137e7565b9050613ad97f000000000000000000000000000000000000000000000000000000000000000088886137e7565b6001600160a01b031663022c0d9f84848460006040519080825280601f01601f191660200182016040528015613b16576020820181803683370190505b506040518563ffffffff1660e01b815260040180858152602001848152602001836001600160a01b0316815260200180602001828103825283818151815260200191508051906020019080838360005b83811015613b7e578181015183820152602001613b66565b50505050905090810190601f168015613bab5780820380516001836020036101000a031916815260200191505b5095505050505050600060405180830381600087803b158015613bcd57600080fd5b505af1158015613be1573d6000803e3d6000fd5b50506001909901985061391e975050505050505050565b6060600282511015613c51576040805162461bcd60e51b815260206004820152601c60248201527f50616e63616b654c6962726172793a20494e56414c49445f5041544800000000604482015290519081900360640190fd5b815167ffffffffffffffff81118015613c6957600080fd5b50604051908082528060200260200182016040528015613c93578160200160208202803683370190505b5090508281600183510381518110613ca757fe5b60209081029190910101528151600019015b80156137df57600080613ce987866001860381518110613cd557fe5b602002602001015187868151811061378c57fe5b91509150613d0b848481518110613cfc57fe5b60200260200101518383614138565b846001850381518110613d1a57fe5b6020908102919091010152505060001901613cb9565b3390565b60005b60018351038110156134c057600080848381518110613d5257fe5b6020026020010151858460010181518110613d6957fe5b6020026020010151915091506000613d8183836142c0565b5090506000613db17f000000000000000000000000000000000000000000000000000000000000000085856137e7565b9050600080600080846001600160a01b0316630902f1ac6040518163ffffffff1660e01b815260040160606040518083038186803b158015613df257600080fd5b505afa158015613e06573d6000803e3d6000fd5b505050506040513d6060811015613e1c57600080fd5b5080516020909101516001600160701b0391821693501690506000806001600160a01b038a811690891614613e52578284613e55565b83835b91509150613eaa828b6001600160a01b03166370a082318a6040518263ffffffff1660e01b815260040180826001600160a01b0316815260200191505060206040518083038186803b158015611a0f57600080fd5b9550613eb78683836135b8565b6002549095506001600160a01b0316159350613f6292505050576002546040805163152cf14360e31b81523360048201526001600160a01b0389811660248301528881166044830152606482018590529151919092169163a9678a189160848083019260209291908290030181600087803b158015613f3557600080fd5b505af1158015613f49573d6000803e3d6000fd5b505050506040513d6020811015613f5f57600080fd5b50505b600080856001600160a01b0316886001600160a01b031614613f8657826000613f8a565b6000835b91509150600060028c51038a10613fa1578a613fd5565b613fd57f0000000000000000000000000000000000000000000000000000000000000000898e8d60020181518110613a9f57fe5b604080516000808252602082019283905263022c0d9f60e01b835260248201878152604483018790526001600160a01b038086166064850152608060848501908152845160a48601819052969750908c169563022c0d9f958a958a958a9591949193919260c486019290918190849084905b8381101561405f578181015183820152602001614047565b50505050905090810190601f16801561408c5780820380516001836020036101000a031916815260200191505b5095505050505050600060405180830381600087803b1580156140ae57600080fd5b505af11580156140c2573d6000803e3d6000fd5b50506001909b019a50613d379950505050505050505050565b600082821115614132576040805162461bcd60e51b815260206004820152601e60248201527f536166654d6174683a207375627472616374696f6e206f766572666c6f770000604482015290519081900360640190fd5b50900390565b60008084116141785760405162461bcd60e51b815260040180806020018281038252602a815260200180614b4d602a913960400191505060405180910390fd5b6000831180156141885750600082115b6141c35760405162461bcd60e51b8152600401808060200182810382526026815260200180614cd66026913960400191505060405180910390fd5b60006141db6103e86141d58688614681565b90614681565b905060006141f96141ef6103e860036140db565b6141d586896140db565b9050614210600182848161420957fe5b04906146da565b9695505050505050565b600080841161425a5760405162461bcd60e51b8152600401808060200182810382526023815260200180614c666023913960400191505060405180910390fd5b60008311801561426a5750600082115b6142a55760405162461bcd60e51b8152600401808060200182810382526026815260200180614cd66026913960400191505060405180910390fd5b826142b08584614681565b816142b757fe5b04949350505050565b600080826001600160a01b0316846001600160a01b031614156143145760405162461bcd60e51b8152600401808060200182810382526023815260200180614bb86023913960400191505060405180910390fd5b826001600160a01b0316846001600160a01b031610614334578284614337565b83835b90925090506001600160a01b038216614397576040805162461bcd60e51b815260206004820152601c60248201527f50616e63616b654c6962726172793a205a45524f5f4144445245535300000000604482015290519081900360640190fd5b9250929050565b60008060006001600160a01b03167f00000000000000000000000000000000000000000000000000000000000000006001600160a01b031663e6a439058a8a6040518363ffffffff1660e01b815260040180836001600160a01b03168152602001826001600160a01b031681526020019250505060206040518083038186803b15801561442a57600080fd5b505afa15801561443e573d6000803e3d6000fd5b505050506040513d602081101561445457600080fd5b50516001600160a01b03161415614512577f00000000000000000000000000000000000000000000000000000000000000006001600160a01b031663c9c6539689896040518363ffffffff1660e01b815260040180836001600160a01b03168152602001826001600160a01b0316815260200192505050602060405180830381600087803b1580156144e557600080fd5b505af11580156144f9573d6000803e3d6000fd5b505050506040513d602081101561450f57600080fd5b50505b6000806145407f00000000000000000000000000000000000000000000000000000000000000008b8b614734565b91509150816000148015614552575080155b1561456257879350869250614622565b600061456f89848461421a565b90508781116145c257858110156145b75760405162461bcd60e51b8152600401808060200182810382526021815260200180614b976021913960400191505060405180910390fd5b889450925082614620565b60006145cf89848661421a565b9050898111156145db57fe5b8781101561461a5760405162461bcd60e51b8152600401808060200182810382526021815260200180614c1e6021913960400191505060405180910390fd5b94508793505b505b5050965096945050505050565b604080516001600160a01b038416602482015260448082018490528251808303909101815260649091019091526020810180516001600160e01b031663a9059cbb60e01b1790526134c090849061485d565b60008261469057506000611281565b8282028284828161469d57fe5b041461127e5760405162461bcd60e51b8152600401808060200182810382526021815260200180614bfd6021913960400191505060405180910390fd5b60008282018381101561127e576040805162461bcd60e51b815260206004820152601b60248201527f536166654d6174683a206164646974696f6e206f766572666c6f770000000000604482015290519081900360640190fd5b600080600061474385856142c0565b5090506147518686866137e7565b506000806147608888886137e7565b6001600160a01b0316630902f1ac6040518163ffffffff1660e01b815260040160606040518083038186803b15801561479857600080fd5b505afa1580156147ac573d6000803e3d6000fd5b505050506040513d60608110156147c257600080fd5b5080516020909101516001600160701b0391821693501690506001600160a01b03878116908416146147f55780826147f8565b81815b90999098509650505050505050565b604080516001600160a01b0380861660248301528416604482015260648082018490528251808303909101815260849091019091526020810180516001600160e01b03166323b872dd60e01b1790526139159085905b60006148b2826040518060400160405280602081526020017f5361666545524332303a206c6f772d6c6576656c2063616c6c206661696c6564815250856001600160a01b031661490e9092919063ffffffff16565b8051909150156134c0578080602001905160208110156148d157600080fd5b50516134c05760405162461bcd60e51b815260040180806020018281038252602a815260200180614cac602a913960400191505060405180910390fd5b6060610f1a84846000858561492285614a33565b614973576040805162461bcd60e51b815260206004820152601d60248201527f416464726573733a2063616c6c20746f206e6f6e2d636f6e7472616374000000604482015290519081900360640190fd5b600080866001600160a01b031685876040518082805190602001908083835b602083106149b15780518252601f199092019160209182019101614992565b6001836020036101000a03801982511681845116808217855250505050505090500191505060006040518083038185875af1925050503d8060008114614a13576040519150601f19603f3d011682016040523d82523d6000602084013e614a18565b606091505b5091509150614a28828286614a39565b979650505050505050565b3b151590565b60608315614a48575081610f1d565b825115614a585782518084602001fd5b8160405162461bcd60e51b81526004018080602001828103825283818151815260200191508051906020019080838360005b83811015614aa2578181015183820152602001614a8a565b50505050905090810190601f168015614acf5780820380516001836020036101000a031916815260200191505b509250505060405180910390fdfe50616e63616b654c6962726172793a20494e53554646494349454e545f494e5055545f414d4f554e5447494258526f757465723a20455850495245440000000000000000000000000047494258526f757465723a20494e53554646494349454e545f4f55545055545f414d4f554e5450616e63616b654c6962726172793a20494e53554646494349454e545f4f55545055545f414d4f554e5447494258526f757465723a20494e56414c49445f50415448000000000000000047494258526f757465723a20494e53554646494349454e545f425f414d4f554e5450616e63616b654c6962726172793a204944454e544943414c5f41444452455353455347494258526f757465723a204558434553534956455f494e5055545f414d4f554e54536166654d6174683a206d756c7469706c69636174696f6e206f766572666c6f7747494258526f757465723a20494e53554646494349454e545f415f414d4f554e544f776e61626c653a2063616c6c6572206973206e6f74207468652070656e64696e674f776e657250616e63616b654c6962726172793a20494e53554646494349454e545f414d4f554e545472616e7366657248656c7065723a204554485f5452414e534645525f4641494c45445361666545524332303a204552433230206f7065726174696f6e20646964206e6f74207375636365656450616e63616b654c6962726172793a20494e53554646494349454e545f4c49515549444954594f776e61626c653a2070656e64696e674f776e657220697320746865207a65726f2061646472657373a2646970667358221220302d6d6cd0b5ae3c4395c2e1d7e91f723d35990f63b7086a18a71d4eb3a1fa2764736f6c63430007060033",
  "devdoc": {
    "kind": "dev",
    "methods": {},
    "version": 1
  },
  "userdoc": {
    "kind": "user",
    "methods": {},
    "version": 1
  },
  "storageLayout": {
    "storage": [
      {
        "astId": 2335,
        "contract": "contracts/swap/GIBXRouter.sol:GIBXRouter",
        "label": "_owner",
        "offset": 0,
        "slot": "0",
        "type": "t_address"
      },
      {
        "astId": 2337,
        "contract": "contracts/swap/GIBXRouter.sol:GIBXRouter",
        "label": "_pendingOwner",
        "offset": 0,
        "slot": "1",
        "type": "t_address"
      },
      {
        "astId": 9128,
        "contract": "contracts/swap/GIBXRouter.sol:GIBXRouter",
        "label": "swapMining",
        "offset": 0,
        "slot": "2",
        "type": "t_address"
      }
    ],
    "types": {
      "t_address": {
        "encoding": "inplace",
        "label": "address",
        "numberOfBytes": "20"
      }
    }
  }
}