{
  "address": "0xFeC95dc89BaF31DdEEBb9b0E413e13701D0D44C4",
  "abi": [
    {
      "inputs": [
        {
          "internalType": "contract GIBXToken",
          "name": "_fly",
          "type": "address"
        },
        {
          "internalType": "uint256",
          "name": "_flyPerBlock",
          "type": "uint256"
        },
        {
          "internalType": "uint256",
          "name": "_startBlock",
          "type": "uint256"
        }
      ],
      "stateMutability": "nonpayable",
      "type": "constructor"
    },
    {
      "anonymous": false,
      "inputs": [
        {
          "indexed": true,
          "internalType": "address",
          "name": "previousPendingOwner",
          "type": "address"
        },
        {
          "indexed": true,
          "internalType": "address",
          "name": "newPendingOwner",
          "type": "address"
        }
      ],
      "name": "ChangePendingOwner",
      "type": "event"
    },
    {
      "anonymous": false,
      "inputs": [
        {
          "indexed": true,
          "internalType": "address",
          "name": "user",
          "type": "address"
        },
        {
          "indexed": true,
          "internalType": "uint256",
          "name": "pid",
          "type": "uint256"
        },
        {
          "indexed": false,
          "internalType": "uint256",
          "name": "amount",
          "type": "uint256"
        }
      ],
      "name": "Deposit",
      "type": "event"
    },
    {
      "anonymous": false,
      "inputs": [
        {
          "indexed": true,
          "internalType": "address",
          "name": "user",
          "type": "address"
        },
        {
          "indexed": true,
          "internalType": "uint256",
          "name": "pid",
          "type": "uint256"
        },
        {
          "indexed": false,
          "internalType": "uint256",
          "name": "amount",
          "type": "uint256"
        }
      ],
      "name": "EmergencyWithdraw",
      "type": "event"
    },
    {
      "anonymous": false,
      "inputs": [
        {
          "indexed": true,
          "internalType": "address",
          "name": "previousOwner",
          "type": "address"
        },
        {
          "indexed": true,
          "internalType": "address",
          "name": "newOwner",
          "type": "address"
        }
      ],
      "name": "OwnershipTransferred",
      "type": "event"
    },
    {
      "anonymous": false,
      "inputs": [
        {
          "indexed": true,
          "internalType": "address",
          "name": "user",
          "type": "address"
        },
        {
          "indexed": true,
          "internalType": "uint256",
          "name": "pid",
          "type": "uint256"
        },
        {
          "indexed": false,
          "internalType": "uint256",
          "name": "amount",
          "type": "uint256"
        }
      ],
      "name": "Withdraw",
      "type": "event"
    },
    {
      "inputs": [],
      "name": "BONUS_MULTIPLIER",
      "outputs": [
        {
          "internalType": "uint256",
          "name": "",
          "type": "uint256"
        }
      ],
      "stateMutability": "view",
      "type": "function"
    },
    {
      "inputs": [],
      "name": "acceptOwner",
      "outputs": [],
      "stateMutability": "nonpayable",
      "type": "function"
    },
    {
      "inputs": [
        {
          "internalType": "uint256",
          "name": "_allocPoint",
          "type": "uint256"
        },
        {
          "internalType": "contract IERC20",
          "name": "_lpToken",
          "type": "address"
        },
        {
          "internalType": "bool",
          "name": "_withUpdate",
          "type": "bool"
        }
      ],
      "name": "add",
      "outputs": [],
      "stateMutability": "nonpayable",
      "type": "function"
    },
    {
      "inputs": [
        {
          "internalType": "uint256",
          "name": "_pid",
          "type": "uint256"
        },
        {
          "internalType": "uint256",
          "name": "_amount",
          "type": "uint256"
        }
      ],
      "name": "deposit",
      "outputs": [],
      "stateMutability": "nonpayable",
      "type": "function"
    },
    {
      "inputs": [
        {
          "internalType": "uint256",
          "name": "_pid",
          "type": "uint256"
        }
      ],
      "name": "emergencyWithdraw",
      "outputs": [],
      "stateMutability": "nonpayable",
      "type": "function"
    },
    {
      "inputs": [
        {
          "internalType": "address",
          "name": "",
          "type": "address"
        }
      ],
      "name": "existsLP",
      "outputs": [
        {
          "internalType": "bool",
          "name": "",
          "type": "bool"
        }
      ],
      "stateMutability": "view",
      "type": "function"
    },
    {
      "inputs": [],
      "name": "fly",
      "outputs": [
        {
          "internalType": "contract GIBXToken",
          "name": "",
          "type": "address"
        }
      ],
      "stateMutability": "view",
      "type": "function"
    },
    {
      "inputs": [],
      "name": "flyPerBlock",
      "outputs": [
        {
          "internalType": "uint256",
          "name": "",
          "type": "uint256"
        }
      ],
      "stateMutability": "view",
      "type": "function"
    },
    {
      "inputs": [
        {
          "internalType": "uint256",
          "name": "_from",
          "type": "uint256"
        },
        {
          "internalType": "uint256",
          "name": "_to",
          "type": "uint256"
        }
      ],
      "name": "getMultiplier",
      "outputs": [
        {
          "internalType": "uint256",
          "name": "",
          "type": "uint256"
        }
      ],
      "stateMutability": "view",
      "type": "function"
    },
    {
      "inputs": [],
      "name": "massUpdatePools",
      "outputs": [],
      "stateMutability": "nonpayable",
      "type": "function"
    },
    {
      "inputs": [],
      "name": "owner",
      "outputs": [
        {
          "internalType": "address",
          "name": "",
          "type": "address"
        }
      ],
      "stateMutability": "view",
      "type": "function"
    },
    {
      "inputs": [
        {
          "internalType": "uint256",
          "name": "_pid",
          "type": "uint256"
        },
        {
          "internalType": "address",
          "name": "_user",
          "type": "address"
        }
      ],
      "name": "pendingGIBX",
      "outputs": [
        {
          "internalType": "uint256",
          "name": "",
          "type": "uint256"
        }
      ],
      "stateMutability": "view",
      "type": "function"
    },
    {
      "inputs": [],
      "name": "pendingOwner",
      "outputs": [
        {
          "internalType": "address",
          "name": "",
          "type": "address"
        }
      ],
      "stateMutability": "view",
      "type": "function"
    },
    {
      "inputs": [
        {
          "internalType": "address",
          "name": "",
          "type": "address"
        }
      ],
      "name": "pidOfLP",
      "outputs": [
        {
          "internalType": "uint256",
          "name": "",
          "type": "uint256"
        }
      ],
      "stateMutability": "view",
      "type": "function"
    },
    {
      "inputs": [
        {
          "internalType": "uint256",
          "name": "",
          "type": "uint256"
        }
      ],
      "name": "poolInfo",
      "outputs": [
        {
          "internalType": "contract IERC20",
          "name": "lpToken",
          "type": "address"
        },
        {
          "internalType": "uint256",
          "name": "allocPoint",
          "type": "uint256"
        },
        {
          "internalType": "uint256",
          "name": "lastRewardBlock",
          "type": "uint256"
        },
        {
          "internalType": "uint256",
          "name": "accGIBXPerShare",
          "type": "uint256"
        }
      ],
      "stateMutability": "view",
      "type": "function"
    },
    {
      "inputs": [],
      "name": "poolLength",
      "outputs": [
        {
          "internalType": "uint256",
          "name": "",
          "type": "uint256"
        }
      ],
      "stateMutability": "view",
      "type": "function"
    },
    {
      "inputs": [],
      "name": "renounceOwnership",
      "outputs": [],
      "stateMutability": "nonpayable",
      "type": "function"
    },
    {
      "inputs": [
        {
          "internalType": "uint256",
          "name": "_pid",
          "type": "uint256"
        },
        {
          "internalType": "uint256",
          "name": "_allocPoint",
          "type": "uint256"
        },
        {
          "internalType": "bool",
          "name": "_withUpdate",
          "type": "bool"
        }
      ],
      "name": "set",
      "outputs": [],
      "stateMutability": "nonpayable",
      "type": "function"
    },
    {
      "inputs": [
        {
          "internalType": "address",
          "name": "pendingOwner_",
          "type": "address"
        }
      ],
      "name": "setPendingOwner",
      "outputs": [],
      "stateMutability": "nonpayable",
      "type": "function"
    },
    {
      "inputs": [],
      "name": "startBlock",
      "outputs": [
        {
          "internalType": "uint256",
          "name": "",
          "type": "uint256"
        }
      ],
      "stateMutability": "view",
      "type": "function"
    },
    {
      "inputs": [],
      "name": "totalAllocPoint",
      "outputs": [
        {
          "internalType": "uint256",
          "name": "",
          "type": "uint256"
        }
      ],
      "stateMutability": "view",
      "type": "function"
    },
    {
      "inputs": [
        {
          "internalType": "uint256",
          "name": "_flyPerBlock",
          "type": "uint256"
        }
      ],
      "name": "updateGIBXPerBlock",
      "outputs": [],
      "stateMutability": "nonpayable",
      "type": "function"
    },
    {
      "inputs": [
        {
          "internalType": "uint256",
          "name": "multiplierNumber",
          "type": "uint256"
        }
      ],
      "name": "updateMultiplier",
      "outputs": [],
      "stateMutability": "nonpayable",
      "type": "function"
    },
    {
      "inputs": [
        {
          "internalType": "uint256",
          "name": "_pid",
          "type": "uint256"
        }
      ],
      "name": "updatePool",
      "outputs": [],
      "stateMutability": "nonpayable",
      "type": "function"
    },
    {
      "inputs": [
        {
          "internalType": "uint256",
          "name": "",
          "type": "uint256"
        },
        {
          "internalType": "address",
          "name": "",
          "type": "address"
        }
      ],
      "name": "userInfo",
      "outputs": [
        {
          "internalType": "uint256",
          "name": "amount",
          "type": "uint256"
        },
        {
          "internalType": "uint256",
          "name": "rewardDebt",
          "type": "uint256"
        }
      ],
      "stateMutability": "view",
      "type": "function"
    },
    {
      "inputs": [
        {
          "internalType": "uint256",
          "name": "_pid",
          "type": "uint256"
        },
        {
          "internalType": "uint256",
          "name": "_amount",
          "type": "uint256"
        }
      ],
      "name": "withdraw",
      "outputs": [],
      "stateMutability": "nonpayable",
      "type": "function"
    }
  ],
  "transactionHash": "0xdc1a370af6e8f3459c1ea32391d4cc3a0fc2416a2453e58f2cdd419dc9aca572",
  "args": [
    "0x0fCC29c11b6eBEDafde71e0Ea114Bd1edDf47d23",
    "8000000000000000000",
    10257087
  ],
  "solcInputHash": "d2da3992c7ce11c5ac8aac23ec92f50f",
  "bytecode": "0x6080604052600060095534801561001557600080fd5b506040516119dc3803806119dc8339818101604052606081101561003857600080fd5b508051602082015160409092015190919060006100536100ce565b600080546001600160a01b0319166001600160a01b0383169081178255604051929350917f8be0079c531659141344cd1fd0a4f28419497f9722a3daafe3b4186f6b6457e0908290a350600280546001600160a01b0319166001600160a01b039490941693909317909255600355600a5560016004556100d2565b3390565b6118fb806100e16000396000f3fe608060405234801561001057600080fd5b506004361061018e5760003560e01c8063630b5ba1116100de57806393f1a40b11610097578063e295025d11610071578063e295025d14610460578063e2bbb15814610468578063e30c39781461048b578063ebbc4965146104935761018e565b806393f1a40b146103cf578063be4218ee14610414578063c42069ec1461043a5761018e565b8063630b5ba11461036157806364482f7914610369578063715018a6146103945780638aa285501461039c5780638da5cb5b146103a45780638dbb1e3a146103ac5761018e565b8063441a3e701161014b57806351eb05a61161012557806351eb05a6146102d05780635312ea8e146102ed5780635ffe61461461030a578063610b0a5f146103275761018e565b8063441a3e701461027957806348cd4cb11461029c5780634d2e2aff146102a45761018e565b8063081e3eda146101935780631526fe27146101ad57806317caf6f1146101fa5780631b24d04e146102025780631eaaa045146102215780632c2e3abf14610255575b600080fd5b61019b61049b565b60408051918252519081900360200190f35b6101ca600480360360208110156101c357600080fd5b50356104a1565b604080516001600160a01b0390951685526020850193909352838301919091526060830152519081900360800190f35b61019b6104e5565b61021f6004803603602081101561021857600080fd5b50356104eb565b005b61021f6004803603606081101561023757600080fd5b508035906001600160a01b0360208201351690604001351515610552565b61025d6107b5565b604080516001600160a01b039092168252519081900360200190f35b61021f6004803603604081101561028f57600080fd5b50803590602001356107c4565b61019b610923565b61019b600480360360408110156102ba57600080fd5b50803590602001356001600160a01b0316610929565b61021f600480360360208110156102e657600080fd5b5035610a93565b61021f6004803603602081101561030357600080fd5b5035610c2c565b61021f6004803603602081101561032057600080fd5b5035610cc8565b61034d6004803603602081101561033d57600080fd5b50356001600160a01b0316610d2f565b604080519115158252519081900360200190f35b61021f610d44565b61021f6004803603606081101561037f57600080fd5b50803590602081013590604001351515610d67565b61021f610e4d565b61019b610f53565b61025d610f59565b61019b600480360360408110156103c257600080fd5b5080359060200135610f68565b6103fb600480360360408110156103e557600080fd5b50803590602001356001600160a01b0316610f83565b6040805192835260208301919091528051918290030190f35b61019b6004803603602081101561042a57600080fd5b50356001600160a01b0316610fa7565b61021f6004803603602081101561045057600080fd5b50356001600160a01b0316610fb9565b61019b6110bc565b61021f6004803603604081101561047e57600080fd5b50803590602001356110c2565b61025d6111d4565b61021f6111e3565b60055490565b600581815481106104b157600080fd5b600091825260209091206004909102018054600182015460028301546003909301546001600160a01b039092169350919084565b60095481565b6104f36112dc565b6001600160a01b0316610504610f59565b6001600160a01b03161461054d576040805162461bcd60e51b8152602060048201819052602482015260008051602061182c833981519152604482015290519081900360640190fd5b600355565b61055a6112dc565b6001600160a01b031661056b610f59565b6001600160a01b0316146105b4576040805162461bcd60e51b8152602060048201819052602482015260008051602061182c833981519152604482015290519081900360640190fd5b6002546001600160a01b0383811691161415610609576040805162461bcd60e51b815260206004820152600f60248201526e63616e206e6f742061646420666c7960881b604482015290519081900360640190fd5b6001600160a01b03821660009081526007602052604090205460ff161561066a576040805162461bcd60e51b815260206004820152601060248201526f1b1c08185b1c9958591e48195e1a5cdd60821b604482015290519081900360640190fd5b801561067857610678610d44565b6000600a54431161068b57600a5461068d565b435b60095490915061069d90856112e0565b600955600580546001600160a01b03948516600081815260066020908152604080832094909455600781528382208054600160ff19909116811790915584516080810186529384529083019889529282019485526060820181815284549384018555939052517f036b6384b5eca791c62761152d0c79bb0604c104a5fb6f4eb0703f3154bb3db0600490920291820180546001600160a01b031916919096161790945593517f036b6384b5eca791c62761152d0c79bb0604c104a5fb6f4eb0703f3154bb3db1840155517f036b6384b5eca791c62761152d0c79bb0604c104a5fb6f4eb0703f3154bb3db28301555090517f036b6384b5eca791c62761152d0c79bb0604c104a5fb6f4eb0703f3154bb3db390910155565b6002546001600160a01b031681565b6000600583815481106107d357fe5b600091825260208083208684526008825260408085203386529092529220805460049092029092019250831115610846576040805162461bcd60e51b81526020600482015260126024820152711dda5d1a191c985dce881b9bdd0819dbdbd960721b604482015290519081900360640190fd5b61084f84610a93565b6000610889826001015461088364e8d4a5100061087d8760030154876000015461133a90919063ffffffff16565b90611393565b906113fa565b9050801561089b5761089b3382611457565b83156108c55781546108ad90856113fa565b825582546108c5906001600160a01b0316338661146a565b600383015482546108e09164e8d4a510009161087d9161133a565b6001830155604080518581529051869133917ff279e6a1f5e320cca91135676d9cb6e44ca8a08c0b88342bcdb1144f6511b5689181900360200190a35050505050565b600a5481565b6000806005848154811061093957fe5b600091825260208083208784526008825260408085206001600160a01b03898116875290845281862060049586029093016003810154815484516370a0823160e01b81523098810198909852935191985093969395939492909116926370a08231926024808301939192829003018186803b1580156109b757600080fd5b505afa1580156109cb573d6000803e3d6000fd5b505050506040513d60208110156109e157600080fd5b50516002850154909150431180156109f857508015155b15610a5e576000610a0d856002015443610f68565b90506000610a3a60095461087d8860010154610a346003548761133a90919063ffffffff16565b9061133a565b9050610a59610a528461087d8464e8d4a5100061133a565b85906112e0565b935050505b610a86836001015461088364e8d4a5100061087d86886000015461133a90919063ffffffff16565b9450505050505b92915050565b600060058281548110610aa257fe5b9060005260206000209060040201905080600201544311610ac35750610c29565b8054604080516370a0823160e01b815230600482015290516000926001600160a01b0316916370a08231916024808301926020929190829003018186803b158015610b0d57600080fd5b505afa158015610b21573d6000803e3d6000fd5b505050506040513d6020811015610b3757600080fd5b5051905080610b4d575043600290910155610c29565b6000610b5d836002015443610f68565b90506000610b8460095461087d8660010154610a346003548761133a90919063ffffffff16565b6002546040805163140e25ad60e31b81526004810184905290519293506001600160a01b039091169163a0712d689160248082019260009290919082900301818387803b158015610bd457600080fd5b505af1158015610be8573d6000803e3d6000fd5b50505050610c16610c0b8461087d64e8d4a510008561133a90919063ffffffff16565b6003860154906112e0565b6003850155505043600290920191909155505b50565b600060058281548110610c3b57fe5b600091825260208083208584526008825260408085203380875293528420805485825560018201959095556004909302018054909450919291610c8b916001600160a01b0391909116908361146a565b604080518281529051859133917fbb757047c2b5f3974fe26b7c10f732e7bce710b0952a71082702781e62ae05959181900360200190a350505050565b610cd06112dc565b6001600160a01b0316610ce1610f59565b6001600160a01b031614610d2a576040805162461bcd60e51b8152602060048201819052602482015260008051602061182c833981519152604482015290519081900360640190fd5b600455565b60076020526000908152604090205460ff1681565b60055460005b81811015610d6357610d5b81610a93565b600101610d4a565b5050565b610d6f6112dc565b6001600160a01b0316610d80610f59565b6001600160a01b031614610dc9576040805162461bcd60e51b8152602060048201819052602482015260008051602061182c833981519152604482015290519081900360640190fd5b8015610dd757610dd7610d44565b600060058481548110610de657fe5b90600052602060002090600402016001015490508260058581548110610e0857fe5b906000526020600020906004020160010181905550828114610e4757610e4383610e3d836009546113fa90919063ffffffff16565b906112e0565b6009555b50505050565b610e556112dc565b6001600160a01b0316610e66610f59565b6001600160a01b031614610eaf576040805162461bcd60e51b8152602060048201819052602482015260008051602061182c833981519152604482015290519081900360640190fd5b600080546040516001600160a01b03909116907f8be0079c531659141344cd1fd0a4f28419497f9722a3daafe3b4186f6b6457e0908390a3600080546001600160a01b03191690556001546001600160a01b031615610f51576001546040516000916001600160a01b0316907f4465959e7ec1f32e3ebd831ac2459ad6ef4b1d54a83f108a7068e69e62f0702f908390a3600180546001600160a01b03191690555b565b60045481565b6000546001600160a01b031690565b600454600090610f7c90610a3484866113fa565b9392505050565b60086020908152600092835260408084209091529082529020805460019091015482565b60066020526000908152604090205481565b610fc16112dc565b6001600160a01b0316610fd2610f59565b6001600160a01b03161461101b576040805162461bcd60e51b8152602060048201819052602482015260008051602061182c833981519152604482015290519081900360640190fd5b6001600160a01b0381166110605760405162461bcd60e51b815260040180806020018281038252602981526020018061189d6029913960400191505060405180910390fd5b6001546040516001600160a01b038084169216907f4465959e7ec1f32e3ebd831ac2459ad6ef4b1d54a83f108a7068e69e62f0702f90600090a3600180546001600160a01b0319166001600160a01b0392909216919091179055565b60035481565b6000600583815481106110d157fe5b6000918252602080832086845260088252604080852033865290925292206004909102909101915061110284610a93565b80541561114b576000611137826001015461088364e8d4a5100061087d8760030154876000015461133a90919063ffffffff16565b90508015611149576111493382611457565b505b8215611177578154611168906001600160a01b03163330866114c1565b805461117490846112e0565b81555b600382015481546111929164e8d4a510009161087d9161133a565b6001820155604080518481529051859133917f90890809c654f11d6e72a28fa60149770a0d11ec6c92319d6ceb2bb0a4ea1a159181900360200190a350505050565b6001546001600160a01b031690565b6111eb6112dc565b6001600160a01b03166111fc6111d4565b6001600160a01b0316146112415760405162461bcd60e51b815260040180806020018281038252602781526020018061184c6027913960400191505060405180910390fd5b600154600080546040516001600160a01b0393841693909116917f8be0079c531659141344cd1fd0a4f28419497f9722a3daafe3b4186f6b6457e091a3600154600080546001600160a01b0319166001600160a01b0390921691821781556040519091907f4465959e7ec1f32e3ebd831ac2459ad6ef4b1d54a83f108a7068e69e62f0702f908390a3600180546001600160a01b0319169055565b3390565b600082820183811015610f7c576040805162461bcd60e51b815260206004820152601b60248201527f536166654d6174683a206164646974696f6e206f766572666c6f770000000000604482015290519081900360640190fd5b60008261134957506000610a8d565b8282028284828161135657fe5b0414610f7c5760405162461bcd60e51b815260040180806020018281038252602181526020018061180b6021913960400191505060405180910390fd5b60008082116113e9576040805162461bcd60e51b815260206004820152601a60248201527f536166654d6174683a206469766973696f6e206279207a65726f000000000000604482015290519081900360640190fd5b8183816113f257fe5b049392505050565b600082821115611451576040805162461bcd60e51b815260206004820152601e60248201527f536166654d6174683a207375627472616374696f6e206f766572666c6f770000604482015290519081900360640190fd5b50900390565b600254610d63906001600160a01b031683835b604080516001600160a01b038416602482015260448082018490528251808303909101815260649091019091526020810180516001600160e01b031663a9059cbb60e01b1790526114bc908490611517565b505050565b604080516001600160a01b0380861660248301528416604482015260648082018490528251808303909101815260849091019091526020810180516001600160e01b03166323b872dd60e01b179052610e479085905b600061156c826040518060400160405280602081526020017f5361666545524332303a206c6f772d6c6576656c2063616c6c206661696c6564815250856001600160a01b03166115c89092919063ffffffff16565b8051909150156114bc5780806020019051602081101561158b57600080fd5b50516114bc5760405162461bcd60e51b815260040180806020018281038252602a815260200180611873602a913960400191505060405180910390fd5b60606115d784846000856115df565b949350505050565b6060824710156116205760405162461bcd60e51b81526004018080602001828103825260268152602001806117e56026913960400191505060405180910390fd5b6116298561173a565b61167a576040805162461bcd60e51b815260206004820152601d60248201527f416464726573733a2063616c6c20746f206e6f6e2d636f6e7472616374000000604482015290519081900360640190fd5b600080866001600160a01b031685876040518082805190602001908083835b602083106116b85780518252601f199092019160209182019101611699565b6001836020036101000a03801982511681845116808217855250505050505090500191505060006040518083038185875af1925050503d806000811461171a576040519150601f19603f3d011682016040523d82523d6000602084013e61171f565b606091505b509150915061172f828286611740565b979650505050505050565b3b151590565b6060831561174f575081610f7c565b82511561175f5782518084602001fd5b8160405162461bcd60e51b81526004018080602001828103825283818151815260200191508051906020019080838360005b838110156117a9578181015183820152602001611791565b50505050905090810190601f1680156117d65780820380516001836020036101000a031916815260200191505b509250505060405180910390fdfe416464726573733a20696e73756666696369656e742062616c616e636520666f722063616c6c536166654d6174683a206d756c7469706c69636174696f6e206f766572666c6f774f776e61626c653a2063616c6c6572206973206e6f7420746865206f776e65724f776e61626c653a2063616c6c6572206973206e6f74207468652070656e64696e674f776e65725361666545524332303a204552433230206f7065726174696f6e20646964206e6f7420737563636565644f776e61626c653a2070656e64696e674f776e657220697320746865207a65726f2061646472657373a2646970667358221220c9128bdd895125f1f6640c218763cdeb3481212439c1f454738a544d3583b3b464736f6c63430007060033",
  "devdoc": {
    "kind": "dev",
    "methods": {},
    "version": 1
  },
  "userdoc": {
    "kind": "user",
    "methods": {},
    "version": 1
  },
  "storageLayout": {
    "storage": [
      {
        "astId": 2335,
        "contract": "contracts/farm/MasterChef.sol:MasterChef",
        "label": "_owner",
        "offset": 0,
        "slot": "0",
        "type": "t_address"
      },
      {
        "astId": 2337,
        "contract": "contracts/farm/MasterChef.sol:MasterChef",
        "label": "_pendingOwner",
        "offset": 0,
        "slot": "1",
        "type": "t_address"
      },
      {
        "astId": 2545,
        "contract": "contracts/farm/MasterChef.sol:MasterChef",
        "label": "fly",
        "offset": 0,
        "slot": "2",
        "type": "t_contract(GIBXToken)14574"
      },
      {
        "astId": 2547,
        "contract": "contracts/farm/MasterChef.sol:MasterChef",
        "label": "flyPerBlock",
        "offset": 0,
        "slot": "3",
        "type": "t_uint256"
      },
      {
        "astId": 2549,
        "contract": "contracts/farm/MasterChef.sol:MasterChef",
        "label": "BONUS_MULTIPLIER",
        "offset": 0,
        "slot": "4",
        "type": "t_uint256"
      },
      {
        "astId": 2552,
        "contract": "contracts/farm/MasterChef.sol:MasterChef",
        "label": "poolInfo",
        "offset": 0,
        "slot": "5",
        "type": "t_array(t_struct(PoolInfo)2543_storage)dyn_storage"
      },
      {
        "astId": 2556,
        "contract": "contracts/farm/MasterChef.sol:MasterChef",
        "label": "pidOfLP",
        "offset": 0,
        "slot": "6",
        "type": "t_mapping(t_address,t_uint256)"
      },
      {
        "astId": 2560,
        "contract": "contracts/farm/MasterChef.sol:MasterChef",
        "label": "existsLP",
        "offset": 0,
        "slot": "7",
        "type": "t_mapping(t_address,t_bool)"
      },
      {
        "astId": 2566,
        "contract": "contracts/farm/MasterChef.sol:MasterChef",
        "label": "userInfo",
        "offset": 0,
        "slot": "8",
        "type": "t_mapping(t_uint256,t_mapping(t_address,t_struct(UserInfo)2534_storage))"
      },
      {
        "astId": 2569,
        "contract": "contracts/farm/MasterChef.sol:MasterChef",
        "label": "totalAllocPoint",
        "offset": 0,
        "slot": "9",
        "type": "t_uint256"
      },
      {
        "astId": 2571,
        "contract": "contracts/farm/MasterChef.sol:MasterChef",
        "label": "startBlock",
        "offset": 0,
        "slot": "10",
        "type": "t_uint256"
      }
    ],
    "types": {
      "t_address": {
        "encoding": "inplace",
        "label": "address",
        "numberOfBytes": "20"
      },
      "t_array(t_struct(PoolInfo)2543_storage)dyn_storage": {
        "base": "t_struct(PoolInfo)2543_storage",
        "encoding": "dynamic_array",
        "label": "struct MasterChef.PoolInfo[]",
        "numberOfBytes": "32"
      },
      "t_bool": {
        "encoding": "inplace",
        "label": "bool",
        "numberOfBytes": "1"
      },
      "t_contract(GIBXToken)14574": {
        "encoding": "inplace",
        "label": "contract GIBXToken",
        "numberOfBytes": "20"
      },
      "t_contract(IERC20)1263": {
        "encoding": "inplace",
        "label": "contract IERC20",
        "numberOfBytes": "20"
      },
      "t_mapping(t_address,t_bool)": {
        "encoding": "mapping",
        "key": "t_address",
        "label": "mapping(address => bool)",
        "numberOfBytes": "32",
        "value": "t_bool"
      },
      "t_mapping(t_address,t_struct(UserInfo)2534_storage)": {
        "encoding": "mapping",
        "key": "t_address",
        "label": "mapping(address => struct MasterChef.UserInfo)",
        "numberOfBytes": "32",
        "value": "t_struct(UserInfo)2534_storage"
      },
      "t_mapping(t_address,t_uint256)": {
        "encoding": "mapping",
        "key": "t_address",
        "label": "mapping(address => uint256)",
        "numberOfBytes": "32",
        "value": "t_uint256"
      },
      "t_mapping(t_uint256,t_mapping(t_address,t_struct(UserInfo)2534_storage))": {
        "encoding": "mapping",
        "key": "t_uint256",
        "label": "mapping(uint256 => mapping(address => struct MasterChef.UserInfo))",
        "numberOfBytes": "32",
        "value": "t_mapping(t_address,t_struct(UserInfo)2534_storage)"
      },
      "t_struct(PoolInfo)2543_storage": {
        "encoding": "inplace",
        "label": "struct MasterChef.PoolInfo",
        "members": [
          {
            "astId": 2536,
            "contract": "contracts/farm/MasterChef.sol:MasterChef",
            "label": "lpToken",
            "offset": 0,
            "slot": "0",
            "type": "t_contract(IERC20)1263"
          },
          {
            "astId": 2538,
            "contract": "contracts/farm/MasterChef.sol:MasterChef",
            "label": "allocPoint",
            "offset": 0,
            "slot": "1",
            "type": "t_uint256"
          },
          {
            "astId": 2540,
            "contract": "contracts/farm/MasterChef.sol:MasterChef",
            "label": "lastRewardBlock",
            "offset": 0,
            "slot": "2",
            "type": "t_uint256"
          },
          {
            "astId": 2542,
            "contract": "contracts/farm/MasterChef.sol:MasterChef",
            "label": "accGIBXPerShare",
            "offset": 0,
            "slot": "3",
            "type": "t_uint256"
          }
        ],
        "numberOfBytes": "128"
      },
      "t_struct(UserInfo)2534_storage": {
        "encoding": "inplace",
        "label": "struct MasterChef.UserInfo",
        "members": [
          {
            "astId": 2531,
            "contract": "contracts/farm/MasterChef.sol:MasterChef",
            "label": "amount",
            "offset": 0,
            "slot": "0",
            "type": "t_uint256"
          },
          {
            "astId": 2533,
            "contract": "contracts/farm/MasterChef.sol:MasterChef",
            "label": "rewardDebt",
            "offset": 0,
            "slot": "1",
            "type": "t_uint256"
          }
        ],
        "numberOfBytes": "64"
      },
      "t_uint256": {
        "encoding": "inplace",
        "label": "uint256",
        "numberOfBytes": "32"
      }
    }
  }
}