{
  "address": "0xAEd487b71965F792aF648810595b5d069e870d34",
  "abi": [
    {
      "inputs": [],
      "stateMutability": "nonpayable",
      "type": "constructor"
    },
    {
      "anonymous": false,
      "inputs": [
        {
          "indexed": true,
          "internalType": "address",
          "name": "previousPendingOwner",
          "type": "address"
        },
        {
          "indexed": true,
          "internalType": "address",
          "name": "newPendingOwner",
          "type": "address"
        }
      ],
      "name": "ChangePendingOwner",
      "type": "event"
    },
    {
      "anonymous": false,
      "inputs": [
        {
          "indexed": true,
          "internalType": "address",
          "name": "smartChef",
          "type": "address"
        }
      ],
      "name": "NewSmartChefContract",
      "type": "event"
    },
    {
      "anonymous": false,
      "inputs": [
        {
          "indexed": true,
          "internalType": "address",
          "name": "previousOwner",
          "type": "address"
        },
        {
          "indexed": true,
          "internalType": "address",
          "name": "newOwner",
          "type": "address"
        }
      ],
      "name": "OwnershipTransferred",
      "type": "event"
    },
    {
      "inputs": [],
      "name": "acceptOwner",
      "outputs": [],
      "stateMutability": "nonpayable",
      "type": "function"
    },
    {
      "inputs": [
        {
          "internalType": "contract IERC20",
          "name": "_stakedToken",
          "type": "address"
        },
        {
          "internalType": "contract IERC20",
          "name": "_rewardToken",
          "type": "address"
        },
        {
          "internalType": "uint256",
          "name": "_rewardPerBlock",
          "type": "uint256"
        },
        {
          "internalType": "uint256",
          "name": "_startBlock",
          "type": "uint256"
        },
        {
          "internalType": "uint256",
          "name": "_bonusEndBlock",
          "type": "uint256"
        },
        {
          "internalType": "uint256",
          "name": "_poolLimitPerUser",
          "type": "uint256"
        },
        {
          "internalType": "address",
          "name": "_admin",
          "type": "address"
        }
      ],
      "name": "deployPool",
      "outputs": [],
      "stateMutability": "nonpayable",
      "type": "function"
    },
    {
      "inputs": [],
      "name": "owner",
      "outputs": [
        {
          "internalType": "address",
          "name": "",
          "type": "address"
        }
      ],
      "stateMutability": "view",
      "type": "function"
    },
    {
      "inputs": [],
      "name": "pendingOwner",
      "outputs": [
        {
          "internalType": "address",
          "name": "",
          "type": "address"
        }
      ],
      "stateMutability": "view",
      "type": "function"
    },
    {
      "inputs": [],
      "name": "renounceOwnership",
      "outputs": [],
      "stateMutability": "nonpayable",
      "type": "function"
    },
    {
      "inputs": [
        {
          "internalType": "address",
          "name": "pendingOwner_",
          "type": "address"
        }
      ],
      "name": "setPendingOwner",
      "outputs": [],
      "stateMutability": "nonpayable",
      "type": "function"
    }
  ],
  "transactionHash": "0xc1067399d8e3940a92ced0e7b3546c33deaf42392ca12e96d42a543cccc413fe",
  "args": [],
  "solcInputHash": "d2da3992c7ce11c5ac8aac23ec92f50f",
  "bytecode": "0x608060405234801561001057600080fd5b50600061001b61006a565b600080546001600160a01b0319166001600160a01b0383169081178255604051929350917f8be0079c531659141344cd1fd0a4f28419497f9722a3daafe3b4186f6b6457e0908290a35061006e565b3390565b6126728061007d6000396000f3fe608060405234801561001057600080fd5b50600436106100625760003560e01c8063715018a6146100675780638da5cb5b14610071578063c42069ec14610095578063cc8402f5146100bb578063e30c39781461010b578063ebbc496514610113575b600080fd5b61006f61011b565b005b610079610233565b604080516001600160a01b039092168252519081900360200190f35b61006f600480360360208110156100ab57600080fd5b50356001600160a01b0316610242565b61006f600480360360e08110156100d157600080fd5b506001600160a01b038135811691602081013582169160408201359160608101359160808201359160a08101359160c09091013516610357565b61007961066f565b61006f61067e565b610123610777565b6001600160a01b0316610134610233565b6001600160a01b03161461018f576040805162461bcd60e51b815260206004820181905260248201527f4f776e61626c653a2063616c6c6572206973206e6f7420746865206f776e6572604482015290519081900360640190fd5b600080546040516001600160a01b03909116907f8be0079c531659141344cd1fd0a4f28419497f9722a3daafe3b4186f6b6457e0908390a3600080546001600160a01b03191690556001546001600160a01b031615610231576001546040516000916001600160a01b0316907f4465959e7ec1f32e3ebd831ac2459ad6ef4b1d54a83f108a7068e69e62f0702f908390a3600180546001600160a01b03191690555b565b6000546001600160a01b031690565b61024a610777565b6001600160a01b031661025b610233565b6001600160a01b0316146102b6576040805162461bcd60e51b815260206004820181905260248201527f4f776e61626c653a2063616c6c6572206973206e6f7420746865206f776e6572604482015290519081900360640190fd5b6001600160a01b0381166102fb5760405162461bcd60e51b81526004018080602001828103825260298152602001806126146029913960400191505060405180910390fd5b6001546040516001600160a01b038084169216907f4465959e7ec1f32e3ebd831ac2459ad6ef4b1d54a83f108a7068e69e62f0702f90600090a3600180546001600160a01b0319166001600160a01b0392909216919091179055565b61035f610777565b6001600160a01b0316610370610233565b6001600160a01b0316146103cb576040805162461bcd60e51b815260206004820181905260248201527f4f776e61626c653a2063616c6c6572206973206e6f7420746865206f776e6572604482015290519081900360640190fd5b6000876001600160a01b03166318160ddd6040518163ffffffff1660e01b815260040160206040518083038186803b15801561040657600080fd5b505afa15801561041a573d6000803e3d6000fd5b505050506040513d602081101561043057600080fd5b5051101561043d57600080fd5b6000866001600160a01b03166318160ddd6040518163ffffffff1660e01b815260040160206040518083038186803b15801561047857600080fd5b505afa15801561048c573d6000803e3d6000fd5b505050506040513d60208110156104a257600080fd5b505110156104af57600080fd5b856001600160a01b0316876001600160a01b03161415610516576040805162461bcd60e51b815260206004820152601b60248201527f546f6b656e73206d75737420626520626520646966666572656e740000000000604482015290519081900360640190fd5b6000604051806020016105289061077b565b6020820181038252601f19601f820116604052509050600088888760405160200180846001600160a01b031660601b8152601401836001600160a01b031660601b815260140182815260200193505050506040516020818303038152906040528051906020012090506000818351602085016000f5604080516320e9410760e21b81526001600160a01b038d811660048301528c81166024830152604482018c9052606482018b9052608482018a905260a4820189905287811660c48301529151929350908316916383a5041c9160e48082019260009290919082900301818387803b15801561061757600080fd5b505af115801561062b573d6000803e3d6000fd5b50506040516001600160a01b03841692507fe0d103a92c6ff6c4aceb49d436f4028e0deb4884fdbcb9f32b03045eabb44a6c9150600090a250505050505050505050565b6001546001600160a01b031690565b610686610777565b6001600160a01b031661069761066f565b6001600160a01b0316146106dc5760405162461bcd60e51b81526004018080602001828103825260278152602001806125ed6027913960400191505060405180910390fd5b600154600080546040516001600160a01b0393841693909116917f8be0079c531659141344cd1fd0a4f28419497f9722a3daafe3b4186f6b6457e091a3600154600080546001600160a01b0319166001600160a01b0390921691821781556040519091907f4465959e7ec1f32e3ebd831ac2459ad6ef4b1d54a83f108a7068e69e62f0702f908390a3600180546001600160a01b0319169055565b3390565b611e64806107898339019056fe608060405234801561001057600080fd5b50600061001b610088565b600080546001600160a01b0319166001600160a01b0383169081178255604051929350917f8be0079c531659141344cd1fd0a4f28419497f9722a3daafe3b4186f6b6457e0908290a35060016002556003805462010000600160b01b03191633620100000217905561008c565b3390565b611dc98061009b6000396000f3fe608060405234801561001057600080fd5b50600436106101c45760003560e01c806392e8990e116100f9578063cc7a262e11610097578063e30c397811610071578063e30c39781461041a578063ebbc496514610422578063f40f0f521461042a578063f7c618c114610450576101c4565b8063cc7a262e14610402578063ccd34cd51461040a578063db2e21bc14610412576101c4565b8063a9f8d181116100d3578063a9f8d181146103af578063b6b55f25146103b7578063bd617191146103d4578063c42069ec146103dc576101c4565b806392e8990e1461034b5780639513997f14610367578063a0b409051461038a576101c4565b806366fe9f8a1161016657806383a5041c1161014057806383a5041c146102c75780638ae39cac146103175780638da5cb5b1461031f5780638f66291514610343576101c4565b806366fe9f8a146102af578063715018a6146102b757806380dc0672146102bf576101c4565b80632e1a7d4d116101a25780632e1a7d4d146102415780633279beab1461025e5780633f138d4b1461027b57806348cd4cb1146102a7576101c4565b806301f8a976146101c95780631959a002146101e85780631aed655314610227575b600080fd5b6101e6600480360360208110156101df57600080fd5b5035610458565b005b61020e600480360360208110156101fe57600080fd5b50356001600160a01b031661053e565b6040805192835260208301919091528051918290030190f35b61022f610557565b60408051918252519081900360200190f35b6101e66004803603602081101561025757600080fd5b503561055d565b6101e66004803603602081101561027457600080fd5b5035610700565b6101e66004803603604081101561029157600080fd5b506001600160a01b03813516906020013561077c565b61022f6108f2565b61022f6108f8565b6101e66108fe565b6101e6610a04565b6101e6600480360360e08110156102dd57600080fd5b506001600160a01b038135811691602081013582169160408201359160608101359160808201359160a08101359160c09091013516610a6c565b61022f610cac565b610327610cb2565b604080516001600160a01b039092168252519081900360200190f35b61022f610cc1565b610353610cc7565b604080519115158252519081900360200190f35b6101e66004803603604081101561037d57600080fd5b5080359060200135610cd7565b6101e6600480360360408110156103a057600080fd5b50803515159060200135610e4c565b61022f610fb6565b6101e6600480360360208110156103cd57600080fd5b5035610fbc565b61032761117b565b6101e6600480360360208110156103f257600080fd5b50356001600160a01b0316611190565b610327611293565b61022f6112a2565b6101e66112a8565b61032761137c565b6101e661138b565b61022f6004803603602081101561044057600080fd5b50356001600160a01b0316611484565b6103276115db565b6104606115ea565b6001600160a01b0316610471610cb2565b6001600160a01b0316146104ba576040805162461bcd60e51b81526020600482018190526024820152600080516020611cfa833981519152604482015290519081900360640190fd5b6006544310610503576040805162461bcd60e51b815260206004820152601060248201526f141bdbdb081a185cc81cdd185c9d195960821b604482015290519081900360640190fd5b60098190556040805182815290517f0c4d677eef92893ac7ec52faf8140fc6c851ab4736302b4f3a89dfb20696a0df9181900360200190a150565b600d602052600090815260409020805460019091015482565b60055481565b6002805414156105b4576040805162461bcd60e51b815260206004820152601f60248201527f5265656e7472616e637947756172643a207265656e7472616e742063616c6c00604482015290519081900360640190fd5b60028055336000908152600d60205260409020805482111561061d576040805162461bcd60e51b815260206004820152601b60248201527f416d6f756e7420746f20776974686472617720746f6f20686967680000000000604482015290519081900360640190fd5b6106256115ee565b600061065a8260010154610654600a5461064e60045487600001546116d590919063ffffffff16565b90611737565b9061179e565b9050821561068757815461066e908461179e565b8255600c54610687906001600160a01b031633856117fb565b80156106a457600b546106a4906001600160a01b031633836117fb565b600a5460045483546106bb929161064e91906116d5565b600183015560408051848152905133917f884edad9ce6fa2440d8a54cc123490eb96d2768479d49ff9c7366125a9424364919081900360200190a25050600160025550565b6107086115ea565b6001600160a01b0316610719610cb2565b6001600160a01b031614610762576040805162461bcd60e51b81526020600482018190526024820152600080516020611cfa833981519152604482015290519081900360640190fd5b600b54610779906001600160a01b031633836117fb565b50565b6107846115ea565b6001600160a01b0316610795610cb2565b6001600160a01b0316146107de576040805162461bcd60e51b81526020600482018190526024820152600080516020611cfa833981519152604482015290519081900360640190fd5b600c546001600160a01b038381169116141561083a576040805162461bcd60e51b815260206004820152601660248201527521b0b73737ba1031329039ba30b5b2b2103a37b5b2b760511b604482015290519081900360640190fd5b600b546001600160a01b0383811691161415610896576040805162461bcd60e51b815260206004820152601660248201527521b0b73737ba103132903932bbb0b932103a37b5b2b760511b604482015290519081900360640190fd5b6108aa6001600160a01b03831633836117fb565b604080516001600160a01b03841681526020810183905281517f74545154aac348a3eac92596bd1971957ca94795f4e954ec5f613b55fab78129929181900390910190a15050565b60065481565b60085481565b6109066115ea565b6001600160a01b0316610917610cb2565b6001600160a01b031614610960576040805162461bcd60e51b81526020600482018190526024820152600080516020611cfa833981519152604482015290519081900360640190fd5b600080546040516001600160a01b03909116907f8be0079c531659141344cd1fd0a4f28419497f9722a3daafe3b4186f6b6457e0908390a3600080546001600160a01b03191690556001546001600160a01b031615610a02576001546040516000916001600160a01b0316907f4465959e7ec1f32e3ebd831ac2459ad6ef4b1d54a83f108a7068e69e62f0702f908390a3600180546001600160a01b03191690555b565b610a0c6115ea565b6001600160a01b0316610a1d610cb2565b6001600160a01b031614610a66576040805162461bcd60e51b81526020600482018190526024820152600080516020611cfa833981519152604482015290519081900360640190fd5b43600555565b600354610100900460ff1680610a855750610a85611852565b80610a93575060035460ff16155b610ace5760405162461bcd60e51b815260040180806020018281038252602e815260200180611c7b602e913960400191505060405180910390fd5b600354610100900460ff16158015610af9576003805460ff1961ff0019909116610100171660011790555b6003546201000090046001600160a01b03163314610b4c576040805162461bcd60e51b815260206004820152600b60248201526a4e6f7420666163746f727960a81b604482015290519081900360640190fd5b600c80546001600160a01b03808b166001600160a01b031992831617909255600b8054928a16929091169190911790556009869055600685905560058490558215610baa576003805460ff60b01b1916600160b01b17905560088390555b600b546040805163313ce56760e01b815290516000926001600160a01b03169163313ce567916004808301926020929190829003018186803b158015610bef57600080fd5b505afa158015610c03573d6000803e3d6000fd5b505050506040513d6020811015610c1957600080fd5b505160ff169050601e8110610c6e576040805162461bcd60e51b815260206004820152601660248201527504d75737420626520696e666572696f7220746f2033360541b604482015290519081900360640190fd5b610c79601e8261179e565b600a90810a9055600654600755610c8f83611190565b508015610ca2576003805461ff00191690555b5050505050505050565b60095481565b6000546001600160a01b031690565b60045481565b600354600160b01b900460ff1681565b610cdf6115ea565b6001600160a01b0316610cf0610cb2565b6001600160a01b031614610d39576040805162461bcd60e51b81526020600482018190526024820152600080516020611cfa833981519152604482015290519081900360640190fd5b6006544310610d82576040805162461bcd60e51b815260206004820152601060248201526f141bdbdb081a185cc81cdd185c9d195960821b604482015290519081900360640190fd5b808210610dc05760405162461bcd60e51b815260040180806020018281038252602e815260200180611c27602e913960400191505060405180910390fd5b814310610dfe5760405162461bcd60e51b8152600401808060200182810382526030815260200180611ca96030913960400191505060405180910390fd5b600682905560058190556007829055604080518381526020810183905281517f7cd0ab87d19036f3dfadadb232c78aa4879dda3f0c994a9d637532410ee2ce06929181900390910190a15050565b610e546115ea565b6001600160a01b0316610e65610cb2565b6001600160a01b031614610eae576040805162461bcd60e51b81526020600482018190526024820152600080516020611cfa833981519152604482015290519081900360640190fd5b600354600160b01b900460ff16610efa576040805162461bcd60e51b815260206004820152600b60248201526a135d5cdd081899481cd95d60aa1b604482015290519081900360640190fd5b8115610f60576008548111610f56576040805162461bcd60e51b815260206004820152601860248201527f4e6577206c696d6974206d757374206265206869676865720000000000000000604482015290519081900360640190fd5b6008819055610f7d565b6003805460ff60b01b1916600160b01b8415150217905560006008555b60085460408051918252517f241f67ee5f41b7a5cabf911367329be7215900f602ebfc47f89dce2a6bcd847c9181900360200190a15050565b60075481565b600280541415611013576040805162461bcd60e51b815260206004820152601f60248201527f5265656e7472616e637947756172643a207265656e7472616e742063616c6c00604482015290519081900360640190fd5b60028055336000908152600d60205260409020600354600160b01b900460ff161561109b576008548154611048908490611863565b111561109b576040805162461bcd60e51b815260206004820152601760248201527f5573657220616d6f756e742061626f7665206c696d6974000000000000000000604482015290519081900360640190fd5b6110a36115ee565b8054156110f45760006110d38260010154610654600a5461064e60045487600001546116d590919063ffffffff16565b905080156110f257600b546110f2906001600160a01b031633836117fb565b505b81156111205780546111069083611863565b8155600c54611120906001600160a01b03163330856118bd565b600a546004548254611137929161064e91906116d5565b600182015560408051838152905133917fe1fffcc4923d04b559f4d29a8bfc6cda04eb5b0d3c460751c2402c5c5cc9109c919081900360200190a250506001600255565b6003546201000090046001600160a01b031681565b6111986115ea565b6001600160a01b03166111a9610cb2565b6001600160a01b0316146111f2576040805162461bcd60e51b81526020600482018190526024820152600080516020611cfa833981519152604482015290519081900360640190fd5b6001600160a01b0381166112375760405162461bcd60e51b8152600401808060200182810382526029815260200180611d6b6029913960400191505060405180910390fd5b6001546040516001600160a01b038084169216907f4465959e7ec1f32e3ebd831ac2459ad6ef4b1d54a83f108a7068e69e62f0702f90600090a3600180546001600160a01b0319166001600160a01b0392909216919091179055565b600c546001600160a01b031681565b600a5481565b6002805414156112ff576040805162461bcd60e51b815260206004820152601f60248201527f5265656e7472616e637947756172643a207265656e7472616e742063616c6c00604482015290519081900360640190fd5b60028055336000908152600d602052604081208054828255600182019290925590801561133d57600c5461133d906001600160a01b031633836117fb565b60408051828152905133917f5fafa99d0643513820be26656b45130b01e1c03062e1266bf36f88cbd3bd9695919081900360200190a250506001600255565b6001546001600160a01b031690565b6113936115ea565b6001600160a01b03166113a461137c565b6001600160a01b0316146113e95760405162461bcd60e51b8152600401808060200182810382526027815260200180611d1a6027913960400191505060405180910390fd5b600154600080546040516001600160a01b0393841693909116917f8be0079c531659141344cd1fd0a4f28419497f9722a3daafe3b4186f6b6457e091a3600154600080546001600160a01b0319166001600160a01b0390921691821781556040519091907f4465959e7ec1f32e3ebd831ac2459ad6ef4b1d54a83f108a7068e69e62f0702f908390a3600180546001600160a01b0319169055565b6001600160a01b038082166000908152600d60209081526040808320600c5482516370a0823160e01b8152306004820152925194959194869491909216926370a082319260248083019392829003018186803b1580156114e357600080fd5b505afa1580156114f7573d6000803e3d6000fd5b505050506040513d602081101561150d57600080fd5b50516007549091504311801561152257508015155b156115aa5760006115356007544361191d565b9050600061154e600954836116d590919063ffffffff16565b9050600061157761156e8561064e600a54866116d590919063ffffffff16565b60045490611863565b905061159e8560010154610654600a5461064e858a600001546116d590919063ffffffff16565b955050505050506115d6565b6115d18260010154610654600a5461064e60045487600001546116d590919063ffffffff16565b925050505b919050565b600b546001600160a01b031681565b3390565b60075443116115fc57610a02565b600c54604080516370a0823160e01b815230600482015290516000926001600160a01b0316916370a08231916024808301926020929190829003018186803b15801561164757600080fd5b505afa15801561165b573d6000803e3d6000fd5b505050506040513d602081101561167157600080fd5b5051905080611684575043600755610a02565b60006116926007544361191d565b905060006116ab600954836116d590919063ffffffff16565b90506116c961156e8461064e600a54856116d590919063ffffffff16565b60045550504360075550565b6000826116e457506000611731565b828202828482816116f157fe5b041461172e5760405162461bcd60e51b8152600401808060200182810382526021815260200180611cd96021913960400191505060405180910390fd5b90505b92915050565b600080821161178d576040805162461bcd60e51b815260206004820152601a60248201527f536166654d6174683a206469766973696f6e206279207a65726f000000000000604482015290519081900360640190fd5b81838161179657fe5b049392505050565b6000828211156117f5576040805162461bcd60e51b815260206004820152601e60248201527f536166654d6174683a207375627472616374696f6e206f766572666c6f770000604482015290519081900360640190fd5b50900390565b604080516001600160a01b038416602482015260448082018490528251808303909101815260649091019091526020810180516001600160e01b031663a9059cbb60e01b17905261184d908490611957565b505050565b600061185d30611a08565b15905090565b60008282018381101561172e576040805162461bcd60e51b815260206004820152601b60248201527f536166654d6174683a206164646974696f6e206f766572666c6f770000000000604482015290519081900360640190fd5b604080516001600160a01b0380861660248301528416604482015260648082018490528251808303909101815260849091019091526020810180516001600160e01b03166323b872dd60e01b179052611917908590611957565b50505050565b6000600554821161193957611932828461179e565b9050611731565b600554831061194a57506000611731565b600554611932908461179e565b60006119ac826040518060400160405280602081526020017f5361666545524332303a206c6f772d6c6576656c2063616c6c206661696c6564815250856001600160a01b0316611a0e9092919063ffffffff16565b80519091501561184d578080602001905160208110156119cb57600080fd5b505161184d5760405162461bcd60e51b815260040180806020018281038252602a815260200180611d41602a913960400191505060405180910390fd5b3b151590565b6060611a1d8484600085611a27565b90505b9392505050565b606082471015611a685760405162461bcd60e51b8152600401808060200182810382526026815260200180611c556026913960400191505060405180910390fd5b611a7185611a08565b611ac2576040805162461bcd60e51b815260206004820152601d60248201527f416464726573733a2063616c6c20746f206e6f6e2d636f6e7472616374000000604482015290519081900360640190fd5b600080866001600160a01b031685876040518082805190602001908083835b60208310611b005780518252601f199092019160209182019101611ae1565b6001836020036101000a03801982511681845116808217855250505050505090500191505060006040518083038185875af1925050503d8060008114611b62576040519150601f19603f3d011682016040523d82523d6000602084013e611b67565b606091505b5091509150611b77828286611b82565b979650505050505050565b60608315611b91575081611a20565b825115611ba15782518084602001fd5b8160405162461bcd60e51b81526004018080602001828103825283818151815260200191508051906020019080838360005b83811015611beb578181015183820152602001611bd3565b50505050905090810190601f168015611c185780820380516001836020036101000a031916815260200191505b509250505060405180910390fdfe4e6577207374617274426c6f636b206d757374206265206c6f776572207468616e206e657720656e64426c6f636b416464726573733a20696e73756666696369656e742062616c616e636520666f722063616c6c496e697469616c697a61626c653a20636f6e747261637420697320616c726561647920696e697469616c697a65644e6577207374617274426c6f636b206d75737420626520686967686572207468616e2063757272656e7420626c6f636b536166654d6174683a206d756c7469706c69636174696f6e206f766572666c6f774f776e61626c653a2063616c6c6572206973206e6f7420746865206f776e65724f776e61626c653a2063616c6c6572206973206e6f74207468652070656e64696e674f776e65725361666545524332303a204552433230206f7065726174696f6e20646964206e6f7420737563636565644f776e61626c653a2070656e64696e674f776e657220697320746865207a65726f2061646472657373a2646970667358221220fbd5ae82b5ecd5b3fb0d6e38d0f062f1a46b0f81a77dff745f4209a573eb7fcf64736f6c634300070600334f776e61626c653a2063616c6c6572206973206e6f74207468652070656e64696e674f776e65724f776e61626c653a2070656e64696e674f776e657220697320746865207a65726f2061646472657373a264697066735822122085ab8913b3535e759155a1755ac2c4acb9af365db0e644541b2a3ae092c4bc1b64736f6c63430007060033",
  "devdoc": {
    "kind": "dev",
    "methods": {},
    "version": 1
  },
  "userdoc": {
    "kind": "user",
    "methods": {},
    "version": 1
  },
  "storageLayout": {
    "storage": [
      {
        "astId": 2335,
        "contract": "contracts/pool/PoolFactory.sol:PoolFactory",
        "label": "_owner",
        "offset": 0,
        "slot": "0",
        "type": "t_address"
      },
      {
        "astId": 2337,
        "contract": "contracts/pool/PoolFactory.sol:PoolFactory",
        "label": "_pendingOwner",
        "offset": 0,
        "slot": "1",
        "type": "t_address"
      }
    ],
    "types": {
      "t_address": {
        "encoding": "inplace",
        "label": "address",
        "numberOfBytes": "20"
      }
    }
  }
}