{
  "address": "0x77a9D1AA94A0adE8515AD5b2f57066E4489AEe55",
  "abi": [
    {
      "inputs": [
        {
          "internalType": "contract GIBXToken",
          "name": "_fly",
          "type": "address"
        },
        {
          "internalType": "contract GIBXBar",
          "name": "_bar",
          "type": "address"
        },
        {
          "internalType": "uint256",
          "name": "_rewardPerBlock",
          "type": "uint256"
        },
        {
          "internalType": "uint256",
          "name": "_startBlock",
          "type": "uint256"
        }
      ],
      "stateMutability": "nonpayable",
      "type": "constructor"
    },
    {
      "anonymous": false,
      "inputs": [
        {
          "indexed": true,
          "internalType": "address",
          "name": "previousPendingOwner",
          "type": "address"
        },
        {
          "indexed": true,
          "internalType": "address",
          "name": "newPendingOwner",
          "type": "address"
        }
      ],
      "name": "ChangePendingOwner",
      "type": "event"
    },
    {
      "anonymous": false,
      "inputs": [
        {
          "indexed": true,
          "internalType": "address",
          "name": "user",
          "type": "address"
        },
        {
          "indexed": true,
          "internalType": "uint256",
          "name": "pid",
          "type": "uint256"
        },
        {
          "indexed": false,
          "internalType": "uint256",
          "name": "amount",
          "type": "uint256"
        }
      ],
      "name": "Deposit",
      "type": "event"
    },
    {
      "anonymous": false,
      "inputs": [
        {
          "indexed": true,
          "internalType": "address",
          "name": "user",
          "type": "address"
        },
        {
          "indexed": true,
          "internalType": "uint256",
          "name": "pid",
          "type": "uint256"
        },
        {
          "indexed": false,
          "internalType": "uint256",
          "name": "amount",
          "type": "uint256"
        }
      ],
      "name": "EmergencyWithdraw",
      "type": "event"
    },
    {
      "anonymous": false,
      "inputs": [
        {
          "indexed": true,
          "internalType": "address",
          "name": "previousOwner",
          "type": "address"
        },
        {
          "indexed": true,
          "internalType": "address",
          "name": "newOwner",
          "type": "address"
        }
      ],
      "name": "OwnershipTransferred",
      "type": "event"
    },
    {
      "anonymous": false,
      "inputs": [
        {
          "indexed": true,
          "internalType": "address",
          "name": "user",
          "type": "address"
        },
        {
          "indexed": true,
          "internalType": "uint256",
          "name": "pid",
          "type": "uint256"
        },
        {
          "indexed": false,
          "internalType": "uint256",
          "name": "amount",
          "type": "uint256"
        }
      ],
      "name": "Withdraw",
      "type": "event"
    },
    {
      "inputs": [],
      "name": "BONUS_MULTIPLIER",
      "outputs": [
        {
          "internalType": "uint256",
          "name": "",
          "type": "uint256"
        }
      ],
      "stateMutability": "view",
      "type": "function"
    },
    {
      "inputs": [],
      "name": "acceptOwner",
      "outputs": [],
      "stateMutability": "nonpayable",
      "type": "function"
    },
    {
      "inputs": [
        {
          "internalType": "uint256",
          "name": "_allocPoint",
          "type": "uint256"
        },
        {
          "internalType": "contract IERC20",
          "name": "_token",
          "type": "address"
        },
        {
          "internalType": "bool",
          "name": "_withUpdate",
          "type": "bool"
        }
      ],
      "name": "add",
      "outputs": [],
      "stateMutability": "nonpayable",
      "type": "function"
    },
    {
      "inputs": [],
      "name": "bar",
      "outputs": [
        {
          "internalType": "contract GIBXBar",
          "name": "",
          "type": "address"
        }
      ],
      "stateMutability": "view",
      "type": "function"
    },
    {
      "inputs": [
        {
          "internalType": "uint256",
          "name": "_pid",
          "type": "uint256"
        },
        {
          "internalType": "uint256",
          "name": "_amount",
          "type": "uint256"
        }
      ],
      "name": "deposit",
      "outputs": [],
      "stateMutability": "nonpayable",
      "type": "function"
    },
    {
      "inputs": [
        {
          "internalType": "uint256",
          "name": "_pid",
          "type": "uint256"
        }
      ],
      "name": "emergencyWithdraw",
      "outputs": [],
      "stateMutability": "nonpayable",
      "type": "function"
    },
    {
      "inputs": [],
      "name": "fly",
      "outputs": [
        {
          "internalType": "contract GIBXToken",
          "name": "",
          "type": "address"
        }
      ],
      "stateMutability": "view",
      "type": "function"
    },
    {
      "inputs": [
        {
          "internalType": "uint256",
          "name": "_from",
          "type": "uint256"
        },
        {
          "internalType": "uint256",
          "name": "_to",
          "type": "uint256"
        }
      ],
      "name": "getMultiplier",
      "outputs": [
        {
          "internalType": "uint256",
          "name": "",
          "type": "uint256"
        }
      ],
      "stateMutability": "view",
      "type": "function"
    },
    {
      "inputs": [],
      "name": "massUpdatePools",
      "outputs": [],
      "stateMutability": "nonpayable",
      "type": "function"
    },
    {
      "inputs": [],
      "name": "owner",
      "outputs": [
        {
          "internalType": "address",
          "name": "",
          "type": "address"
        }
      ],
      "stateMutability": "view",
      "type": "function"
    },
    {
      "inputs": [
        {
          "internalType": "uint256",
          "name": "_pid",
          "type": "uint256"
        },
        {
          "internalType": "address",
          "name": "_user",
          "type": "address"
        }
      ],
      "name": "pendingGIBX",
      "outputs": [
        {
          "internalType": "uint256",
          "name": "",
          "type": "uint256"
        }
      ],
      "stateMutability": "view",
      "type": "function"
    },
    {
      "inputs": [],
      "name": "pendingOwner",
      "outputs": [
        {
          "internalType": "address",
          "name": "",
          "type": "address"
        }
      ],
      "stateMutability": "view",
      "type": "function"
    },
    {
      "inputs": [
        {
          "internalType": "uint256",
          "name": "",
          "type": "uint256"
        }
      ],
      "name": "poolInfo",
      "outputs": [
        {
          "internalType": "contract IERC20",
          "name": "token",
          "type": "address"
        },
        {
          "internalType": "uint256",
          "name": "allocPoint",
          "type": "uint256"
        },
        {
          "internalType": "uint256",
          "name": "lastRewardBlock",
          "type": "uint256"
        },
        {
          "internalType": "uint256",
          "name": "accGIBXPerShare",
          "type": "uint256"
        }
      ],
      "stateMutability": "view",
      "type": "function"
    },
    {
      "inputs": [],
      "name": "poolLength",
      "outputs": [
        {
          "internalType": "uint256",
          "name": "",
          "type": "uint256"
        }
      ],
      "stateMutability": "view",
      "type": "function"
    },
    {
      "inputs": [],
      "name": "renounceOwnership",
      "outputs": [],
      "stateMutability": "nonpayable",
      "type": "function"
    },
    {
      "inputs": [],
      "name": "rewardPerBlock",
      "outputs": [
        {
          "internalType": "uint256",
          "name": "",
          "type": "uint256"
        }
      ],
      "stateMutability": "view",
      "type": "function"
    },
    {
      "inputs": [
        {
          "internalType": "uint256",
          "name": "_pid",
          "type": "uint256"
        },
        {
          "internalType": "uint256",
          "name": "_allocPoint",
          "type": "uint256"
        },
        {
          "internalType": "bool",
          "name": "_withUpdate",
          "type": "bool"
        }
      ],
      "name": "set",
      "outputs": [],
      "stateMutability": "nonpayable",
      "type": "function"
    },
    {
      "inputs": [
        {
          "internalType": "address",
          "name": "pendingOwner_",
          "type": "address"
        }
      ],
      "name": "setPendingOwner",
      "outputs": [],
      "stateMutability": "nonpayable",
      "type": "function"
    },
    {
      "inputs": [],
      "name": "startBlock",
      "outputs": [
        {
          "internalType": "uint256",
          "name": "",
          "type": "uint256"
        }
      ],
      "stateMutability": "view",
      "type": "function"
    },
    {
      "inputs": [],
      "name": "totalAllocPoint",
      "outputs": [
        {
          "internalType": "uint256",
          "name": "",
          "type": "uint256"
        }
      ],
      "stateMutability": "view",
      "type": "function"
    },
    {
      "inputs": [
        {
          "internalType": "uint256",
          "name": "multiplierNumber",
          "type": "uint256"
        }
      ],
      "name": "updateMultiplier",
      "outputs": [],
      "stateMutability": "nonpayable",
      "type": "function"
    },
    {
      "inputs": [
        {
          "internalType": "uint256",
          "name": "_pid",
          "type": "uint256"
        }
      ],
      "name": "updatePool",
      "outputs": [],
      "stateMutability": "nonpayable",
      "type": "function"
    },
    {
      "inputs": [
        {
          "internalType": "uint256",
          "name": "_rewardPerBlock",
          "type": "uint256"
        }
      ],
      "name": "updateRewardPerBlock",
      "outputs": [],
      "stateMutability": "nonpayable",
      "type": "function"
    },
    {
      "inputs": [
        {
          "internalType": "uint256",
          "name": "",
          "type": "uint256"
        },
        {
          "internalType": "address",
          "name": "",
          "type": "address"
        }
      ],
      "name": "userInfo",
      "outputs": [
        {
          "internalType": "uint256",
          "name": "amount",
          "type": "uint256"
        },
        {
          "internalType": "uint256",
          "name": "rewardDebt",
          "type": "uint256"
        }
      ],
      "stateMutability": "view",
      "type": "function"
    },
    {
      "inputs": [
        {
          "internalType": "uint256",
          "name": "_pid",
          "type": "uint256"
        },
        {
          "internalType": "uint256",
          "name": "_amount",
          "type": "uint256"
        }
      ],
      "name": "withdraw",
      "outputs": [],
      "stateMutability": "nonpayable",
      "type": "function"
    }
  ],
  "transactionHash": "0x73486bd6f9564cb247e3844136d74316134eeb4c44557081780fdb4b9014bfb6",
  "args": [
    "0x0fCC29c11b6eBEDafde71e0Ea114Bd1edDf47d23",
    "0xaad0351E32982ab22C3325F41Da318955bD1934e",
    "4000000000000000000",
    10257131
  ],
  "solcInputHash": "d2da3992c7ce11c5ac8aac23ec92f50f",
  "bytecode": "0x608060405260016005556000600a5534801561001a57600080fd5b50604051611b61380380611b618339818101604052608081101561003d57600080fd5b5080516020820151604083015160609093015191929091600061005e6100e6565b600080546001600160a01b0319166001600160a01b0383169081178255604051929350917f8be0079c531659141344cd1fd0a4f28419497f9722a3daafe3b4186f6b6457e0908290a350600280546001600160a01b039586166001600160a01b0319918216179091556003805494909516931692909217909255600491909155600b556100ea565b3390565b611a68806100f96000396000f3fe608060405234801561001057600080fd5b50600436106101735760003560e01c8063630b5ba1116100de5780638dbb1e3a11610097578063e2bbb15811610071578063e2bbb158146103ed578063e30c397814610410578063ebbc496514610418578063febb0f7e1461042057610173565b80638dbb1e3a1461035f57806393f1a40b14610382578063c42069ec146103c757610173565b8063630b5ba11461030c57806364482f7914610314578063715018a61461033f5780638aa28550146103475780638ae39cac1461034f5780638da5cb5b1461035757610173565b8063441a3e7011610130578063441a3e701461025e57806348cd4cb1146102815780634d2e2aff1461028957806351eb05a6146102b55780635312ea8e146102d25780635ffe6146146102ef57610173565b806301f8a97614610178578063081e3eda146101975780631526fe27146101b157806317caf6f1146101fe5780631eaaa045146102065780632c2e3abf1461023a575b600080fd5b6101956004803603602081101561018e57600080fd5b5035610428565b005b61019f61048f565b60408051918252519081900360200190f35b6101ce600480360360208110156101c757600080fd5b5035610495565b604080516001600160a01b0390951685526020850193909352838301919091526060830152519081900360800190f35b61019f6104d9565b6101956004803603606081101561021c57600080fd5b508035906001600160a01b03602082013516906040013515156104df565b610242610746565b604080516001600160a01b039092168252519081900360200190f35b6101956004803603604081101561027457600080fd5b5080359060200135610755565b61019f610938565b61019f6004803603604081101561029f57600080fd5b50803590602001356001600160a01b031661093e565b610195600480360360208110156102cb57600080fd5b5035610aa8565b610195600480360360208110156102e857600080fd5b5035610c4b565b6101956004803603602081101561030557600080fd5b5035610d6b565b610195610dd2565b6101956004803603606081101561032a57600080fd5b50803590602081013590604001351515610df5565b610195610edb565b61019f610fe1565b61019f610fe7565b610242610fed565b61019f6004803603604081101561037557600080fd5b5080359060200135610ffc565b6103ae6004803603604081101561039857600080fd5b50803590602001356001600160a01b0316611017565b6040805192835260208301919091528051918290030190f35b610195600480360360208110156103dd57600080fd5b50356001600160a01b031661103b565b6101956004803603604081101561040357600080fd5b508035906020013561113e565b6102426112d4565b6101956112e3565b6102426113dc565b6104306113eb565b6001600160a01b0316610441610fed565b6001600160a01b03161461048a576040805162461bcd60e51b81526020600482018190526024820152600080516020611999833981519152604482015290519081900360640190fd5b600455565b60065490565b600681815481106104a557600080fd5b600091825260209091206004909102018054600182015460028301546003909301546001600160a01b039092169350919084565b600a5481565b6104e76113eb565b6001600160a01b03166104f8610fed565b6001600160a01b031614610541576040805162461bcd60e51b81526020600482018190526024820152600080516020611999833981519152604482015290519081900360640190fd5b801561054f5761054f610dd2565b6003546001600160a01b03838116911614156105a4576040805162461bcd60e51b815260206004820152600f60248201526e31b0b7103737ba1030b232103130b960891b604482015290519081900360640190fd5b6001600160a01b03821660009081526008602052604090205460ff1615610604576040805162461bcd60e51b815260206004820152600f60248201526e1d1bdad95b881b9bdd08195e1a5cdd608a1b604482015290519081900360640190fd5b6000600b54431161061757600b54610619565b435b600a5490915061062990856113ef565b600a55600680546001600160a01b03948516600081815260076020908152604080832085905580516080810182528481528083019a8b52808201978852606081018481526001808801895597855290517ff652222313e28459528d920b65115c16c04f3efc82aaedc97be59f3f377c0d3f600490970296870180546001600160a01b03191691909b161790995598517ff652222313e28459528d920b65115c16c04f3efc82aaedc97be59f3f377c0d4085015594517ff652222313e28459528d920b65115c16c04f3efc82aaedc97be59f3f377c0d4184015595517ff652222313e28459528d920b65115c16c04f3efc82aaedc97be59f3f377c0d42909201919091558452600890915292909120805460ff191690921790915550565b6002546001600160a01b031681565b60006006838154811061076457fe5b6000918252602080832086845260098252604080852033865290925292208054600490920290920192508311156107d7576040805162461bcd60e51b81526020600482015260126024820152711dda5d1a191c985dce881b9bdd0819dbdbd960721b604482015290519081900360640190fd5b6107e084610aa8565b600061081a826001015461081464e8d4a5100061080e8760030154876000015461144990919063ffffffff16565b906114a2565b90611509565b9050801561082c5761082c3382611566565b831561085657815461083e9085611509565b82558254610856906001600160a01b031633866115d7565b600383015482546108719164e8d4a510009161080e91611449565b600183015560025483546001600160a01b03908116911614156108fa5760035460408051632770a7eb60e21b81523360048201526024810187905290516001600160a01b0390921691639dc29fac9160448082019260009290919082900301818387803b1580156108e157600080fd5b505af11580156108f5573d6000803e3d6000fd5b505050505b604080518581529051869133917ff279e6a1f5e320cca91135676d9cb6e44ca8a08c0b88342bcdb1144f6511b5689181900360200190a35050505050565b600b5481565b6000806006848154811061094e57fe5b600091825260208083208784526009825260408085206001600160a01b03898116875290845281862060049586029093016003810154815484516370a0823160e01b81523098810198909852935191985093969395939492909116926370a08231926024808301939192829003018186803b1580156109cc57600080fd5b505afa1580156109e0573d6000803e3d6000fd5b505050506040513d60208110156109f657600080fd5b5051600285015490915043118015610a0d57508015155b15610a73576000610a22856002015443610ffc565b90506000610a4f600a5461080e8860010154610a496004548761144990919063ffffffff16565b90611449565b9050610a6e610a678461080e8464e8d4a51000611449565b85906113ef565b935050505b610a9b836001015461081464e8d4a5100061080e86886000015461144990919063ffffffff16565b9450505050505b92915050565b600060068281548110610ab757fe5b9060005260206000209060040201905080600201544311610ad85750610c48565b8054604080516370a0823160e01b815230600482015290516000926001600160a01b0316916370a08231916024808301926020929190829003018186803b158015610b2257600080fd5b505afa158015610b36573d6000803e3d6000fd5b505050506040513d6020811015610b4c57600080fd5b5051905080610b62575043600290910155610c48565b6000610b72836002015443610ffc565b90506000610b99600a5461080e8660010154610a496004548761144990919063ffffffff16565b6002546003546040805163da1919b360e01b81526001600160a01b03928316600482015260248101859052905193945091169163da1919b39160448082019260009290919082900301818387803b158015610bf357600080fd5b505af1158015610c07573d6000803e3d6000fd5b50505050610c35610c2a8461080e64e8d4a510008561144990919063ffffffff16565b6003860154906113ef565b6003850155505043600290920191909155505b50565b600060068281548110610c5a57fe5b600091825260208083208584526009825260408085203380875293528420805485825560018201959095556004909302018054909450919291610caa916001600160a01b039190911690836115d7565b60025483546001600160a01b0390811691161415610d2e5760035460408051632770a7eb60e21b81523360048201526024810184905290516001600160a01b0390921691639dc29fac9160448082019260009290919082900301818387803b158015610d1557600080fd5b505af1158015610d29573d6000803e3d6000fd5b505050505b604080518281529051859133917fbb757047c2b5f3974fe26b7c10f732e7bce710b0952a71082702781e62ae05959181900360200190a350505050565b610d736113eb565b6001600160a01b0316610d84610fed565b6001600160a01b031614610dcd576040805162461bcd60e51b81526020600482018190526024820152600080516020611999833981519152604482015290519081900360640190fd5b600555565b60065460005b81811015610df157610de981610aa8565b600101610dd8565b5050565b610dfd6113eb565b6001600160a01b0316610e0e610fed565b6001600160a01b031614610e57576040805162461bcd60e51b81526020600482018190526024820152600080516020611999833981519152604482015290519081900360640190fd5b8015610e6557610e65610dd2565b600060068481548110610e7457fe5b90600052602060002090600402016001015490508260068581548110610e9657fe5b906000526020600020906004020160010181905550828114610ed557610ed183610ecb83600a5461150990919063ffffffff16565b906113ef565b600a555b50505050565b610ee36113eb565b6001600160a01b0316610ef4610fed565b6001600160a01b031614610f3d576040805162461bcd60e51b81526020600482018190526024820152600080516020611999833981519152604482015290519081900360640190fd5b600080546040516001600160a01b03909116907f8be0079c531659141344cd1fd0a4f28419497f9722a3daafe3b4186f6b6457e0908390a3600080546001600160a01b03191690556001546001600160a01b031615610fdf576001546040516000916001600160a01b0316907f4465959e7ec1f32e3ebd831ac2459ad6ef4b1d54a83f108a7068e69e62f0702f908390a3600180546001600160a01b03191690555b565b60055481565b60045481565b6000546001600160a01b031690565b60055460009061101090610a498486611509565b9392505050565b60096020908152600092835260408084209091529082529020805460019091015482565b6110436113eb565b6001600160a01b0316611054610fed565b6001600160a01b03161461109d576040805162461bcd60e51b81526020600482018190526024820152600080516020611999833981519152604482015290519081900360640190fd5b6001600160a01b0381166110e25760405162461bcd60e51b8152600401808060200182810382526029815260200180611a0a6029913960400191505060405180910390fd5b6001546040516001600160a01b038084169216907f4465959e7ec1f32e3ebd831ac2459ad6ef4b1d54a83f108a7068e69e62f0702f90600090a3600180546001600160a01b0319166001600160a01b0392909216919091179055565b60006006838154811061114d57fe5b6000918252602080832086845260098252604080852033865290925292206004909102909101915061117e84610aa8565b8054156111c75760006111b3826001015461081464e8d4a5100061080e8760030154876000015461144990919063ffffffff16565b905080156111c5576111c53382611566565b505b82156111f35781546111e4906001600160a01b031633308661162e565b80546111f090846113ef565b81555b6003820154815461120e9164e8d4a510009161080e91611449565b600182015560025482546001600160a01b039081169116141561129757600354604080516340c10f1960e01b81523360048201526024810186905290516001600160a01b03909216916340c10f199160448082019260009290919082900301818387803b15801561127e57600080fd5b505af1158015611292573d6000803e3d6000fd5b505050505b604080518481529051859133917f90890809c654f11d6e72a28fa60149770a0d11ec6c92319d6ceb2bb0a4ea1a159181900360200190a350505050565b6001546001600160a01b031690565b6112eb6113eb565b6001600160a01b03166112fc6112d4565b6001600160a01b0316146113415760405162461bcd60e51b81526004018080602001828103825260278152602001806119b96027913960400191505060405180910390fd5b600154600080546040516001600160a01b0393841693909116917f8be0079c531659141344cd1fd0a4f28419497f9722a3daafe3b4186f6b6457e091a3600154600080546001600160a01b0319166001600160a01b0390921691821781556040519091907f4465959e7ec1f32e3ebd831ac2459ad6ef4b1d54a83f108a7068e69e62f0702f908390a3600180546001600160a01b0319169055565b6003546001600160a01b031681565b3390565b600082820183811015611010576040805162461bcd60e51b815260206004820152601b60248201527f536166654d6174683a206164646974696f6e206f766572666c6f770000000000604482015290519081900360640190fd5b60008261145857506000610aa2565b8282028284828161146557fe5b04146110105760405162461bcd60e51b81526004018080602001828103825260218152602001806119786021913960400191505060405180910390fd5b60008082116114f8576040805162461bcd60e51b815260206004820152601a60248201527f536166654d6174683a206469766973696f6e206279207a65726f000000000000604482015290519081900360640190fd5b81838161150157fe5b049392505050565b600082821115611560576040805162461bcd60e51b815260206004820152601e60248201527f536166654d6174683a207375627472616374696f6e206f766572666c6f770000604482015290519081900360640190fd5b50900390565b600354604080516351f7cc3160e01b81526001600160a01b03858116600483015260248201859052915191909216916351f7cc3191604480830192600092919082900301818387803b1580156115bb57600080fd5b505af11580156115cf573d6000803e3d6000fd5b505050505050565b604080516001600160a01b038416602482015260448082018490528251808303909101815260649091019091526020810180516001600160e01b031663a9059cbb60e01b179052611629908490611684565b505050565b604080516001600160a01b0380861660248301528416604482015260648082018490528251808303909101815260849091019091526020810180516001600160e01b03166323b872dd60e01b179052610ed59085905b60006116d9826040518060400160405280602081526020017f5361666545524332303a206c6f772d6c6576656c2063616c6c206661696c6564815250856001600160a01b03166117359092919063ffffffff16565b805190915015611629578080602001905160208110156116f857600080fd5b50516116295760405162461bcd60e51b815260040180806020018281038252602a8152602001806119e0602a913960400191505060405180910390fd5b6060611744848460008561174c565b949350505050565b60608247101561178d5760405162461bcd60e51b81526004018080602001828103825260268152602001806119526026913960400191505060405180910390fd5b611796856118a7565b6117e7576040805162461bcd60e51b815260206004820152601d60248201527f416464726573733a2063616c6c20746f206e6f6e2d636f6e7472616374000000604482015290519081900360640190fd5b600080866001600160a01b031685876040518082805190602001908083835b602083106118255780518252601f199092019160209182019101611806565b6001836020036101000a03801982511681845116808217855250505050505090500191505060006040518083038185875af1925050503d8060008114611887576040519150601f19603f3d011682016040523d82523d6000602084013e61188c565b606091505b509150915061189c8282866118ad565b979650505050505050565b3b151590565b606083156118bc575081611010565b8251156118cc5782518084602001fd5b8160405162461bcd60e51b81526004018080602001828103825283818151815260200191508051906020019080838360005b838110156119165781810151838201526020016118fe565b50505050905090810190601f1680156119435780820380516001836020036101000a031916815260200191505b509250505060405180910390fdfe416464726573733a20696e73756666696369656e742062616c616e636520666f722063616c6c536166654d6174683a206d756c7469706c69636174696f6e206f766572666c6f774f776e61626c653a2063616c6c6572206973206e6f7420746865206f776e65724f776e61626c653a2063616c6c6572206973206e6f74207468652070656e64696e674f776e65725361666545524332303a204552433230206f7065726174696f6e20646964206e6f7420737563636565644f776e61626c653a2070656e64696e674f776e657220697320746865207a65726f2061646472657373a264697066735822122029c609fd76597ab63b816deb55a380bb83723b1c994efa01e142753c26039f3b64736f6c63430007060033",
  "devdoc": {
    "kind": "dev",
    "methods": {},
    "version": 1
  },
  "userdoc": {
    "kind": "user",
    "methods": {},
    "version": 1
  },
  "storageLayout": {
    "storage": [
      {
        "astId": 2335,
        "contract": "contracts/pool/PoolChef.sol:PoolChef",
        "label": "_owner",
        "offset": 0,
        "slot": "0",
        "type": "t_address"
      },
      {
        "astId": 2337,
        "contract": "contracts/pool/PoolChef.sol:PoolChef",
        "label": "_pendingOwner",
        "offset": 0,
        "slot": "1",
        "type": "t_address"
      },
      {
        "astId": 5997,
        "contract": "contracts/pool/PoolChef.sol:PoolChef",
        "label": "fly",
        "offset": 0,
        "slot": "2",
        "type": "t_contract(GIBXToken)14574"
      },
      {
        "astId": 5999,
        "contract": "contracts/pool/PoolChef.sol:PoolChef",
        "label": "bar",
        "offset": 0,
        "slot": "3",
        "type": "t_contract(GIBXBar)5965"
      },
      {
        "astId": 6001,
        "contract": "contracts/pool/PoolChef.sol:PoolChef",
        "label": "rewardPerBlock",
        "offset": 0,
        "slot": "4",
        "type": "t_uint256"
      },
      {
        "astId": 6004,
        "contract": "contracts/pool/PoolChef.sol:PoolChef",
        "label": "BONUS_MULTIPLIER",
        "offset": 0,
        "slot": "5",
        "type": "t_uint256"
      },
      {
        "astId": 6007,
        "contract": "contracts/pool/PoolChef.sol:PoolChef",
        "label": "poolInfo",
        "offset": 0,
        "slot": "6",
        "type": "t_array(t_struct(PoolInfo)5995_storage)dyn_storage"
      },
      {
        "astId": 6011,
        "contract": "contracts/pool/PoolChef.sol:PoolChef",
        "label": "pidOfToken",
        "offset": 0,
        "slot": "7",
        "type": "t_mapping(t_address,t_uint256)"
      },
      {
        "astId": 6015,
        "contract": "contracts/pool/PoolChef.sol:PoolChef",
        "label": "existToken",
        "offset": 0,
        "slot": "8",
        "type": "t_mapping(t_address,t_bool)"
      },
      {
        "astId": 6021,
        "contract": "contracts/pool/PoolChef.sol:PoolChef",
        "label": "userInfo",
        "offset": 0,
        "slot": "9",
        "type": "t_mapping(t_uint256,t_mapping(t_address,t_struct(UserInfo)5986_storage))"
      },
      {
        "astId": 6024,
        "contract": "contracts/pool/PoolChef.sol:PoolChef",
        "label": "totalAllocPoint",
        "offset": 0,
        "slot": "10",
        "type": "t_uint256"
      },
      {
        "astId": 6026,
        "contract": "contracts/pool/PoolChef.sol:PoolChef",
        "label": "startBlock",
        "offset": 0,
        "slot": "11",
        "type": "t_uint256"
      }
    ],
    "types": {
      "t_address": {
        "encoding": "inplace",
        "label": "address",
        "numberOfBytes": "20"
      },
      "t_array(t_struct(PoolInfo)5995_storage)dyn_storage": {
        "base": "t_struct(PoolInfo)5995_storage",
        "encoding": "dynamic_array",
        "label": "struct PoolChef.PoolInfo[]",
        "numberOfBytes": "32"
      },
      "t_bool": {
        "encoding": "inplace",
        "label": "bool",
        "numberOfBytes": "1"
      },
      "t_contract(GIBXBar)5965": {
        "encoding": "inplace",
        "label": "contract GIBXBar",
        "numberOfBytes": "20"
      },
      "t_contract(GIBXToken)14574": {
        "encoding": "inplace",
        "label": "contract GIBXToken",
        "numberOfBytes": "20"
      },
      "t_contract(IERC20)1263": {
        "encoding": "inplace",
        "label": "contract IERC20",
        "numberOfBytes": "20"
      },
      "t_mapping(t_address,t_bool)": {
        "encoding": "mapping",
        "key": "t_address",
        "label": "mapping(address => bool)",
        "numberOfBytes": "32",
        "value": "t_bool"
      },
      "t_mapping(t_address,t_struct(UserInfo)5986_storage)": {
        "encoding": "mapping",
        "key": "t_address",
        "label": "mapping(address => struct PoolChef.UserInfo)",
        "numberOfBytes": "32",
        "value": "t_struct(UserInfo)5986_storage"
      },
      "t_mapping(t_address,t_uint256)": {
        "encoding": "mapping",
        "key": "t_address",
        "label": "mapping(address => uint256)",
        "numberOfBytes": "32",
        "value": "t_uint256"
      },
      "t_mapping(t_uint256,t_mapping(t_address,t_struct(UserInfo)5986_storage))": {
        "encoding": "mapping",
        "key": "t_uint256",
        "label": "mapping(uint256 => mapping(address => struct PoolChef.UserInfo))",
        "numberOfBytes": "32",
        "value": "t_mapping(t_address,t_struct(UserInfo)5986_storage)"
      },
      "t_struct(PoolInfo)5995_storage": {
        "encoding": "inplace",
        "label": "struct PoolChef.PoolInfo",
        "members": [
          {
            "astId": 5988,
            "contract": "contracts/pool/PoolChef.sol:PoolChef",
            "label": "token",
            "offset": 0,
            "slot": "0",
            "type": "t_contract(IERC20)1263"
          },
          {
            "astId": 5990,
            "contract": "contracts/pool/PoolChef.sol:PoolChef",
            "label": "allocPoint",
            "offset": 0,
            "slot": "1",
            "type": "t_uint256"
          },
          {
            "astId": 5992,
            "contract": "contracts/pool/PoolChef.sol:PoolChef",
            "label": "lastRewardBlock",
            "offset": 0,
            "slot": "2",
            "type": "t_uint256"
          },
          {
            "astId": 5994,
            "contract": "contracts/pool/PoolChef.sol:PoolChef",
            "label": "accGIBXPerShare",
            "offset": 0,
            "slot": "3",
            "type": "t_uint256"
          }
        ],
        "numberOfBytes": "128"
      },
      "t_struct(UserInfo)5986_storage": {
        "encoding": "inplace",
        "label": "struct PoolChef.UserInfo",
        "members": [
          {
            "astId": 5983,
            "contract": "contracts/pool/PoolChef.sol:PoolChef",
            "label": "amount",
            "offset": 0,
            "slot": "0",
            "type": "t_uint256"
          },
          {
            "astId": 5985,
            "contract": "contracts/pool/PoolChef.sol:PoolChef",
            "label": "rewardDebt",
            "offset": 0,
            "slot": "1",
            "type": "t_uint256"
          }
        ],
        "numberOfBytes": "64"
      },
      "t_uint256": {
        "encoding": "inplace",
        "label": "uint256",
        "numberOfBytes": "32"
      }
    }
  }
}