{
  "address": "0x2008B6d863F5f5a678274Cd3fB254fe191d65129",
  "abi": [
    {
      "inputs": [
        {
          "internalType": "contract GIBXToken",
          "name": "_vdrToken",
          "type": "address"
        },
        {
          "internalType": "contract IGIBXFactory",
          "name": "_factory",
          "type": "address"
        },
        {
          "internalType": "contract IOracle",
          "name": "_oracle",
          "type": "address"
        },
        {
          "internalType": "address",
          "name": "_router",
          "type": "address"
        },
        {
          "internalType": "address",
          "name": "_targetToken",
          "type": "address"
        },
        {
          "internalType": "uint256",
          "name": "_flyPerBlock",
          "type": "uint256"
        },
        {
          "internalType": "uint256",
          "name": "_startBlock",
          "type": "uint256"
        }
      ],
      "stateMutability": "nonpayable",
      "type": "constructor"
    },
    {
      "anonymous": false,
      "inputs": [
        {
          "indexed": true,
          "internalType": "address",
          "name": "previousPendingOwner",
          "type": "address"
        },
        {
          "indexed": true,
          "internalType": "address",
          "name": "newPendingOwner",
          "type": "address"
        }
      ],
      "name": "ChangePendingOwner",
      "type": "event"
    },
    {
      "anonymous": false,
      "inputs": [
        {
          "indexed": true,
          "internalType": "address",
          "name": "previousOwner",
          "type": "address"
        },
        {
          "indexed": true,
          "internalType": "address",
          "name": "newOwner",
          "type": "address"
        }
      ],
      "name": "OwnershipTransferred",
      "type": "event"
    },
    {
      "inputs": [],
      "name": "acceptOwner",
      "outputs": [],
      "stateMutability": "nonpayable",
      "type": "function"
    },
    {
      "inputs": [
        {
          "internalType": "uint256",
          "name": "_allocPoint",
          "type": "uint256"
        },
        {
          "internalType": "address",
          "name": "_pair",
          "type": "address"
        },
        {
          "internalType": "bool",
          "name": "_withUpdate",
          "type": "bool"
        }
      ],
      "name": "addPair",
      "outputs": [],
      "stateMutability": "nonpayable",
      "type": "function"
    },
    {
      "inputs": [
        {
          "internalType": "address",
          "name": "_addToken",
          "type": "address"
        }
      ],
      "name": "addWhitelist",
      "outputs": [
        {
          "internalType": "bool",
          "name": "",
          "type": "bool"
        }
      ],
      "stateMutability": "nonpayable",
      "type": "function"
    },
    {
      "inputs": [
        {
          "internalType": "address",
          "name": "_delToken",
          "type": "address"
        }
      ],
      "name": "delWhitelist",
      "outputs": [
        {
          "internalType": "bool",
          "name": "",
          "type": "bool"
        }
      ],
      "stateMutability": "nonpayable",
      "type": "function"
    },
    {
      "inputs": [],
      "name": "factory",
      "outputs": [
        {
          "internalType": "contract IGIBXFactory",
          "name": "",
          "type": "address"
        }
      ],
      "stateMutability": "view",
      "type": "function"
    },
    {
      "inputs": [],
      "name": "flyPerBlock",
      "outputs": [
        {
          "internalType": "uint256",
          "name": "",
          "type": "uint256"
        }
      ],
      "stateMutability": "view",
      "type": "function"
    },
    {
      "inputs": [
        {
          "internalType": "uint256",
          "name": "_lastRewardBlock",
          "type": "uint256"
        }
      ],
      "name": "getGIBXReward",
      "outputs": [
        {
          "internalType": "uint256",
          "name": "",
          "type": "uint256"
        }
      ],
      "stateMutability": "view",
      "type": "function"
    },
    {
      "inputs": [
        {
          "internalType": "uint256",
          "name": "_pid",
          "type": "uint256"
        }
      ],
      "name": "getPoolInfo",
      "outputs": [
        {
          "internalType": "address",
          "name": "",
          "type": "address"
        },
        {
          "internalType": "address",
          "name": "",
          "type": "address"
        },
        {
          "internalType": "uint256",
          "name": "",
          "type": "uint256"
        },
        {
          "internalType": "uint256",
          "name": "",
          "type": "uint256"
        },
        {
          "internalType": "uint256",
          "name": "",
          "type": "uint256"
        },
        {
          "internalType": "uint256",
          "name": "",
          "type": "uint256"
        }
      ],
      "stateMutability": "view",
      "type": "function"
    },
    {
      "inputs": [
        {
          "internalType": "address",
          "name": "outputToken",
          "type": "address"
        },
        {
          "internalType": "uint256",
          "name": "outputAmount",
          "type": "uint256"
        },
        {
          "internalType": "address",
          "name": "anchorToken",
          "type": "address"
        }
      ],
      "name": "getQuantity",
      "outputs": [
        {
          "internalType": "uint256",
          "name": "",
          "type": "uint256"
        }
      ],
      "stateMutability": "view",
      "type": "function"
    },
    {
      "inputs": [
        {
          "internalType": "uint256",
          "name": "_pid",
          "type": "uint256"
        },
        {
          "internalType": "address",
          "name": "_user",
          "type": "address"
        }
      ],
      "name": "getUserReward",
      "outputs": [
        {
          "internalType": "uint256",
          "name": "",
          "type": "uint256"
        },
        {
          "internalType": "uint256",
          "name": "",
          "type": "uint256"
        }
      ],
      "stateMutability": "view",
      "type": "function"
    },
    {
      "inputs": [
        {
          "internalType": "uint256",
          "name": "_index",
          "type": "uint256"
        }
      ],
      "name": "getWhitelist",
      "outputs": [
        {
          "internalType": "address",
          "name": "",
          "type": "address"
        }
      ],
      "stateMutability": "view",
      "type": "function"
    },
    {
      "inputs": [],
      "name": "getWhitelistLength",
      "outputs": [
        {
          "internalType": "uint256",
          "name": "",
          "type": "uint256"
        }
      ],
      "stateMutability": "view",
      "type": "function"
    },
    {
      "inputs": [],
      "name": "halvingPeriod",
      "outputs": [
        {
          "internalType": "uint256",
          "name": "",
          "type": "uint256"
        }
      ],
      "stateMutability": "view",
      "type": "function"
    },
    {
      "inputs": [
        {
          "internalType": "address",
          "name": "_token",
          "type": "address"
        }
      ],
      "name": "isWhitelist",
      "outputs": [
        {
          "internalType": "bool",
          "name": "",
          "type": "bool"
        }
      ],
      "stateMutability": "view",
      "type": "function"
    },
    {
      "inputs": [],
      "name": "massMintPools",
      "outputs": [],
      "stateMutability": "nonpayable",
      "type": "function"
    },
    {
      "inputs": [
        {
          "internalType": "uint256",
          "name": "_pid",
          "type": "uint256"
        }
      ],
      "name": "mint",
      "outputs": [
        {
          "internalType": "bool",
          "name": "",
          "type": "bool"
        }
      ],
      "stateMutability": "nonpayable",
      "type": "function"
    },
    {
      "inputs": [],
      "name": "oracle",
      "outputs": [
        {
          "internalType": "contract IOracle",
          "name": "",
          "type": "address"
        }
      ],
      "stateMutability": "view",
      "type": "function"
    },
    {
      "inputs": [],
      "name": "owner",
      "outputs": [
        {
          "internalType": "address",
          "name": "",
          "type": "address"
        }
      ],
      "stateMutability": "view",
      "type": "function"
    },
    {
      "inputs": [
        {
          "internalType": "address",
          "name": "_to",
          "type": "address"
        },
        {
          "internalType": "uint256",
          "name": "_amount",
          "type": "uint256"
        }
      ],
      "name": "ownerWithdraw",
      "outputs": [],
      "stateMutability": "nonpayable",
      "type": "function"
    },
    {
      "inputs": [
        {
          "internalType": "address",
          "name": "",
          "type": "address"
        }
      ],
      "name": "pairOfPid",
      "outputs": [
        {
          "internalType": "uint256",
          "name": "",
          "type": "uint256"
        }
      ],
      "stateMutability": "view",
      "type": "function"
    },
    {
      "inputs": [],
      "name": "pendingOwner",
      "outputs": [
        {
          "internalType": "address",
          "name": "",
          "type": "address"
        }
      ],
      "stateMutability": "view",
      "type": "function"
    },
    {
      "inputs": [
        {
          "internalType": "uint256",
          "name": "blockNumber",
          "type": "uint256"
        }
      ],
      "name": "phase",
      "outputs": [
        {
          "internalType": "uint256",
          "name": "",
          "type": "uint256"
        }
      ],
      "stateMutability": "view",
      "type": "function"
    },
    {
      "inputs": [],
      "name": "phase",
      "outputs": [
        {
          "internalType": "uint256",
          "name": "",
          "type": "uint256"
        }
      ],
      "stateMutability": "view",
      "type": "function"
    },
    {
      "inputs": [
        {
          "internalType": "uint256",
          "name": "",
          "type": "uint256"
        }
      ],
      "name": "poolInfo",
      "outputs": [
        {
          "internalType": "address",
          "name": "pair",
          "type": "address"
        },
        {
          "internalType": "uint256",
          "name": "quantity",
          "type": "uint256"
        },
        {
          "internalType": "uint256",
          "name": "totalQuantity",
          "type": "uint256"
        },
        {
          "internalType": "uint256",
          "name": "allocPoint",
          "type": "uint256"
        },
        {
          "internalType": "uint256",
          "name": "allocMdxAmount",
          "type": "uint256"
        },
        {
          "internalType": "uint256",
          "name": "lastRewardBlock",
          "type": "uint256"
        }
      ],
      "stateMutability": "view",
      "type": "function"
    },
    {
      "inputs": [],
      "name": "poolLength",
      "outputs": [
        {
          "internalType": "uint256",
          "name": "",
          "type": "uint256"
        }
      ],
      "stateMutability": "view",
      "type": "function"
    },
    {
      "inputs": [],
      "name": "renounceOwnership",
      "outputs": [],
      "stateMutability": "nonpayable",
      "type": "function"
    },
    {
      "inputs": [],
      "name": "reward",
      "outputs": [
        {
          "internalType": "uint256",
          "name": "",
          "type": "uint256"
        }
      ],
      "stateMutability": "view",
      "type": "function"
    },
    {
      "inputs": [
        {
          "internalType": "uint256",
          "name": "blockNumber",
          "type": "uint256"
        }
      ],
      "name": "reward",
      "outputs": [
        {
          "internalType": "uint256",
          "name": "",
          "type": "uint256"
        }
      ],
      "stateMutability": "view",
      "type": "function"
    },
    {
      "inputs": [],
      "name": "router",
      "outputs": [
        {
          "internalType": "address",
          "name": "",
          "type": "address"
        }
      ],
      "stateMutability": "view",
      "type": "function"
    },
    {
      "inputs": [
        {
          "internalType": "uint256",
          "name": "_newPerBlock",
          "type": "uint256"
        }
      ],
      "name": "setGIBXPerBlock",
      "outputs": [],
      "stateMutability": "nonpayable",
      "type": "function"
    },
    {
      "inputs": [
        {
          "internalType": "uint256",
          "name": "_block",
          "type": "uint256"
        }
      ],
      "name": "setHalvingPeriod",
      "outputs": [],
      "stateMutability": "nonpayable",
      "type": "function"
    },
    {
      "inputs": [
        {
          "internalType": "contract IOracle",
          "name": "_oracle",
          "type": "address"
        }
      ],
      "name": "setOracle",
      "outputs": [],
      "stateMutability": "nonpayable",
      "type": "function"
    },
    {
      "inputs": [
        {
          "internalType": "uint256",
          "name": "_pid",
          "type": "uint256"
        },
        {
          "internalType": "uint256",
          "name": "_allocPoint",
          "type": "uint256"
        },
        {
          "internalType": "bool",
          "name": "_withUpdate",
          "type": "bool"
        }
      ],
      "name": "setPair",
      "outputs": [],
      "stateMutability": "nonpayable",
      "type": "function"
    },
    {
      "inputs": [
        {
          "internalType": "address",
          "name": "pendingOwner_",
          "type": "address"
        }
      ],
      "name": "setPendingOwner",
      "outputs": [],
      "stateMutability": "nonpayable",
      "type": "function"
    },
    {
      "inputs": [
        {
          "internalType": "address",
          "name": "newRouter",
          "type": "address"
        }
      ],
      "name": "setRouter",
      "outputs": [],
      "stateMutability": "nonpayable",
      "type": "function"
    },
    {
      "inputs": [],
      "name": "startBlock",
      "outputs": [
        {
          "internalType": "uint256",
          "name": "",
          "type": "uint256"
        }
      ],
      "stateMutability": "view",
      "type": "function"
    },
    {
      "inputs": [
        {
          "internalType": "address",
          "name": "account",
          "type": "address"
        },
        {
          "internalType": "address",
          "name": "input",
          "type": "address"
        },
        {
          "internalType": "address",
          "name": "output",
          "type": "address"
        },
        {
          "internalType": "uint256",
          "name": "amount",
          "type": "uint256"
        }
      ],
      "name": "swap",
      "outputs": [
        {
          "internalType": "bool",
          "name": "",
          "type": "bool"
        }
      ],
      "stateMutability": "nonpayable",
      "type": "function"
    },
    {
      "inputs": [],
      "name": "takerWithdraw",
      "outputs": [],
      "stateMutability": "nonpayable",
      "type": "function"
    },
    {
      "inputs": [],
      "name": "targetToken",
      "outputs": [
        {
          "internalType": "address",
          "name": "",
          "type": "address"
        }
      ],
      "stateMutability": "view",
      "type": "function"
    },
    {
      "inputs": [],
      "name": "totalAllocPoint",
      "outputs": [
        {
          "internalType": "uint256",
          "name": "",
          "type": "uint256"
        }
      ],
      "stateMutability": "view",
      "type": "function"
    },
    {
      "inputs": [
        {
          "internalType": "uint256",
          "name": "",
          "type": "uint256"
        },
        {
          "internalType": "address",
          "name": "",
          "type": "address"
        }
      ],
      "name": "userInfo",
      "outputs": [
        {
          "internalType": "uint256",
          "name": "quantity",
          "type": "uint256"
        },
        {
          "internalType": "uint256",
          "name": "blockNumber",
          "type": "uint256"
        }
      ],
      "stateMutability": "view",
      "type": "function"
    },
    {
      "inputs": [],
      "name": "vdrToken",
      "outputs": [
        {
          "internalType": "contract GIBXToken",
          "name": "",
          "type": "address"
        }
      ],
      "stateMutability": "view",
      "type": "function"
    }
  ],
  "transactionHash": "0x28eae717f9a2505147dd5805526617be085d0add41bb1482edee7397a668c489",
  "args": [
    "0x0fCC29c11b6eBEDafde71e0Ea114Bd1edDf47d23",
    "0x1f598e9D022e5df76070Bea8BC94E0347f56e567",
    "0x0E3c939cc14e5797aEaF7718210A8e94F20BA374",
    "0x02332C69DeBf4EdA2857E6146cA87425f1F432e8",
    "0x55d398326f99059fF775485246999027B3197955",
    "8000000000000000000",
    10257033
  ],
  "solcInputHash": "d2da3992c7ce11c5ac8aac23ec92f50f",
  "bytecode": "0x60806040526250334060065560006007553480156200001d57600080fd5b5060405162002cd638038062002cd6833981810160405260e08110156200004357600080fd5b508051602082015160408301516060840151608085015160a086015160c090960151949593949293919290919060006200007c62000289565b600080546001600160a01b0319166001600160a01b0383169081178255604051929350917f8be0079c531659141344cd1fd0a4f28419497f9722a3daafe3b4186f6b6457e0908290a3506001600160a01b03871662000114576040805162461bcd60e51b815260206004820152600f60248201526e696c6c6567616c206164647265737360881b604482015290519081900360640190fd5b600b80546001600160a01b0319166001600160a01b038981169190911790915586166200017a576040805162461bcd60e51b815260206004820152600f60248201526e696c6c6567616c206164647265737360881b604482015290519081900360640190fd5b600a80546001600160a01b0319166001600160a01b03888116919091179091558516620001e0576040805162461bcd60e51b815260206004820152600f60248201526e696c6c6567616c206164647265737360881b604482015290519081900360640190fd5b600880546001600160a01b0319166001600160a01b0387811691909117909155841662000246576040805162461bcd60e51b815260206004820152600f60248201526e696c6c6567616c206164647265737360881b604482015290519081900360640190fd5b600980546001600160a01b039586166001600160a01b031991821617909155600c805494909516931692909217909255600491909155600555506200028d915050565b3390565b612a39806200029d6000396000f3fe608060405234801561001057600080fd5b506004361061025e5760003560e01c8063a0712d6811610146578063c45a0155116100c3578063e30c397811610087578063e30c3978146106a9578063ebbc4965146106b1578063ebdad6c2146106b9578063f80f5dd5146106d6578063f887ea40146106fc578063f9d181f9146107045761025e565b8063c45a01551461063f578063c683630d14610647578063d9c88e141461066d578063dac8de9b14610699578063e295025d146106a15761025e565b8063b1c9fe6e1161010a578063b1c9fe6e146105c6578063b5ec5c99146105ce578063b872dd0e146105eb578063c0d78655146105f3578063c42069ec146106195761025e565b8063a0712d6814610512578063a13202e91461052f578063a7ef67f614610537578063a9678a181461056d578063a9fb763c146105a95761025e565b806348cd4cb1116101df5780638da5cb5b116101a35780638da5cb5b146104625780638e3a0b561461046a57806393f1a40b1461048757806396db752a146104b357806397ecfaab146104d05780639f4ece2e1461050a5761025e565b806348cd4cb11461041c5780635a3e251f14610424578063715018a61461042c5780637adbf973146104345780637dc0d1d01461045a5761025e565b8063190cf6c911610226578063190cf6c9146103225780632099920e1461034f578063228cb733146103945780632f380b351461039c578063327107f7146103f85761025e565b80630495de5014610263578063081e3eda1461029b578063135f8aa7146102a35780631526fe27146102c057806317caf6f11461031a575b600080fd5b6102896004803603602081101561027957600080fd5b50356001600160a01b0316610738565b60408051918252519081900360200190f35b61028961074a565b610289600480360360208110156102b957600080fd5b5035610750565b6102dd600480360360208110156102d657600080fd5b50356107ab565b604080516001600160a01b0390971687526020870195909552858501939093526060850191909152608084015260a0830152519081900360c00190f35b6102896107fb565b61034d6004803603606081101561033857600080fd5b50803590602081013590604001351515610801565b005b61037b6004803603604081101561036557600080fd5b50803590602001356001600160a01b03166108dc565b6040805192835260208301919091528051918290030190f35b610289610a5c565b6103b9600480360360208110156103b257600080fd5b5035610a6c565b604080516001600160a01b039788168152959096166020860152848601939093526060840191909152608083015260a082015290519081900360c00190f35b610400610c82565b604080516001600160a01b039092168252519081900360200190f35b610289610c91565b610289610c97565b61034d610c9d565b61034d6004803603602081101561044a57600080fd5b50356001600160a01b0316610da3565b610400610e6c565b610400610e7b565b61034d6004803603602081101561048057600080fd5b5035610e8a565b61037b6004803603604081101561049d57600080fd5b50803590602001356001600160a01b0316610ef9565b610400600480360360208110156104c957600080fd5b5035610f1d565b6104f6600480360360208110156104e657600080fd5b50356001600160a01b0316610f8f565b604080519115158252519081900360200190f35b61034d611043565b6104f66004803603602081101561052857600080fd5b5035611067565b610289611107565b6102896004803603606081101561054d57600080fd5b506001600160a01b03813581169160208101359160409091013516611113565b6104f66004803603608081101561058357600080fd5b506001600160a01b038135811691602081013582169160408201351690606001356114d6565b610289600480360360208110156105bf57600080fd5b5035611782565b6102896117af565b61034d600480360360208110156105e457600080fd5b50356117ba565b61034d611821565b61034d6004803603602081101561060957600080fd5b50356001600160a01b031661198a565b61034d6004803603602081101561062f57600080fd5b50356001600160a01b0316611a53565b610400611b56565b6104f66004803603602081101561065d57600080fd5b50356001600160a01b0316611b65565b61034d6004803603604081101561068357600080fd5b506001600160a01b038135169060200135611b72565b610400611bde565b610289611bed565b610400611bf3565b61034d611c02565b610289600480360360208110156106cf57600080fd5b5035611cfb565b6104f6600480360360208110156106ec57600080fd5b50356001600160a01b0316611dd3565b610400611e87565b61034d6004803603606081101561071a57600080fd5b508035906001600160a01b0360208201351690604001351515611e96565b600d6020526000908152604090205481565b600e5490565b600060065460001415610765575060006107a6565b6005548211156107a25761079b600654610795600161078f600554876120fd90919063ffffffff16565b906120fd565b9061215a565b90506107a6565b5060005b919050565b600e81815481106107bb57600080fd5b60009182526020909120600690910201805460018201546002830154600384015460048501546005909501546001600160a01b0390941695509193909286565b60075481565b6108096121c1565b6001600160a01b031661081a610e7b565b6001600160a01b031614610863576040805162461bcd60e51b81526020600482018190526024820152600080516020612932833981519152604482015290519081900360640190fd5b801561087157610871611043565b6108ae826108a8600e868154811061088557fe5b9060005260206000209060060201600301546007546120fd90919063ffffffff16565b906121c5565b60078190555081600e84815481106108c257fe5b906000526020600020906006020160030181905550505050565b600e5460009081906000190184111561093c576040805162461bcd60e51b815260206004820152601e60248201527f537761704d696e696e673a204e6f742066696e64207468697320706f6f6c0000604482015290519081900360640190fd5b600080600e868154811061094c57fe5b600091825260208083206040805160c081018252600690940290910180546001600160a01b03908116855260018083015486860152600283015486850152600383015460608701526004830154608087015260059092015460a08601528b8652600f8452828620908b16865283529381902081518083019092528054808352940154918101919091529092509015610a4c5760006109ed8360a00151611cfb565b90506000610a0e60075461079586606001518561221f90919063ffffffff16565b9050610a47610a4085602001516107958660000151610a3a868a608001516121c590919063ffffffff16565b9061221f565b86906121c5565b945050505b51919350909150505b9250929050565b6000610a6743611782565b905090565b6000806000806000806001600e8054905003871115610ad2576040805162461bcd60e51b815260206004820152601e60248201527f537761704d696e696e673a204e6f742066696e64207468697320706f6f6c0000604482015290519081900360640190fd5b6000600e8881548110610ae157fe5b600091825260208083206040805160c081018252600690940290910180546001600160a01b031680855260018201548585015260028201548584015260038201546060860152600480830154608087015260059092015460a08601528251630dfe168160e01b8152925194965093630dfe16819383830193909290829003018186803b158015610b7057600080fd5b505afa158015610b84573d6000803e3d6000fd5b505050506040513d6020811015610b9a57600080fd5b505182516040805163d21220a760e01b815290519293506000926001600160a01b039092169163d21220a791600480820192602092909190829003018186803b158015610be657600080fd5b505afa158015610bfa573d6000803e3d6000fd5b505050506040513d6020811015610c1057600080fd5b5051608084015160a085015191925090600090610c2c90611cfb565b90506000610c4d60075461079588606001518561221f90919063ffffffff16565b9050610c5983826121c5565b60408701516020880151606090980151969f959e50909c509a5094985092965090945050505050565b600c546001600160a01b031681565b60055481565b60065481565b610ca56121c1565b6001600160a01b0316610cb6610e7b565b6001600160a01b031614610cff576040805162461bcd60e51b81526020600482018190526024820152600080516020612932833981519152604482015290519081900360640190fd5b600080546040516001600160a01b03909116907f8be0079c531659141344cd1fd0a4f28419497f9722a3daafe3b4186f6b6457e0908390a3600080546001600160a01b03191690556001546001600160a01b031615610da1576001546040516000916001600160a01b0316907f4465959e7ec1f32e3ebd831ac2459ad6ef4b1d54a83f108a7068e69e62f0702f908390a3600180546001600160a01b03191690555b565b610dab6121c1565b6001600160a01b0316610dbc610e7b565b6001600160a01b031614610e05576040805162461bcd60e51b81526020600482018190526024820152600080516020612932833981519152604482015290519081900360640190fd5b6001600160a01b038116610e4a5760405162461bcd60e51b815260040180806020018281038252602a8152602001806128a0602a913960400191505060405180910390fd5b600880546001600160a01b0319166001600160a01b0392909216919091179055565b6008546001600160a01b031681565b6000546001600160a01b031690565b610e926121c1565b6001600160a01b0316610ea3610e7b565b6001600160a01b031614610eec576040805162461bcd60e51b81526020600482018190526024820152600080516020612932833981519152604482015290519081900360640190fd5b610ef4611043565b600455565b600f6020908152600092835260408084209091529082529020805460019091015482565b60006001610f29611107565b03821115610f7e576040805162461bcd60e51b815260206004820152601f60248201527f537761704d696e696e673a20696e646578206f7574206f6620626f756e647300604482015290519081900360640190fd5b610f89600283612278565b92915050565b6000610f996121c1565b6001600160a01b0316610faa610e7b565b6001600160a01b031614610ff3576040805162461bcd60e51b81526020600482018190526024820152600080516020612932833981519152604482015290519081900360640190fd5b6001600160a01b0382166110385760405162461bcd60e51b815260040180806020018281038252602581526020018061284a6025913960400191505060405180910390fd5b610f89600283612284565b600e5460005b818110156110635761105a81611067565b50600101611049565b5050565b600080600e838154811061107757fe5b906000526020600020906006020190508060050154431161109c5760009150506107a6565b60006110ab8260050154611cfb565b9050600081116110c0576000925050506107a6565b60006110df60075461079585600301548561221f90919063ffffffff16565b60048401549091506110f190826121c5565b6004840155505043600590910155506001919050565b6000610a676002612299565b6000806001600160a01b0385811690841614156111315750826114ce565b600a546040805163e6a4390560e01b81526001600160a01b038881166004830152868116602483015291516000939092169163e6a4390591604480820192602092909190829003018186803b15801561118957600080fd5b505afa15801561119d573d6000803e3d6000fd5b505050506040513d60208110156111b357600080fd5b50516001600160a01b0316146112525760085460408051632321bc7960e21b81526001600160a01b03888116600483015260248201889052868116604483015291519190921691638c86f1e4916064808301926020929190829003018186803b15801561121f57600080fd5b505afa158015611233573d6000803e3d6000fd5b505050506040513d602081101561124957600080fd5b505190506114ce565b600061125c611107565b905060005b818110156114cb57600061127482610f1d565b600a546040805163e6a4390560e01b81526001600160a01b038c8116600483015284811660248301529151939450600093919092169163e6a43905916044808301926020929190829003018186803b1580156112cf57600080fd5b505afa1580156112e3573d6000803e3d6000fd5b505050506040513d60208110156112f957600080fd5b50516001600160a01b03161480159061139d5750600a546040805163e6a4390560e01b81526001600160a01b038481166004830152898116602483015291516000939092169163e6a4390591604480820192602092909190829003018186803b15801561136557600080fd5b505afa158015611379573d6000803e3d6000fd5b505050506040513d602081101561138f57600080fd5b50516001600160a01b031614155b156114c25760085460408051632321bc7960e21b81526001600160a01b038b81166004830152602482018b9052848116604483015291516000939290921691638c86f1e491606480820192602092909190829003018186803b15801561140257600080fd5b505afa158015611416573d6000803e3d6000fd5b505050506040513d602081101561142c57600080fd5b505160085460408051632321bc7960e21b81526001600160a01b038681166004830152602482018590528b811660448301529151939450911691638c86f1e491606480820192602092909190829003018186803b15801561148c57600080fd5b505afa1580156114a0573d6000803e3d6000fd5b505050506040513d60208110156114b657600080fd5b505194506114cb915050565b50600101611261565b50505b949350505050565b6009546000906001600160a01b031633146115225760405162461bcd60e51b81526004018080602001828103825260248152602001806128ca6024913960400191505060405180910390fd5b6001600160a01b0385166115675760405162461bcd60e51b81526004018080602001828103825260328152602001806129526032913960400191505060405180910390fd5b6001600160a01b0384166115ac5760405162461bcd60e51b81526004018080602001828103825260308152602001806129ab6030913960400191505060405180910390fd5b6001600160a01b0383166115f15760405162461bcd60e51b815260040180806020018281038252603181526020018061286f6031913960400191505060405180910390fd5b60006115fb61074a565b11611608575060006114ce565b61161184611b65565b1580611623575061162183611b65565b155b15611630575060006114ce565b600a5460009061164a906001600160a01b031686866122a4565b6001600160a01b0381166000908152600d6020526040812054600e80549394509192811061167457fe5b6000918252602090912060069091020180549091506001600160a01b0383811691161415806116a557506003810154155b156116b5576000925050506114ce565b600c546000906116d190879087906001600160a01b0316611113565b9050600081116116e757600093505050506114ce565b6001600160a01b0383166000908152600d602052604090205461170990611067565b50600182015461171990826121c5565b6001830155600282015461172d90826121c5565b60028301556001600160a01b038084166000908152600d60209081526040808320548352600f8252808320938c16835292905220805461176d90836121c5565b81554360019182015598975050505050505050565b60008061178e83610750565b90506117a88160020a60045461215a90919063ffffffff16565b9392505050565b6000610a6743610750565b6117c26121c1565b6001600160a01b03166117d3610e7b565b6001600160a01b03161461181c576040805162461bcd60e51b81526020600482018190526024820152600080516020612932833981519152604482015290519081900360640190fd5b600655565b600e54600090815b818110156118ed576000600e828154811061184057fe5b60009182526020808320858452600f825260408085203386529092529220805460069092029092019250156118e35761187883611067565b50600061189e83600101546107958460000154866004015461221f90919063ffffffff16565b825460018501549192506118b291906120fd565b600184015560048301546118c690826120fd565b6004840155600082554360018301556118df86826121c5565b9550505b5050600101611829565b50600082116118fd575050610da1565b611906826123c6565b600b546040805163a9059cbb60e01b81523360048201526024810185905290516001600160a01b039092169163a9059cbb916044808201926020929091908290030181600087803b15801561195a57600080fd5b505af115801561196e573d6000803e3d6000fd5b505050506040513d602081101561198457600080fd5b50505050565b6119926121c1565b6001600160a01b03166119a3610e7b565b6001600160a01b0316146119ec576040805162461bcd60e51b81526020600482018190526024820152600080516020612932833981519152604482015290519081900360640190fd5b6001600160a01b038116611a315760405162461bcd60e51b815260040180806020018281038252602a8152602001806127eb602a913960400191505060405180910390fd5b600980546001600160a01b0319166001600160a01b0392909216919091179055565b611a5b6121c1565b6001600160a01b0316611a6c610e7b565b6001600160a01b031614611ab5576040805162461bcd60e51b81526020600482018190526024820152600080516020612932833981519152604482015290519081900360640190fd5b6001600160a01b038116611afa5760405162461bcd60e51b81526004018080602001828103825260298152602001806129db6029913960400191505060405180910390fd5b6001546040516001600160a01b038084169216907f4465959e7ec1f32e3ebd831ac2459ad6ef4b1d54a83f108a7068e69e62f0702f90600090a3600180546001600160a01b0319166001600160a01b0392909216919091179055565b600a546001600160a01b031681565b6000610f8960028361240a565b611b7a6121c1565b6001600160a01b0316611b8b610e7b565b6001600160a01b031614611bd4576040805162461bcd60e51b81526020600482018190526024820152600080516020612932833981519152604482015290519081900360640190fd5b611063828261241f565b600b546001600160a01b031681565b60045481565b6001546001600160a01b031690565b611c0a6121c1565b6001600160a01b0316611c1b611bf3565b6001600160a01b031614611c605760405162461bcd60e51b81526004018080602001828103825260278152602001806129846027913960400191505060405180910390fd5b600154600080546040516001600160a01b0393841693909116917f8be0079c531659141344cd1fd0a4f28419497f9722a3daafe3b4186f6b6457e091a3600154600080546001600160a01b0319166001600160a01b0390921691821781556040519091907f4465959e7ec1f32e3ebd831ac2459ad6ef4b1d54a83f108a7068e69e62f0702f908390a3600180546001600160a01b0319169055565b600043821115611d3c5760405162461bcd60e51b81526004018080602001828103825260358152602001806128156035913960400191505060405180910390fd5b600080611d4884610750565b90506000611d5543610750565b90505b80821015611daa57600554600654600190930192600091611d7e916108a890869061221f565b9050611da0611d99611d8f83611782565b610a3a848a6120fd565b85906121c5565b9095509250611d58565b611dca611dc3611db943611782565b610a3a43896120fd565b84906121c5565b95945050505050565b6000611ddd6121c1565b6001600160a01b0316611dee610e7b565b6001600160a01b031614611e37576040805162461bcd60e51b81526020600482018190526024820152600080516020612932833981519152604482015290519081900360640190fd5b6001600160a01b038216611e7c5760405162461bcd60e51b815260040180806020018281038252602581526020018061284a6025913960400191505060405180910390fd5b610f8960028361252b565b6009546001600160a01b031681565b611e9e6121c1565b6001600160a01b0316611eaf610e7b565b6001600160a01b031614611ef8576040805162461bcd60e51b81526020600482018190526024820152600080516020612932833981519152604482015290519081900360640190fd5b6001600160a01b038216611f53576040805162461bcd60e51b815260206004820152601960248201527f5f7061697220697320746865207a65726f206164647265737300000000000000604482015290519081900360640190fd5b8015611f6157611f61611043565b60006005544311611f7457600554611f76565b435b600754909150611f8690856121c5565b6007556040805160c0810182526001600160a01b038581168252600060208301818152938301818152606084018981526080850183815260a08601888152600e8054600180820183559190965296517fbb7b4a454dc3493923482f07822329ed19e8244eff582cc204f8554c3620c3fd600690960295860180546001600160a01b031916919097161790955595517fbb7b4a454dc3493923482f07822329ed19e8244eff582cc204f8554c3620c3fe84015590517fbb7b4a454dc3493923482f07822329ed19e8244eff582cc204f8554c3620c3ff830155517fbb7b4a454dc3493923482f07822329ed19e8244eff582cc204f8554c3620c40082015592517fbb7b4a454dc3493923482f07822329ed19e8244eff582cc204f8554c3620c401840155517fbb7b4a454dc3493923482f07822329ed19e8244eff582cc204f8554c3620c402909201919091556120da61074a565b6001600160a01b039094166000908152600d602052604090209303909255505050565b600082821115612154576040805162461bcd60e51b815260206004820152601e60248201527f536166654d6174683a207375627472616374696f6e206f766572666c6f770000604482015290519081900360640190fd5b50900390565b60008082116121b0576040805162461bcd60e51b815260206004820152601a60248201527f536166654d6174683a206469766973696f6e206279207a65726f000000000000604482015290519081900360640190fd5b8183816121b957fe5b049392505050565b3390565b6000828201838110156117a8576040805162461bcd60e51b815260206004820152601b60248201527f536166654d6174683a206164646974696f6e206f766572666c6f770000000000604482015290519081900360640190fd5b60008261222e57506000610f89565b8282028284828161223b57fe5b04146117a85760405162461bcd60e51b81526004018080602001828103825260218152602001806129116021913960400191505060405180910390fd5b60006117a88383612540565b60006117a8836001600160a01b0384166125a4565b6000610f898261266a565b60008060006122b3858561266e565b9150915085828260405160200180836001600160a01b031660601b8152601401826001600160a01b031660601b81526014019250505060405160208183030381529060405280519060200120876001600160a01b0316635855a25a6040518163ffffffff1660e01b815260040160206040518083038186803b15801561233857600080fd5b505afa15801561234c573d6000803e3d6000fd5b505050506040513d602081101561236257600080fd5b5051604080516001600160f81b031960208083019190915260609590951b6bffffffffffffffffffffffff19166021820152603581019390935260558084019290925280518084039092018252607590920190915280519101209695505050505050565b6040805160248082018490528251808303909101815260449091019091526020810180516001600160e01b031663f5b1bba960e01b17905261240790612745565b50565b60006117a8836001600160a01b038416612766565b600b54604080516370a0823160e01b815230600482015290516000926001600160a01b0316916370a08231916024808301926020929190829003018186803b15801561246a57600080fd5b505afa15801561247e573d6000803e3d6000fd5b505050506040513d602081101561249457600080fd5b50519050808211156124a4578091505b600b546040805163a9059cbb60e01b81526001600160a01b038681166004830152602482018690529151919092169163a9059cbb9160448083019260209291908290030181600087803b1580156124fa57600080fd5b505af115801561250e573d6000803e3d6000fd5b505050506040513d602081101561252457600080fd5b5050505050565b60006117a8836001600160a01b03841661277e565b815460009082106125825760405162461bcd60e51b81526004018080602001828103825260228152602001806127c96022913960400191505060405180910390fd5b82600001828154811061259157fe5b9060005260206000200154905092915050565b6000818152600183016020526040812054801561266057835460001980830191908101906000908790839081106125d757fe5b90600052602060002001549050808760000184815481106125f457fe5b60009182526020808320909101929092558281526001898101909252604090209084019055865487908061262457fe5b60019003818190600052602060002001600090559055866001016000878152602001908152602001600020600090556001945050505050610f89565b6000915050610f89565b5490565b600080826001600160a01b0316846001600160a01b031614156126c25760405162461bcd60e51b81526004018080602001828103825260238152602001806128ee6023913960400191505060405180910390fd5b826001600160a01b0316846001600160a01b0316106126e25782846126e5565b83835b90925090506001600160a01b038216610a55576040805162461bcd60e51b815260206004820152601c60248201527f50616e63616b654c6962726172793a205a45524f5f4144445245535300000000604482015290519081900360640190fd5b80516a636f6e736f6c652e6c6f67602083016000808483855afa5050505050565b60009081526001919091016020526040902054151590565b600061278a8383612766565b6127c057508154600181810184556000848152602080822090930184905584548482528286019093526040902091909155610f89565b506000610f8956fe456e756d657261626c655365743a20696e646578206f7574206f6620626f756e6473537761704d696e696e673a206e657720726f7574657220697320746865207a65726f2061646472657373537761704d696e696e673a206d757374206c6974746c65207468616e207468652063757272656e7420626c6f636b206e756d626572537761704d696e696e673a20746f6b656e20697320746865207a65726f2061646472657373537761704d696e696e673a2074616b65722073776170206f757470757420697320746865207a65726f2061646472657373537761704d696e696e673a206e6577206f7261636c6520697320746865207a65726f2061646472657373537761704d696e696e673a2063616c6c6572206973206e6f742074686520726f7574657250616e63616b654c6962726172793a204944454e544943414c5f414444524553534553536166654d6174683a206d756c7469706c69636174696f6e206f766572666c6f774f776e61626c653a2063616c6c6572206973206e6f7420746865206f776e6572537761704d696e696e673a2074616b65722073776170206163636f756e7420697320746865207a65726f20616464726573734f776e61626c653a2063616c6c6572206973206e6f74207468652070656e64696e674f776e6572537761704d696e696e673a2074616b6572207377617020696e70757420697320746865207a65726f20616464726573734f776e61626c653a2070656e64696e674f776e657220697320746865207a65726f2061646472657373a2646970667358221220d96752975c53a650bce50dc221fbf4d4ad55d5ab613839d34625538b90c8388964736f6c63430007060033",
  "devdoc": {
    "kind": "dev",
    "methods": {},
    "version": 1
  },
  "userdoc": {
    "kind": "user",
    "methods": {},
    "version": 1
  },
  "storageLayout": {
    "storage": [
      {
        "astId": 2335,
        "contract": "contracts/swapmining/SwapMining.sol:SwapMining",
        "label": "_owner",
        "offset": 0,
        "slot": "0",
        "type": "t_address"
      },
      {
        "astId": 2337,
        "contract": "contracts/swapmining/SwapMining.sol:SwapMining",
        "label": "_pendingOwner",
        "offset": 0,
        "slot": "1",
        "type": "t_address"
      },
      {
        "astId": 12061,
        "contract": "contracts/swapmining/SwapMining.sol:SwapMining",
        "label": "_whitelist",
        "offset": 0,
        "slot": "2",
        "type": "t_struct(AddressSet)2071_storage"
      },
      {
        "astId": 12063,
        "contract": "contracts/swapmining/SwapMining.sol:SwapMining",
        "label": "flyPerBlock",
        "offset": 0,
        "slot": "4",
        "type": "t_uint256"
      },
      {
        "astId": 12065,
        "contract": "contracts/swapmining/SwapMining.sol:SwapMining",
        "label": "startBlock",
        "offset": 0,
        "slot": "5",
        "type": "t_uint256"
      },
      {
        "astId": 12068,
        "contract": "contracts/swapmining/SwapMining.sol:SwapMining",
        "label": "halvingPeriod",
        "offset": 0,
        "slot": "6",
        "type": "t_uint256"
      },
      {
        "astId": 12071,
        "contract": "contracts/swapmining/SwapMining.sol:SwapMining",
        "label": "totalAllocPoint",
        "offset": 0,
        "slot": "7",
        "type": "t_uint256"
      },
      {
        "astId": 12073,
        "contract": "contracts/swapmining/SwapMining.sol:SwapMining",
        "label": "oracle",
        "offset": 0,
        "slot": "8",
        "type": "t_contract(IOracle)4191"
      },
      {
        "astId": 12075,
        "contract": "contracts/swapmining/SwapMining.sol:SwapMining",
        "label": "router",
        "offset": 0,
        "slot": "9",
        "type": "t_address"
      },
      {
        "astId": 12077,
        "contract": "contracts/swapmining/SwapMining.sol:SwapMining",
        "label": "factory",
        "offset": 0,
        "slot": "10",
        "type": "t_contract(IGIBXFactory)3538"
      },
      {
        "astId": 12079,
        "contract": "contracts/swapmining/SwapMining.sol:SwapMining",
        "label": "vdrToken",
        "offset": 0,
        "slot": "11",
        "type": "t_contract(GIBXToken)14574"
      },
      {
        "astId": 12081,
        "contract": "contracts/swapmining/SwapMining.sol:SwapMining",
        "label": "targetToken",
        "offset": 0,
        "slot": "12",
        "type": "t_address"
      },
      {
        "astId": 12085,
        "contract": "contracts/swapmining/SwapMining.sol:SwapMining",
        "label": "pairOfPid",
        "offset": 0,
        "slot": "13",
        "type": "t_mapping(t_address,t_uint256)"
      },
      {
        "astId": 12201,
        "contract": "contracts/swapmining/SwapMining.sol:SwapMining",
        "label": "poolInfo",
        "offset": 0,
        "slot": "14",
        "type": "t_array(t_struct(PoolInfo)12198_storage)dyn_storage"
      },
      {
        "astId": 12207,
        "contract": "contracts/swapmining/SwapMining.sol:SwapMining",
        "label": "userInfo",
        "offset": 0,
        "slot": "15",
        "type": "t_mapping(t_uint256,t_mapping(t_address,t_struct(UserInfo)12185_storage))"
      }
    ],
    "types": {
      "t_address": {
        "encoding": "inplace",
        "label": "address",
        "numberOfBytes": "20"
      },
      "t_array(t_bytes32)dyn_storage": {
        "base": "t_bytes32",
        "encoding": "dynamic_array",
        "label": "bytes32[]",
        "numberOfBytes": "32"
      },
      "t_array(t_struct(PoolInfo)12198_storage)dyn_storage": {
        "base": "t_struct(PoolInfo)12198_storage",
        "encoding": "dynamic_array",
        "label": "struct SwapMining.PoolInfo[]",
        "numberOfBytes": "32"
      },
      "t_bytes32": {
        "encoding": "inplace",
        "label": "bytes32",
        "numberOfBytes": "32"
      },
      "t_contract(GIBXToken)14574": {
        "encoding": "inplace",
        "label": "contract GIBXToken",
        "numberOfBytes": "20"
      },
      "t_contract(IGIBXFactory)3538": {
        "encoding": "inplace",
        "label": "contract IGIBXFactory",
        "numberOfBytes": "20"
      },
      "t_contract(IOracle)4191": {
        "encoding": "inplace",
        "label": "contract IOracle",
        "numberOfBytes": "20"
      },
      "t_mapping(t_address,t_struct(UserInfo)12185_storage)": {
        "encoding": "mapping",
        "key": "t_address",
        "label": "mapping(address => struct SwapMining.UserInfo)",
        "numberOfBytes": "32",
        "value": "t_struct(UserInfo)12185_storage"
      },
      "t_mapping(t_address,t_uint256)": {
        "encoding": "mapping",
        "key": "t_address",
        "label": "mapping(address => uint256)",
        "numberOfBytes": "32",
        "value": "t_uint256"
      },
      "t_mapping(t_bytes32,t_uint256)": {
        "encoding": "mapping",
        "key": "t_bytes32",
        "label": "mapping(bytes32 => uint256)",
        "numberOfBytes": "32",
        "value": "t_uint256"
      },
      "t_mapping(t_uint256,t_mapping(t_address,t_struct(UserInfo)12185_storage))": {
        "encoding": "mapping",
        "key": "t_uint256",
        "label": "mapping(uint256 => mapping(address => struct SwapMining.UserInfo))",
        "numberOfBytes": "32",
        "value": "t_mapping(t_address,t_struct(UserInfo)12185_storage)"
      },
      "t_struct(AddressSet)2071_storage": {
        "encoding": "inplace",
        "label": "struct EnumerableSet.AddressSet",
        "members": [
          {
            "astId": 2070,
            "contract": "contracts/swapmining/SwapMining.sol:SwapMining",
            "label": "_inner",
            "offset": 0,
            "slot": "0",
            "type": "t_struct(Set)1806_storage"
          }
        ],
        "numberOfBytes": "64"
      },
      "t_struct(PoolInfo)12198_storage": {
        "encoding": "inplace",
        "label": "struct SwapMining.PoolInfo",
        "members": [
          {
            "astId": 12187,
            "contract": "contracts/swapmining/SwapMining.sol:SwapMining",
            "label": "pair",
            "offset": 0,
            "slot": "0",
            "type": "t_address"
          },
          {
            "astId": 12189,
            "contract": "contracts/swapmining/SwapMining.sol:SwapMining",
            "label": "quantity",
            "offset": 0,
            "slot": "1",
            "type": "t_uint256"
          },
          {
            "astId": 12191,
            "contract": "contracts/swapmining/SwapMining.sol:SwapMining",
            "label": "totalQuantity",
            "offset": 0,
            "slot": "2",
            "type": "t_uint256"
          },
          {
            "astId": 12193,
            "contract": "contracts/swapmining/SwapMining.sol:SwapMining",
            "label": "allocPoint",
            "offset": 0,
            "slot": "3",
            "type": "t_uint256"
          },
          {
            "astId": 12195,
            "contract": "contracts/swapmining/SwapMining.sol:SwapMining",
            "label": "allocMdxAmount",
            "offset": 0,
            "slot": "4",
            "type": "t_uint256"
          },
          {
            "astId": 12197,
            "contract": "contracts/swapmining/SwapMining.sol:SwapMining",
            "label": "lastRewardBlock",
            "offset": 0,
            "slot": "5",
            "type": "t_uint256"
          }
        ],
        "numberOfBytes": "192"
      },
      "t_struct(Set)1806_storage": {
        "encoding": "inplace",
        "label": "struct EnumerableSet.Set",
        "members": [
          {
            "astId": 1801,
            "contract": "contracts/swapmining/SwapMining.sol:SwapMining",
            "label": "_values",
            "offset": 0,
            "slot": "0",
            "type": "t_array(t_bytes32)dyn_storage"
          },
          {
            "astId": 1805,
            "contract": "contracts/swapmining/SwapMining.sol:SwapMining",
            "label": "_indexes",
            "offset": 0,
            "slot": "1",
            "type": "t_mapping(t_bytes32,t_uint256)"
          }
        ],
        "numberOfBytes": "64"
      },
      "t_struct(UserInfo)12185_storage": {
        "encoding": "inplace",
        "label": "struct SwapMining.UserInfo",
        "members": [
          {
            "astId": 12182,
            "contract": "contracts/swapmining/SwapMining.sol:SwapMining",
            "label": "quantity",
            "offset": 0,
            "slot": "0",
            "type": "t_uint256"
          },
          {
            "astId": 12184,
            "contract": "contracts/swapmining/SwapMining.sol:SwapMining",
            "label": "blockNumber",
            "offset": 0,
            "slot": "1",
            "type": "t_uint256"
          }
        ],
        "numberOfBytes": "64"
      },
      "t_uint256": {
        "encoding": "inplace",
        "label": "uint256",
        "numberOfBytes": "32"
      }
    }
  }
}