{
  "address": "0xdBA63Fa240d8f4FF68C82082a48087243E2dA79b",
  "abi": [
    {
      "inputs": [
        {
          "internalType": "address",
          "name": "_token",
          "type": "address"
        },
        {
          "internalType": "address",
          "name": "_receiver",
          "type": "address"
        },
        {
          "internalType": "uint256",
          "name": "_intervalSeconds",
          "type": "uint256"
        },
        {
          "internalType": "uint256",
          "name": "_releaseAmount",
          "type": "uint256"
        }
      ],
      "stateMutability": "nonpayable",
      "type": "constructor"
    },
    {
      "inputs": [],
      "name": "SECONDS_PER_BLOCK",
      "outputs": [
        {
          "internalType": "uint256",
          "name": "",
          "type": "uint256"
        }
      ],
      "stateMutability": "view",
      "type": "function"
    },
    {
      "inputs": [],
      "name": "claim",
      "outputs": [],
      "stateMutability": "nonpayable",
      "type": "function"
    },
    {
      "inputs": [],
      "name": "interval",
      "outputs": [
        {
          "internalType": "uint256",
          "name": "",
          "type": "uint256"
        }
      ],
      "stateMutability": "view",
      "type": "function"
    },
    {
      "inputs": [],
      "name": "lastReleaseAt",
      "outputs": [
        {
          "internalType": "uint256",
          "name": "",
          "type": "uint256"
        }
      ],
      "stateMutability": "view",
      "type": "function"
    },
    {
      "inputs": [],
      "name": "lockInfo",
      "outputs": [
        {
          "internalType": "uint256",
          "name": "amount",
          "type": "uint256"
        },
        {
          "internalType": "uint256",
          "name": "timestamp",
          "type": "uint256"
        }
      ],
      "stateMutability": "view",
      "type": "function"
    },
    {
      "inputs": [],
      "name": "receiver",
      "outputs": [
        {
          "internalType": "address",
          "name": "",
          "type": "address"
        }
      ],
      "stateMutability": "view",
      "type": "function"
    },
    {
      "inputs": [],
      "name": "releaseAmount",
      "outputs": [
        {
          "internalType": "uint256",
          "name": "",
          "type": "uint256"
        }
      ],
      "stateMutability": "view",
      "type": "function"
    },
    {
      "inputs": [],
      "name": "token",
      "outputs": [
        {
          "internalType": "contract IERC20",
          "name": "",
          "type": "address"
        }
      ],
      "stateMutability": "view",
      "type": "function"
    },
    {
      "inputs": [],
      "name": "totalReleasedAmount",
      "outputs": [
        {
          "internalType": "uint256",
          "name": "",
          "type": "uint256"
        }
      ],
      "stateMutability": "view",
      "type": "function"
    }
  ],
  "transactionHash": "0x167bdd9f30690b1e8c0ebcf7604583cdff578e904bfb1ef70f59d04831eb10e4",
  "args": [
    "0x0fCC29c11b6eBEDafde71e0Ea114Bd1edDf47d23",
    "0x5F0AfAFd150fDb7B490a4b9d3744ac9e432d313E",
    2592000,
    "5000000000000000000000000"
  ],
  "solcInputHash": "d2da3992c7ce11c5ac8aac23ec92f50f",
  "bytecode": "0x61010060405234801561001157600080fd5b50604051610d83380380610d838339818101604052608081101561003457600080fd5b50805160208201516040830151606090930151919290916001600160a01b038416610096576040805162461bcd60e51b815260206004820152600d60248201526c34b63632b3b0b6103a37b5b2b760991b604482015290519081900360640190fd5b6001600160601b0319606085811b821660805284901b1660a052600382116100f8576040805162461bcd60e51b815260206004820152601060248201526f1a5b1b1959d85b081a5b9d195c9d985b60821b604482015290519081900360640190fd5b6000610140600361012e600161011c6003886101d560201b6102f91790919060201c565b61023660201b61035c1790919060201c565b61029360201b6103b91790919060201c565b60c08190529050600043821161016c57610167824361023660201b61035c1790919060201c565b61016e565b435b60008190559050826101c7576040805162461bcd60e51b815260206004820152601560248201527f696c6c6567616c2072656c65617365416d6f756e740000000000000000000000604482015290519081900360640190fd5b505060e052506102fa915050565b60008282018381101561022f576040805162461bcd60e51b815260206004820152601b60248201527f536166654d6174683a206164646974696f6e206f766572666c6f770000000000604482015290519081900360640190fd5b9392505050565b60008282111561028d576040805162461bcd60e51b815260206004820152601e60248201527f536166654d6174683a207375627472616374696f6e206f766572666c6f770000604482015290519081900360640190fd5b50900390565b60008082116102e9576040805162461bcd60e51b815260206004820152601a60248201527f536166654d6174683a206469766973696f6e206279207a65726f000000000000604482015290519081900360640190fd5b8183816102f257fe5b049392505050565b60805160601c60a05160601c60c05160e051610a216103626000398061021c528061049552508061015f52806101f85280610278528061042c52806104685250806101c652806102b35250806101a552806102d752806104bf528061057c5250610a216000f3fe608060405234801561001057600080fd5b50600436106100935760003560e01c8063c062dc5f11610066578063c062dc5f146100cc578063c1d74258146100d4578063db762bc9146100dc578063f7260d3e146100fd578063fc0c546a1461012157610093565b806345eab180146100985780634e71d92d146100b257806383273cd1146100bc578063947a36fb146100c4575b600080fd5b6100a0610129565b60408051918252519081900360200190f35b6100ba61012f565b005b6100a06101f0565b6100a06101f6565b6100a061021a565b6100a061023e565b6100e4610243565b6040805192835260208301919091528051918290030190f35b6101056102b1565b604080516001600160a01b039092168252519081900360200190f35b6101056102d5565b60005481565b60008061013a610420565b91509150816000148061014b575080155b156101575750506101ee565b61018d6101847f0000000000000000000000000000000000000000000000000000000000000000836105fb565b600054906102f9565b60005560015461019d90836102f9565b6001556101eb7f00000000000000000000000000000000000000000000000000000000000000007f000000000000000000000000000000000000000000000000000000000000000084610654565b50505b565b60015481565b7f000000000000000000000000000000000000000000000000000000000000000081565b7f000000000000000000000000000000000000000000000000000000000000000081565b600381565b60008061024e610420565b509150816102ad576102aa6102a3600361029d6102766000544361035c90919063ffffffff16565b7f00000000000000000000000000000000000000000000000000000000000000009061035c565b906105fb565b42906102f9565b90505b9091565b7f000000000000000000000000000000000000000000000000000000000000000081565b7f000000000000000000000000000000000000000000000000000000000000000081565b600082820183811015610353576040805162461bcd60e51b815260206004820152601b60248201527f536166654d6174683a206164646974696f6e206f766572666c6f770000000000604482015290519081900360640190fd5b90505b92915050565b6000828211156103b3576040805162461bcd60e51b815260206004820152601e60248201527f536166654d6174683a207375627472616374696f6e206f766572666c6f770000604482015290519081900360640190fd5b50900390565b600080821161040f576040805162461bcd60e51b815260206004820152601a60248201527f536166654d6174683a206469766973696f6e206279207a65726f000000000000604482015290519081900360640190fd5b81838161041857fe5b049392505050565b600080548190439081037f0000000000000000000000000000000000000000000000000000000000000000811015610460576000809350935050506102ad565b600061048c827f00000000000000000000000000000000000000000000000000000000000000006103b9565b905060006104ba7f0000000000000000000000000000000000000000000000000000000000000000836105fb565b9050807f00000000000000000000000000000000000000000000000000000000000000006001600160a01b03166370a08231306040518263ffffffff1660e01b815260040180826001600160a01b0316815260200191505060206040518083038186803b15801561052a57600080fd5b505afa15801561053e573d6000803e3d6000fd5b505050506040513d602081101561055457600080fd5b505110156105f157604080516370a0823160e01b815230600482015290516001600160a01b037f000000000000000000000000000000000000000000000000000000000000000016916370a08231916024808301926020929190829003018186803b1580156105c257600080fd5b505afa1580156105d6573d6000803e3d6000fd5b505050506040513d60208110156105ec57600080fd5b505190505b9450925050509091565b60008261060a57506000610356565b8282028284828161061757fe5b04146103535760405162461bcd60e51b81526004018080602001828103825260218152602001806109a16021913960400191505060405180910390fd5b604080516001600160a01b038416602482015260448082018490528251808303909101815260649091019091526020810180516001600160e01b031663a9059cbb60e01b1790526106a69084906106ab565b505050565b6000610700826040518060400160405280602081526020017f5361666545524332303a206c6f772d6c6576656c2063616c6c206661696c6564815250856001600160a01b031661075c9092919063ffffffff16565b8051909150156106a65780806020019051602081101561071f57600080fd5b50516106a65760405162461bcd60e51b815260040180806020018281038252602a8152602001806109c2602a913960400191505060405180910390fd5b606061076b8484600085610775565b90505b9392505050565b6060824710156107b65760405162461bcd60e51b815260040180806020018281038252602681526020018061097b6026913960400191505060405180910390fd5b6107bf856108d0565b610810576040805162461bcd60e51b815260206004820152601d60248201527f416464726573733a2063616c6c20746f206e6f6e2d636f6e7472616374000000604482015290519081900360640190fd5b600080866001600160a01b031685876040518082805190602001908083835b6020831061084e5780518252601f19909201916020918201910161082f565b6001836020036101000a03801982511681845116808217855250505050505090500191505060006040518083038185875af1925050503d80600081146108b0576040519150601f19603f3d011682016040523d82523d6000602084013e6108b5565b606091505b50915091506108c58282866108d6565b979650505050505050565b3b151590565b606083156108e557508161076e565b8251156108f55782518084602001fd5b8160405162461bcd60e51b81526004018080602001828103825283818151815260200191508051906020019080838360005b8381101561093f578181015183820152602001610927565b50505050905090810190601f16801561096c5780820380516001836020036101000a031916815260200191505b509250505060405180910390fdfe416464726573733a20696e73756666696369656e742062616c616e636520666f722063616c6c536166654d6174683a206d756c7469706c69636174696f6e206f766572666c6f775361666545524332303a204552433230206f7065726174696f6e20646964206e6f742073756363656564a2646970667358221220466adb468679ac9de3895575b1716e9ea0aa96b8fe41f9e20ce3ef1bbe4a694b64736f6c63430007060033",
  "devdoc": {
    "kind": "dev",
    "methods": {},
    "version": 1
  },
  "userdoc": {
    "kind": "user",
    "methods": {
      "SECONDS_PER_BLOCK()": {
        "notice": "every block cast 3 seconds"
      },
      "interval()": {
        "notice": "how many block must be passed before next release"
      },
      "lastReleaseAt()": {
        "notice": "the blockNum of last release, the init value would be the timestamp the contract created"
      },
      "lockInfo()": {
        "notice": "return the amount we can claim now, and the next timestamp we can claim next time"
      },
      "receiver()": {
        "notice": "who will receive this token"
      },
      "releaseAmount()": {
        "notice": "the amount of one release time"
      },
      "token()": {
        "notice": "the token to lock"
      },
      "totalReleasedAmount()": {
        "notice": "the total amount till now"
      }
    },
    "version": 1
  },
  "storageLayout": {
    "storage": [
      {
        "astId": 14596,
        "contract": "contracts/token/TokenLocker.sol:TokenLocker",
        "label": "lastReleaseAt",
        "offset": 0,
        "slot": "0",
        "type": "t_uint256"
      },
      {
        "astId": 14605,
        "contract": "contracts/token/TokenLocker.sol:TokenLocker",
        "label": "totalReleasedAmount",
        "offset": 0,
        "slot": "1",
        "type": "t_uint256"
      }
    ],
    "types": {
      "t_uint256": {
        "encoding": "inplace",
        "label": "uint256",
        "numberOfBytes": "32"
      }
    }
  }
}